:100000000C943E000C9448000C9448000C9448005A
:100010000C9448000C9448000C9448000C94480040
:100020000C9448000C9448000C9448000C94480030
:100030000C9448000C9448000C9448000C94480020
:100040000C9448000C9448000C9448000C94480010
:100050000C9448000C9448000C9448000C94480000
:100060000C9448000C9448000C9448000C944800F0
:100070000C9448000C9448000C94480011241FBEB6
:10008000CFEFD8E0DEBFCDBF0E9477000C94A40074
:100090000C94000010927C0086E880937A0008950A
:1000A00010927A00089580917C00807E80937C007D
:1000B00080917C006770682B60937C0080917A004F
:1000C000806480937A0080917A0084FFFCCF8091D5
:1000D0007A00806180937A00209178009091790075
:1000E000892F90E0982F8827820F911D0895CF9334
:1000F000DF931F92CDB7DEB711B88FEF84B9CE0171
:1001000001960E944A0012E001E060B1CE01019622
:100110000E94530096958795969587958E3610F494
:1001200005B9F3CF8E5615B9813778F78FE097E28E
:100130000197F1F700C0000005B98FE19EE4019737
:0C014000F1F700C00000E1CFF894FFCF01
:00000001FF
