:100000000C943E000C9448000C9448000C9448005A
:100010000C9448000C9448000C9448000C94480040
:100020000C9448000C9448000C9448000C94480030
:100030000C9448000C9448000C9448000C94480020
:100040000C9448000C9448000C9448000C94480010
:100050000C9448000C9448000C9448000C94480000
:100060000C9448000C9448000C9448000C944800F0
:100070000C9448000C9448000C94480011241FBEB6
:10008000CFEFD8E0DEBFCDBF0E94E1000C94E902C3
:100090000C94000099B1EFE2F5E73197F1F700C059
:1000A000000089B192FF04C082FB882780F908957F
:1000B00080E00895833061F48FEC97E00197F1F7C9
:1000C00000C000008FEC97E00197F1F700C000003E
:1000D00008954F925F926F927F928F929F92AF920C
:1000E000BF92CF92DF92EF92FF92CF93DF934901BD
:1000F0005A019B01AC0160E070E080E89FE30E9440
:1001000058016B017C01A50194010E947C0220E052
:1001100030E04AE754E40E947C022B013C01D0E02D
:10012000C0E0BE010D2E000C880B990B0E94CC0183
:10013000A30192010E94530187FD2BC0A5019401E8
:1001400060E070E080E89FE30E94E600A70196016E
:100150000E947C0220E030E04AE754E40E947C02E6
:100160006B017C01D0E0C0E0BE010D2E000C880BBD
:10017000990B0E94CC01A70196010E94530187FFB1
:1001800010C08FEC97E00197F1F700C000002196B6
:10019000EBCF8FEC97E00197F1F700C000002196BC
:1001A000C0CFDF91CF91FF90EF90DF90CF90BF90C5
:1001B000AF909F908F907F906F905F904F90089539
:1001C00008950E944A0090E080E008955058BB27AF
:1001D000AA270E94FE000C9442020E94340238F0CA
:1001E0000E943B0220F039F49F3F19F426F40C944E
:1001F00031020EF4E095E7FB0C942B02E92F0E94EC
:10020000530258F3BA17620773078407950720F063
:1002100079F4A6F50C9475020EF4E0950B2EBA2F26
:10022000A02D0B01B90190010C01CA01A0011124FC
:10023000FF27591B99F0593F50F4503E68F11A16A8
:10024000F040A22F232F342F4427585FF3CF469539
:1002500037952795A795F0405395C9F77EF41F165B
:10026000BA0B620B730B840BBAF09150A1F0FF0F25
:10027000BB1F661F771F881FC2F70EC0BA0F621F11
:10028000731F841F48F4879577956795B795F79501
:100290009E3F08F0B0CF9395880F08F09927EE0F96
:1002A0009795879508950E94070208F481E00895C4
:1002B0000E946C010C9442020E943B0258F00E9482
:1002C000340240F029F45F3F29F00C942B025111C5
:1002D0000C9476020C9431020E94530268F3992325
:1002E000B1F3552391F3951B550BBB27AA27621732
:1002F0007307840738F09F5F5F4F220F331F441F3F
:10030000AA1FA9F335D00E2E3AF0E0E832D0915072
:100310005040E695001CCAF72BD0FE2F29D0660F5F
:10032000771F881FBB1F261737074807AB07B0E8A2
:1003300009F0BB0B802DBF01FF2793585F4F3AF0A8
:100340009E3F510578F00C942B020C9476025F3F8F
:10035000E4F3983ED4F3869577956795B795F7952E
:100360009F5FC9F7880F911D9695879597F9089516
:10037000E1E0660F771F881FBB1F621773078407B2
:10038000BA0720F0621B730B840BBA0BEE1F88F7C1
:10039000E0950895E89409C097FB3EF49095809508
:1003A000709561957F4F8F4F9F4F9923A9F0F92F3B
:1003B00096E9BB279395F695879577956795B795B9
:1003C000F111F8CFFAF4BB0F11F460FF1BC06F5F9F
:1003D0007F4F8F4F9F4F16C0882311F096E911C0B1
:1003E000772321F09EE8872F762F05C0662371F0D2
:1003F00096E8862F70E060E02AF09A95660F771FE6
:10040000881FDAF7880F9695879597F90895990FC1
:100410000008550FAA0BE0E8FEEF16161706E807CE
:10042000F907C0F012161306E407F50798F0621BEF
:10043000730B840B950B39F40A2661F0232B242BC4
:10044000252B21F408950A2609F4A140A6958FEFE3
:10045000811D811D089597F99F6780E870E060E035
:1004600008959FEF80EC089500240A94161617064D
:1004700018060906089500240A9412161306140695
:1004800005060895092E0394000C11F4882352F0F8
:10049000BB0F40F4BF2B11F460FF04C06F5F7F4FB0
:1004A0008F4F9F4F089557FD9058440F551F59F097
:1004B0005F3F71F04795880F97FB991F61F09F3F51
:1004C00079F087950895121613061406551FF2CF7A
:1004D0004695F1DF08C0161617061806991FF1CFCA
:1004E00086957105610508940895E894BB276627F1
:1004F0007727CB0197F908950E948F020C9442024E
:100500000E94340238F00E943B0220F0952311F043
:100510000C942B020C94310211240C9476020E944C
:10052000530270F3959FC1F3950F50E0551F629FE2
:10053000F001729FBB27F00DB11D639FAA27F00D3C
:10054000B11DAA1F649F6627B00DA11D661F829F63
:100550002227B00DA11D621F739FB00DA11D621F48
:10056000839FA00D611D221F749F3327A00D611D65
:10057000231F849F600D211D822F762F6A2F112447
:100580009F5750409AF0F1F088234AF0EE0FFF1F7A
:10059000BB1F661F771F881F91505040A9F79E3FD1
:1005A000510580F00C942B020C9476025F3FE4F32B
:1005B000983ED4F3869577956795B795F795E79527
:1005C0009F5FC1F7FE2B880F911D9695879597F930
:0605D0000895F894FFCF2E
:00000001FF
