:100000000C943E000C945B000C945B000C945B0021
:100010000C945B000C945B000C945B000C945B00F4
:100020000C945B000C945B000C945B000C945B00E4
:100030000C945B000C945B000C945B000C945B00D4
:100040000C945B000C945B000C945B000C945B00C4
:100050000C945B000C945B000C945B000C945B00B4
:100060000C945B000C945B000C945B000C945B00A4
:100070000C945B000C945B000C945B0011241FBE7D
:10008000CFEFD8E0DEBFCDBF12E0A0E0B1E0E6EFF9
:10009000F3E102C005900D92A231B107D9F722E039
:1000A000A2E1B2E001C01D92A631B207E1F70E94C1
:1000B00027040C94F9090C940000FC0180818062F3
:1000C000808384E08A95F1F780818F7D8083089515
:1000D000DF92EF92FF920F931F93CF93DF93D42E73
:1000E000E901062F10E090E8899F700111248881B2
:1000F000817288838881980194E0359527959A9537
:10010000E1F7220F331F2E29282B2883CE010E94CE
:100110005D008881817288838881000F111F0E71B4
:100120000E29082B0883CE010E945D0080E09AE131
:100130009A95F1F700C08F5FD812F9CFDF91CF9178
:100140001F910F91FF90EF90DF9008959C0144EA7A
:1001500061E080E00C9468009C0144EA62E080E089
:100160000C9468009A01880F682B646044E080E07A
:100170000C94680054E0859FC0011124482B660F41
:10018000642B686044E080E00C9468009A0148E0C9
:10019000849FC001112444E0649FB0011124682BA6
:1001A000606144E080E00C9468009A0140E1849F23
:1001B000C001112448E0649FB0011124682B6062E3
:1001C00044E080E00C9468009B018F77682F6064A6
:1001D00044E080E00C9468009B01682F606844E074
:1001E00080E00C9468009B0144E0682F81E00C944F
:1001F0006800CF93DF93FC01EB018FE295E7019755
:10020000F1F700C0000080818172808380818FEFD0
:1002100080838881817288838881866088838881D1
:100220008E7F8883CB010E945D0087E090E201977A
:10023000F1F700C00000CE010E945D0087EC90E065
:100240000197F1F700C00000CE010E945D009AE620
:100250009A95F1F700C088818172888388818460D3
:100260008883CE010E945D008AE68A95F1F700C07E
:100270009E0144E06CE280E00E9468009E0140E044
:1002800060E080E00E94BA00CE010E94A600AE01AC
:1002900060E081E00E94B2009E0140E060E081E009
:1002A000DF91CF910C94BA00CF93DF93EC01CB0197
:1002B000BA01188219821A821B824C837D831886A8
:1002C00019860E94F9004C815D8160E081E00E9406
:1002D000B20080E190E00E94FC059F838E83DF9155
:1002E000CF910895FC01868197810C9498061F9305
:1002F000CF93DF93EC01162F2C813D81462F6B812C
:1003000081E00E94BA001A83DF91CF911F91089576
:100310001F93CF93DF93EC01162F2C813D814A81EF
:1003200081E00E94BA001B83DF91CF911F91089555
:10033000FC01862F603248F46183648175818031CD
:1003400010F40C94EC00805DFCCF0895CF93DF9304
:10035000EC018C819D810E94A60018826981CE01EA
:10036000DF91CF910C9498016F927F928F929F9220
:10037000AF92BF92CF92DF92EF92FF920F931F93B3
:10038000CF93DF93EC018B01F42EE22ECB010E9480
:10039000D8036C017A808B8060E0CE010E947701E7
:1003A00060E0CE010E948801EE2019F0CE010E948B
:1003B000A6012FE12F1508F45CC08F2D90E0A60157
:1003C000552720E230E0281B390BC216130611F026
:1003D0000CF04FC09C2C6C817D81EFE0EF1548F153
:1003E000840F951FEC2C40971CF080E1E82EEF184D
:1003F0008F2D0E94EC00602E58016C817D818A2D2A
:1004000086198E1530F4F50181915F010E94F30089
:10041000F4CF80E40E94EC000E0D111DE914D8F415
:100420006C817D81F80181918F010E94F300E3943A
:10043000F5CF80E38F0D0E94EC00E02E58018A2D4D
:100440008E19891540F46C817D81F50181915F01E0
:100450000E94F300F4CF6981CE010E949801672DBC
:10046000CE010E947701682DCE010E948801FC0C0C
:10047000F882DF91CF911F910F91FF90EF90DF9065
:10048000CF90BF90AF909F908F907F906F90089586
:100490006115710511F00C94B40108950F931F9329
:1004A000CF93DF9300D0CDB7DEB78C011A8269837A
:1004B00020E0FC014081BE016F5F7F4F0E94B401CC
:1004C000C8010F900F90DF91CF911F910F91089568
:1004D000EF92FF920F931F93CF93DF938C01862FA0
:1004E000EA016830B8F42097A9F0F80164817581B9
:1004F000880F880F880F0E94E4007E01F8E0EF0E5D
:10050000F11CF8016481758189910E94F300CE1578
:10051000DF05B9F7DF91CF911F910F91FF90EF9019
:100520000895CF93DF93EC01CB01892B29F020E0D4
:100530004881CE010E944802CE01DF91CF910895FB
:10054000CF93DF93EC017F936F9386E091E09F93CD
:100550008F938F818F938E818F930E9421076E815D
:100560007F81CE010E9491020F900F900F900F900B
:100570000F900F90CE01DF91CF910895CF93DF932D
:10058000EC017F936F9389E091E09F938F938F812C
:100590008F938E818F930E9421076E817F81CE0180
:1005A0000E9491020F900F900F900F900F900F905C
:1005B000CE01DF91CF910895CF93DF93EC011F928D
:1005C0006F938CE091E09F938F938F818F938E81B7
:1005D0008F930E9421076E817F81CE010E9491023C
:1005E0000F900F900F900F900F900F90CE01DF9112
:1005F000CF9108950F931F93CF93DF93EC018B015D
:100600006115710561F0288581E028274985CE01B3
:100610000E9448028885882311F018861986C8012F
:10062000DF91CF911F910F910895FC01603218F472
:10063000618781E08087CF0108950F931F93CF9347
:10064000DF93EC018881082F681708F4062F801BC0
:10065000888310E0101731F060E2CE010E944E0254
:100660001F5FF8CF8881811B8883DF91CF911F9115
:100670000F91089580ED97E00C9418043F924F92EB
:100680005F926F927F928F929F92AF92BF92CF9222
:10069000DF92EF92FF920F931F93CF93DF93CDB72B
:1006A000DEB7CA56D1090FB6F894DEBF0FBECDBF74
:1006B0007C014B01542E452E10E00FEFFE01ED5949
:1006C000FF4F80E0AF01181371C000838F5F319638
:1006D0008830C9F7612FC7010E9468021F5F183078
:1006E00069F781E3EFE0F1E0DE01D29601900D922F
:1006F0008A95E1F781E3E0E4F1E0DE0111960190F3
:100700000D928A95E1F7C7010E94A601B12CA12C98
:100710008E010E5C1F4FCE0101966C01380190E2F4
:10072000690E711CF8013088108A20E040E0B801A1
:10073000C7010E944802F801308AF6013088108A09
:1007400020E040E1B601C7010E944802F601308A6C
:10075000852D942D0E9418040F5F1F4FFFEFCF1AB5
:10076000DF0A06151705F1F68FEFA81AB80A8A14E2
:100770009B0471F6C7010E94A601C659DF4F0FB650
:10078000F894DEBF0FBECDBFDF91CF911F910F91C7
:10079000FF90EF90DF90CF90BF90AF909F908F90A1
:1007A0007F906F905F904F903F90089510828ECF12
:1007B0009C0190E080E00196F901E80FF91F40816B
:1007C0004111F9CF0895EF92FF920F931F93CF93AA
:1007D000DF93EC01FB011F86309701F17C018FE074
:1007E000E80EF11C2EE0042F10E0CF01B8010E94AA
:1007F000E805DC01A050BE4F8C91D7018E937D019E
:100800002150CF01FB018017910710F02111EDCF8E
:10081000822F90E001968C0F9D1F03C00E9620E35F
:100820002E87DF91CF911F910F91FF90EF90089548
:100830009C0190E080E08217930741F0EFECF7E035
:100840003197F1F700C000000196F5CF0895CDB7BC
:10085000DEB7AB970FB6F894DEBF0FBECDBF48E250
:1008600050E067E270E0CE0142960E94540160E7DA
:10087000CE0142960E944E020E943A0368E6CE01E3
:1008800042960E944E0269E60E944E026CE60E9469
:100890004E026BE30E944E020E943A03CE01429642
:1008A0000E94A6010E943A0320E042E061E771E065
:1008B000CE0142960E9448020E943A036CE771E022
:1008C000CE0142960E9491020E943A0369E0CE0155
:1008D00042960E941D030E943A0368E871E0CE012F
:1008E00042960E94FA020E943A0367ED70E0CE0140
:1008F00042960E94BE0260E20E94DC026DE47FEF3D
:100900000E94BE0260E20E94DC0266E070E00E948B
:10091000BE020E943A03CE0142960E94A6016BE1FC
:10092000CE0142960E94150366E971E00E94FA0228
:100930006DE0CE0142960E9415036BE971E00E94C2
:10094000FA020E943A0321E045E164EA71E0CE0137
:1009500042960E9448020E943A0369E0CE01429604
:100960000E94980161E0CE0142960E9477010E94A8
:100970003A0361E0CE0142960E9488010E943A0348
:1009800060E0CE0142960E9477010E943A0310E097
:10099000612FCE0142960E94980184E690E00E9469
:1009A00018041F5F1032A1F70E943A0360E0CE01E5
:1009B00042960E94880161E0CE0142960E94770132
:1009C000612FCE0142960E94980184E690E00E9439
:1009D00018041150A8F70E943A0360E0CE01429635
:1009E0000E9477018EEA91E00E94D8038C01CE012B
:1009F00042960E94A60184E690E00E941804FF241B
:100A0000F394E12C580181E0A81AB10880E1982EF6
:100A1000CF2CD12CF016110609F000F5EA141B04B6
:100A2000E8F480E1492D4F198F1510F4E39440E06C
:100A300021E00C151D0509F020E06E2D70E06255D7
:100A40007E4FCE0142960E9448020C151D0509F00A
:100A5000F39484E690E00E941804DACFCE01429627
:100A60000E94A60184E690E00E9418040E943A03C6
:100A700088E0EEEDF1E0DE01949601900D928A950A
:100A8000E1F7AE014C5D5F4F63E0CE0142960E94FC
:100A9000680221E047E065EE71E0CE0142960E94D7
:100AA00048020E943A03FE01B49690E080E061E0C3
:100AB00070E09B01082E02C0220F331F0A94E2F758
:100AC00040E0853008F045E002C0359527954A950D
:100AD000E2F7219301968830910559F7AE014C5DFC
:100AE0005F4F67E0CE0142960E94680210E120E06D
:100AF000412F6EE371E0CE0142960E9448021F5FD3
:100B00001032A9F70E943A034AE050E06AE070E030
:100B1000CE0142960E943E030E943A0348E250E012
:100B200065E070E0CE0142960E943E030E943A03C7
:100B3000CE0142960E94A60101E2602FCE014296AC
:100B40000E944E0261E0CE0142960E941D030F5F9B
:100B5000003E99F76FEFCE0142960E944E0211506F
:100B600059F70E943A0388E0E7EEF1E0DE015C9677
:100B700001900D928A95E1F7AE01445E5F4F64E00B
:100B8000CE0142960E94680281E1EFEEF1E0DE01C3
:100B9000119601900D928A95E1F7BE016F5F7F4F2C
:100BA000CE0142960E94FA02BE016F5F7F4FCE01D6
:100BB00042960E949102CE0142960E94720190E0FC
:100BC00080E0AB960FB6F894DEBF0FBECDBF0895A0
:100BD000AA1BBB1B51E107C0AA1FBB1FA617B70763
:100BE00010F0A61BB70B881F991F5A95A9F780957F
:100BF0009095BC01CD0108950F931F93CF93DF9380
:100C00008230910510F482E090E0E0911402F091BE
:100C1000150230E020E0B0E0A0E0309799F4211513
:100C2000310509F44AC0281B390B24303105D8F5A9
:100C30008A819B816115710589F1FB019383828310
:100C4000FE0111C04081518102811381481759076B
:100C5000E0F04817590799F4109761F012960C9339
:100C6000129713961C933296CF01DF91CF911F916B
:100C70000F9108950093140210931502F4CF2115DB
:100C8000310551F04217530738F0A901DB019A01F1
:100C9000BD01DF01F801C1CFEF01F9CF909315023B
:100CA00080931402CDCFFE01E20FF31F8193919345
:100CB0002250310939832883D7CF209112023091F5
:100CC0001302232B41F42091020130910301309350
:100CD000130220931202209100013091010121158D
:100CE000310541F42DB73EB7409104015091050103
:100CF000241B350BE0911202F0911302E217F30767
:100D0000A0F42E1B3F0B2817390778F0AC014E5F7B
:100D10005F4F2417350748F04E0F5F1F50931302A3
:100D200040931202819391939FCFF0E0E0E09CCF3B
:100D3000CF93DF930097E9F0FC0132971382128280
:100D4000A0911402B0911502ED0130E020E010975F
:100D5000A1F420813181820F931F209112023091E2
:100D600013022817390709F061C0F0931302E093CA
:100D70001202DF91CF910895EA01CE17DF07E8F55F
:100D80004A815B819E0141155105B1F7E901FB8361
:100D9000EA8349915991C40FD51FEC17FD0761F4FF
:100DA000808191810296840F951FE9019983888340
:100DB000828193819B838A83F0E0E0E012968D919B
:100DC0009C9113970097B9F52D913C911197CD0106
:100DD0000296820F931F209112023091130228175E
:100DE000390739F6309751F5109215021092140216
:100DF000B0931302A0931202BCCFD383C28340816D
:100E00005181840F951FC817D90761F44E5F5F4F5A
:100E100088819981480F591F518340838A819B8122
:100E2000938382832115310509F0B0CFF093150229
:100E3000E09314029ECFFD01DC01C0CF1382128229
:100E4000D7CFAEE0B0E0E7E2F7E00C94D0090D892F
:100E50001E8986E08C831A8309838FEF9FE79E8328
:100E60008D83AE01475E5F4F6F89788DCE0101960D
:100E70000E9444072F813885020F131FF80110824A
:100E80002E96E4E00C94EC09ABE0B0E0EAE4F7E085
:100E90000C94C2097C013B018A01FC011782168275
:100EA000838181FFC8C1CE0101965C01F701938166
:100EB000F30193FD859193FF81913F01882309F40C
:100EC00053C1853239F493FD859193FF81913F01A0
:100ED000853229F4B70190E00E943409E7CF912CC4
:100EE000212C312CFFE1F31538F08B3211F190F405
:100EF000803209F1833229F137FC3CC020ED280F04
:100F00002A3050F536FE20C08AE0989E200D11242C
:100F1000922E06C08D3291F0803371F7689430F8CC
:100F2000F30193FD859193FF81913F018111DACF08
:100F300021C0689431F8689432F8F2CF689433F89D
:100F4000EFCF689434F8ECCFEAE02E9E200D112408
:100F5000222E689435F8E4CF8E3229F436FC04C191
:100F6000689436F8DDCF8C3619F4689437F8D8CF0A
:100F70008836B1F2982F9F7D95549330E0F08336F8
:100F8000A1F18337C1F1833509F063C02801F2E094
:100F90004F0E511CF801C080D180692D70E036FCE5
:100FA00002C06FEF7FEFC6010E941E094C016894DA
:100FB00037F882010AC00C5F1F4FFFE3F9838824D2
:100FC0008394912C6501E89437F833FE2DC0522CA0
:100FD0008114910471F5552009F468CFB70180E2BE
:100FE00090E00E9434095A94F6CFF80180818983F9
:100FF0000E5F1F4FE4CF2801F2E04F0E511CF801A5
:10100000C080D180692D70E036FC02C06FEF7FEFA9
:10101000C6010E9429094C018201D5CFB70180E2A7
:1010200090E00E9434092A942814190409F0B0F7BA
:10103000CECFF60137FC859137FE81916F01B70164
:1010400090E00E94340951105A94F1E08F1A9108EF
:10105000BFCF843619F0893609F077C0F80137FE22
:101060006BC060817181828193810C5F1F4FF32D72
:10107000FF763F2E97FF09C09095809570956195FA
:101080007F4F8F4F9F4F689437F82AE030E0A501DB
:101090000E946409C82ECA188C2C432C36FE0CC042
:1010A000E89440F8C91440F434FE05C032FC03C093
:1010B000F32DFE7E4F2E892C44FE95C0FE01EC0DD3
:1010C000F11D8081803309F087C0242D297E422EB6
:1010D000842D8870582E43FC95C040FE8FC09C2CF8
:1010E000821418F42C0C922C981844FE91C0B7016D
:1010F00080E390E00E94340942FE09C088E790E056
:1011000041FE02C088E590E0B7010E943409C9148D
:1011100008F48AC0CA94D12C9FEFC91AD90ACA0C04
:10112000DB1CF60182916F01B70190E00E94340947
:10113000AC14BD04B1F74FCF60817181072E000C54
:10114000880B990B0E5F1F4F92CFD32CE894D4F8E5
:101150002AE030E0853739F1232D297FD22E8F36D2
:1011600001F148F48835A9F0F701868197812B9623
:10117000E2E10C94DE09803749F08837A9F7D4FE04
:1011800002C06894D2F820E130E00DC06894D4F831
:10119000F6CF34FE03C0822F8660D82E20E132E0E5
:1011A00002C028E030E0F801D7FE0FC060817181F5
:1011B000828193810C5F1F4FA5010E946409C82E94
:1011C000CA183D2CE89437F867CF6081718190E0B0
:1011D00080E00E5F1F4FF0CF42FC02C0839478CFB7
:1011E0008394839475CF842D867809F471CFF6CFDC
:1011F000B70180E290E00E94340983948214C0F326
:10120000512C73CF522C5818821408F46ECFF8CF9B
:10121000842D867809F47BCF8BE241FE80E247FC87
:101220008DE2B70190E071CFB70180E390E00E94BA
:1012300034099A946CCF8FEF9FEF99CFFC01059002
:10124000615070400110D8F7809590958E0F9F1FC8
:101250000895FC016150704001900110D8F780950D
:1012600090958E0F9F1F08950F931F93CF93DF9339
:10127000182F092FEB018B8181FD09C01FEF0FEFA4
:10128000812F902FDF91CF911F910F91089582FFB1
:1012900014C02E813F818C819D81281739073CF431
:1012A000E881F981CF0101969983888310838E812B
:1012B0009F8101969F838E83E3CFE885F985812FF7
:1012C0000995892BA1F3DACFFA01AA27283051F129
:1012D000203181F1E8946F936E7F6E5F7F4F8F4F67
:1012E0009F4FAF4FB1E03ED0B4E03CD0670F781FC6
:1012F000891F9A1FA11D680F791F8A1F911DA11DAB
:101300006A0F711D811D911DA11D20D009F46894E3
:101310003F912AE0269F11243019305D3193DEF68B
:10132000CF010895462F4770405D4193B3E00FD041
:10133000C9F7F6CF462F4F70405D4A3318F0495D2C
:1013400031FD4052419302D0A9F7EACFB4E0A6950F
:101350009795879577956795BA95C9F70097610531
:10136000710508959B01AC010A2E06945795479587
:1013700037952795BA95C9F7620F731F841F951F7C
:10138000A01D08952F923F924F925F926F927F928D
:101390008F929F92AF92BF92CF92DF92EF92FF9285
:1013A0000F931F93CF93DF93CDB7DEB7CA1BDB0B31
:1013B0000FB6F894DEBF0FBECDBF09942A883988D6
:1013C00048885F846E847D848C849B84AA84B984DD
:1013D000C884DF80EE80FD800C811B81AA81B981E9
:1013E000CE0FD11D0FB6F894DEBF0FBECDBFED01FD
:0613F0000895F894FFCF00
:1013F60000001602200025750025690025630020DF
:101406000705040302020101010202030405072085
:1014160020202020202020202020202020202020C6
:101426000705040302020101010202030405070085
:1014360020202020202020202020202020202020A6
:10144600200802030405050606060505040302082E
:101456002020202020202020202020202020202086
:10146600007072656D69657265202100776F6F6F18
:101476006F777777202121006E6F7576656175200D
:10148600747275632000616C6C6F006F68206F75F5
:10149600692021007E207965616821207F00626FC6
:1014A6006E6A6F7572206C65206D6F6E64652E2096
:1014B600766F69636920756E652062616E6E696517
:1014C6007265206465207465787465202100040ABD
:1014D6001F04040404030002040E111F100E00462C
:1014E600696E206465206C612064046D6F202100A4
:1014F6003031323334353637383961626364656684
:021506000000E3
:00000001FF
