:100000000C943E000C9490000C9475000C945B00D2
:100010000C945B000C945B000C945B000C945B00F4
:100020000C945B000C945B000C945B000C945B00E4
:100030000C945B000C945B000C945B000C945B00D4
:100040000C945B000C945B000C945B000C945B00C4
:100050000C945B000C945B000C945B000C945B00B4
:100060000C945B000C945B000C945B000C945B00A4
:100070000C945B000C945B000C945B0011241FBE7D
:10008000CFEFD8E0DEBFCDBF11E0A0E0B1E0E6E108
:10009000FDE102C005900D92A235B107D9F721E02C
:1000A000A2E5B1E001C01D92AA35B207E1F70E94B6
:1000B0000E070C94890E0C940000F8941AB88FEF78
:1000C00084B9E99AE9E6F0E08081846080837894DD
:1000D0000895F8941AB88FEF84B9E89AE9E6F0E049
:1000E000808181608083789408951F921FB61F924B
:1000F00011248F939F938FE59AEE0197F1F700C03B
:1001000000004B990AC081E080935501E09A9F91CD
:100110008F911F901FBE1F90189510925501F6CF1A
:100120001F921FB61F9211248F939F938FE59AEE13
:100130000197F1F700C000004A990AC081E080935E
:100140005401E09A9F918F911F901FBE1F901895A8
:1001500010925401F6CFCF93DF93CDB7DEB72B9734
:100160000FB6F894DEBF0FBECDBF48E250E067E2A5
:1001700070E0CE0101960E94E20311B88FEF8AB9B8
:10018000CE010B960E940403009B2DC0019B2BC047
:10019000029B29C08FE19EE40197F1F700C00000A7
:1001A000009B04C0019B02C002992DC080915301A5
:1001B0008F5F80935301CE0101960E9434046091B9
:1001C000530170E0CE0101960E944C05CE010196CC
:1001D0000E9400042B960FB6F894DEBF0FBECDBF71
:1001E000DF91CF910895029916C0009B24C08FE142
:1001F0009EE40197F1F700C00000009BE7CF20E0EC
:1002000049E162E313C020E048E268E2CE010B96C8
:100210000E941403C5CF8FE19EE40197F1F700C05F
:100220000000029BD3CF20E048E268E2CE010B96AB
:100230000E941403CBCF019B0BC08FE19EE401977A
:10024000F1F700C00000019BC1CF20E043E2D9CF0D
:10025000039B0CC08FE19EE40197F1F700C0000002
:10026000039BB4CF20E042E363E2E0CF049B0CC0E9
:100270008FE19EE40197F1F700C00000049BA6CF38
:1002800020E042E36EE1D2CF9FEF20E782E0915081
:1002900020408040E1F700C0000080B1882309F4CD
:1002A00095CF20E040E060E0C1CFCF93DF93CDB7A2
:1002B000DEB72B970FB6F894DEBF0FBECDBF11B8D7
:1002C0008FEF8AB9CE010B960E94040348E250E0FA
:1002D00067E270E0CE0101960E94E203009927C018
:1002E000019925C0029923C0039921C004991FC018
:1002F0008FE19EE40197F1F700C00000009917C05C
:10030000019915C0029913C0039911C004990FC037
:1003100020E040E068E2CE010B960E9414039FEFBC
:1003200023EC89E0915020408040E1F7E5CF009B2D
:1003300004C0019B02C0029910C0029937C0009B03
:1003400045C08FE19EE40197F1F700C00000009BDB
:1003500020C020E049E162E334C08FE19EE40197D0
:10036000F1F700C00000009B04C0019B02C002998D
:10037000FACF809153018F5F80935301CE01019694
:100380000E9434046091530170E0CE0101960E94F6
:100390004C05CE0101960E9400042B960FB6F894EE
:1003A000DEBF0FBECDBFDF91CF9108958FE19EE4F8
:1003B0000197F1F700C00000029BEBCF20E048E27C
:1003C00068E2CE010B960E941403E3CF019B0BC0A1
:1003D0008FE19EE40197F1F700C00000019BD9CFA7
:1003E00020E043E2B8CF039B0CC08FE19EE401976D
:1003F000F1F700C00000039BCCCF20E042E363E2B2
:10040000E0CF049B0CC08FE19EE40197F1F700C0A0
:100410000000049BBECF20E042E36EE1D2CF9FEF0D
:1004200020E782E0915020408040E1F700C00000CA
:1004300080B1882309F4ADCF20E040E060E0C1CF77
:10044000CF93DF93CDB7DEB72B970FB6F894DEBF0F
:100450000FBECDBF11B88FEF8AB9CE010B960E94A7
:10046000040348E250E067E270E0CE0101960E948A
:10047000E203009B37C0019B35C0029B33C020E0E4
:1004800040E060E0CE010B960E9414032FEF80E75E
:1004900092E0215080409040E1F700C00000009BB6
:1004A00004C0019B02C002992DC0809153018F5F4F
:1004B00080935301CE0101960E9434046091530150
:1004C00070E0CE0101960E944C05CE0101960E947B
:1004D00000042B960FB6F894DEBF0FBECDBFDF91A0
:1004E000CF91089502991DC0009B2BC08FE19EE41F
:1004F0000197F1F700C00000009BE7CF20E049E141
:1005000062E31AC020E040E068E2CE010B960E9450
:1005100014032FEF84E39CE0215080409040E1F7EA
:10052000BCCF8FE19EE40197F1F700C00000029B71
:10053000CCCF20E048E268E2CE010B960E94140383
:10054000C4CF019B0BC08FE19EE40197F1F700C07F
:100550000000019BBACF20E043E2D2CF039B0CC046
:100560008FE19EE40197F1F700C00000039BADCF3F
:1005700020E042E363E2E0CF049B0CC08FE19EE405
:100580000197F1F700C00000049B9FCF20E042E3F9
:100590006EE1D2CF009908C0019906C0029904C04B
:1005A000039902C0049B11C09FEF20E782E09150A5
:1005B00020408040E1F700C0000080B1882309F4AA
:1005C00084CF20E040E060E0B7CF8FE19EE4019768
:1005D000F1F700C00000009978CF019976CF029919
:1005E00074CF039972CF049970CF20E040E068E2A5
:1005F000CE010B960E9414039FE723E484E19150FF
:1006000020408040E1F7E5CF8AB18C638AB9E0E809
:10061000F0E08081816A8083E1E8F0E0808182609F
:100620008083109282000895CF93DF9300D000D092
:1006300000D0CDB7DEB74E832D83862F90E0B0E09B
:10064000A0E089839A83AB83BC83BC01CD010E9467
:10065000930920E030E048EC52E469837A838B838D
:100660009C8369817A818B819C810E94F00820E0C3
:1006700030E04FE753E469837A838B839C836981FD
:100680007A818B819C810E941F0A69837A838B8384
:100690009C8369817A818B819C810E946209462FAB
:1006A000572F50938900409388009E81892F90E0B6
:1006B000B0E0A0E089839A83AB83BC83BC01CD0109
:1006C0000E94930920E030E048EC52E469837A8389
:1006D0008B839C8369817A818B819C810E94F00845
:1006E00020E030E04FE753E469837A838B839C8377
:1006F00069817A818B819C810E941F0A69837A8338
:100700008B839C8369817A818B819C810E946209A1
:10071000462F572F50938B0040938A00AD81A23013
:10072000B1F028F4A1110FC08BB11BB803C0BD817B
:10073000B33089F026960FB6F894DEBF0FBECDBF5A
:10074000DF91CF9108958BB18C608BB9F3CF8BB1D2
:100750001BB85A9AEFCF8BB11BB85B9AEBCF8CE0EA
:100760008BB970E0709389006093880050E05093DB
:100770008B0040938A00089510928900109288009F
:100780008FE790E090938B0080938A0008958FE725
:1007900090E0909389008093880010928B001092D3
:1007A0008A000895109289001092880010928B00A0
:1007B00010928A0008951BB870E0709389006093CE
:1007C00088000895CF93DF93EC01CB01BA01188222
:1007D00019821A821B824C837D83188619860E9497
:1007E00064064C815D8160E081E00E941D0680E12D
:1007F00090E00E948C0A9F838E83DF91CF910895B1
:10080000FC01868197810C94280B1F93CF93DF9373
:10081000EC01162F2C813D81462F6B8181E00E94D7
:1008200025061A83DF91CF911F9108951F93CF93CF
:10083000DF93EC01162F2C813D814A8181E00E94DB
:1008400025061B83DF91CF911F910895FC01862F10
:10085000603248F4618364817581803110F40C94B6
:100860005706805DFCCF0895CF93DF93EC018C8118
:100870009D810E94110618826981CE01DF91CF917E
:100880000C9426046F927F928F929F92AF92BF92A8
:10089000CF92DF92EF92FF920F931F93CF93DF934C
:1008A000EC018B01F42EE22ECB010E94BF066C01FD
:1008B0007A808B8060E0CE010E94050460E0CE016A
:1008C0000E941604EE2019F0CE010E9434042FE19C
:1008D0002F1508F45CC08F2D90E0A601552720E26B
:1008E00030E0281B390BC216130611F00CF04FC074
:1008F0009C2C6C817D81EFE0EF1548F1840F951FF2
:10090000EC2C40971CF080E1E82EEF188F2D0E9410
:100910005706602E58016C817D818A2D86198E15AF
:1009200030F4F50181915F010E945E06F4CF80E40E
:100930000E9457060E0D111DE914D8F46C817D81BB
:10094000F80181918F010E945E06E394F5CF80E368
:100950008F0D0E945706E02E58018A2D8E19891599
:1009600040F46C817D81F50181915F010E945E06FA
:10097000F4CF6981CE010E942604672DCE010E942A
:100980000504682DCE010E941604FC0CF882DF914C
:10099000CF911F910F91FF90EF90DF90CF90BF907C
:1009A000AF909F908F907F906F9008956115710523
:1009B00011F00C94420408950F931F93CF93DF938B
:1009C00000D0CDB7DEB78C011A82698320E0FC012C
:1009D0004081BE016F5F7F4F0E944204C8010F90AB
:1009E0000F90DF91CF911F910F910895EF92FF9299
:1009F0000F931F93CF93DF938C01862FEA0168300A
:100A0000B8F42097A9F0F80164817581880F880FE8
:100A1000880F0E944F067E01F8E0EF0EF11CF801EE
:100A20006481758189910E945E06CE15DF05B9F754
:100A3000DF91CF911F910F91FF90EF900895CF9389
:100A4000DF93EC01CB01892B29F020E04881CE0116
:100A50000E94D604CE01DF91CF910895CF93DF930A
:100A6000EC017F936F9387E391E09F938F938F8146
:100A70008F938E818F930E94B10B6E817F81CE0107
:100A80000E941F050F900F900F900F900F900F90E6
:100A9000CE01DF91CF910895CF93DF93EC017F9347
:100AA0006F938AE391E09F938F938F818F938E81D1
:100AB0008F930E94B10B6E817F81CE010E941F0532
:100AC0000F900F900F900F900F900F90CE01DF912D
:100AD000CF910895CF93DF93EC011F926F938DE335
:100AE00091E09F938F938F818F938E818F930E943C
:100AF000B10B6E817F81CE010E941F050F900F9078
:100B00000F900F900F900F90CE01DF91CF9108952D
:100B10000F931F93CF93DF93EC018B016115710548
:100B200061F0288581E028274985CE010E94D604FE
:100B30008885882311F018861986C801DF91CF9126
:100B40001F910F910895FC01603218F4618781E0D4
:100B50008087CF0108950F931F93CF93DF93EC010C
:100B60008881082F681708F4062F801B888310E0FF
:100B7000101731F060E2CE010E94DC041F5FF8CF55
:100B80008881811B8883DF91CF911F910F910895F8
:100B9000FC0180818062808384E08A95F1F7808106
:100BA0008F7D80830895DF92EF92FF920F931F93C2
:100BB000CF93DF93D42EE901062F10E090E8899FB0
:100BC000700111248881817288838881980194E062
:100BD000359527959A95E1F7220F331F2E29282B5B
:100BE0002883CE010E94C80588818172888388810C
:100BF000000F111F0E710E29082B0883CE010E94D1
:100C0000C80580E09AE19A95F1F700C08F5FD8128D
:100C1000F9CFDF91CF911F910F91FF90EF90DF906F
:100C200008959C0144EA61E080E00C94D3059C01A6
:100C300044EA62E080E00C94D3059A01880F682BA7
:100C4000646044E080E00C94D30554E0859FC001CB
:100C50001124482B660F642B686044E080E00C94FC
:100C6000D3059A0148E0849FC001112444E0649FA9
:100C7000B0011124682B606144E080E00C94D3053E
:100C80009A0140E1849FC001112448E0649FB001B3
:100C90001124682B606244E080E00C94D3059B0132
:100CA0008F77682F606444E080E00C94D3059B014B
:100CB000682F606844E080E00C94D3059B0144E019
:100CC000682F81E00C94D305CF93DF93FC01EB01F7
:100CD0008FE295E70197F1F700C0000080818172F3
:100CE000808380818FEF808388818172888388816F
:100CF0008660888388818E7F8883CB010E94C805A7
:100D000087E090E20197F1F700C00000CE010E9459
:100D1000C80587EC90E00197F1F700C00000CE0114
:100D20000E94C8059AE69A95F1F700C08881817201
:100D30008883888184608883CE010E94C8058AE602
:100D40008A95F1F700C09E0144E06CE280E00E94C9
:100D5000D3059E0140E060E080E00E942506CE01C0
:100D60000E941106AE0160E081E00E941D069E0116
:100D700040E060E081E0DF91CF910C9425069C017A
:100D800090E080E00196F901E80FF91F40814111E0
:100D9000F9CF0895EF92FF920F931F93CF93DF93B4
:100DA000EC01FB011F86309701F17C018FE0E80E1A
:100DB000F11C2EE0042F10E0CF01B8010E94DC08E6
:100DC000DC01A05CBE4F8C91D7018E937D01215038
:100DD000CF01FB018017910710F02111EDCF822F79
:100DE00090E001968C0F9D1F03C00E9620E32E8786
:100DF000DF91CF911F910F91FF90EF9008959C018B
:100E000090E080E08217930741F0EFECF7E0319734
:100E1000F1F700C000000196F5CF0895CDB7DEB719
:100E20002B970FB6F894DEBF0FBECDBF11B88FEF72
:100E300087B9CE010B960E9404030E945D000E94B8
:100E4000690048E250E067E270E0CE0101960E943E
:100E5000E20310E001E080910001882309F49FC1C2
:100E6000123009F450C030F4112301F11130B1F106
:100E700012E003C0133009F45DC080915401813049
:100E800079F4109200018DB38DBB8091690080933D
:100E90006900123009F4B6C008F061C009F06BC0F7
:100EA0001092540100930001E99AD5CF20E043E06D
:100EB00068E071E0CE0101960E94D6048091550150
:100EC000813011F010E0D9CFCE0101960E94340498
:100ED000809155018130E1F311E0CFCF20E045E072
:100EE00061E171E0CE0101960E94D6048091550126
:100EF000813091F7CE0101960E9434048091550112
:100F00008130E1F3B5CF20E040E066E171E0CE0151
:100F100001960E94D60480915501813009F0A8CF36
:100F2000CE0101960E943404809155018130E1F395
:100F300013E0A3CF20E043E067E271E0CE01019629
:100F40000E94D60480915501813091F7CE0101961F
:100F50000E943404809155018130E1F3B3CF133006
:100F600009F09ECFCE0101960E94340420E045E0B6
:100F700061E371E008C0CE0101960E94340420E0D4
:100F800045E062E371E0CE0101960E94D60488CF6D
:100F9000809153018330E9F520E040E060E0CE012C
:100FA0000B960E9414032FEF84E39CE021508040B5
:100FB0009040E1F700C0000080910101882311F109
:100FC000CE0101960E9434046091530170E0CE017D
:100FD00001960E944C0520E040E062E3CE010B96B2
:100FE0000E9414032FEF8FE097E221508040904041
:100FF000E1F700C0000010920101809153018F5F62
:101000008093530180915301833010F60E94AB000E
:10101000F9CF80915301843068F18091530187307A
:1010200048F50099F3CF0199F1CF0299EFCF0399D9
:10103000EDCF0499EBCF8FE19EE40197F1F700C06B
:1010400000000099E3CF0199E1CF0299DFCF039926
:10105000DDCF0499DBCF20E040E068E2CE010B96C3
:101060000E9414039FEF23EC89E0915020408040C0
:10107000E1F7E5CF80915301873010F5809153015E
:101080008D3008F086C0809153018F3009F0BACFBF
:101090006091530170E0CE0101960E944C0520E062
:1010A00040E060E0CE010B960E9414039FEF29E61A
:1010B00088E1915020408040E1F700C00000A2CFBD
:1010C000809153018D30D0F6009B04C0019B02C07B
:1010D000029929C000999ACF019998CF029996CF89
:1010E000039994CF049992CF8FE19EE40197F1F791
:1010F00000C00000009986CF019984CF029982CF69
:10110000039980CF04997ECF20E040E068E2CE01D1
:101110000B960E9414039FE723E484E19150204042
:101120008040E1F7E5CF20E040E060E0CE010B96A3
:101130000E9414039FEF20E782E0915020408040FE
:10114000E1F700C00000009B04C0019B02C00299AF
:1011500011C0809153018F5F80935301CE0101969E
:101160000E9434046091530170E0CE0101960E9408
:101170004C0548CF20E040E068E2CE010B960E948B
:1011800014039FEF24E38CE0915020408040E1F76E
:10119000D8CF809153018F3008F075CF37CFCE0173
:1011A00001960E94000490E080E02B960FB6F89420
:1011B000DEBF0FBECDBF0895AA1BBB1B51E107C008
:1011C000AA1FBB1FA617B70710F0A61BB70B881FD7
:1011D000991F5A95A9F780959095BC01CD01089566
:1011E0000E9404090C94E5090E94DE0958F00E944F
:1011F000D70940F029F45F3F29F00C94CE09511132
:101200000C94190A0C94D4090E94F60968F39923E6
:10121000B1F3552391F3951B550BBB27AA276217F2
:101220007307840738F09F5F5F4F220F331F441FFF
:10123000AA1FA9F335D00E2E3AF0E0E832D0915033
:101240005040E695001CCAF72BD0FE2F29D0660F20
:10125000771F881FBB1F261737074807AB07B0E863
:1012600009F0BB0B802DBF01FF2793585F4F3AF069
:101270009E3F510578F00C94CE090C94190A5F3FFB
:10128000E4F3983ED4F3869577956795B795F795EF
:101290009F5FC9F7880F911D9695879597F90895D7
:1012A000E1E0660F771F881FBB1F62177307840773
:1012B000BA0720F0621B730B840BBA0BEE1F88F782
:1012C000E09508950E94FE0988F09F5798F0B92F85
:1012D0009927B751B0F0E1F0660F771F881F991F6B
:1012E0001AF0BA95C9F714C0B13091F00E94180AEB
:1012F000B1E008950C94180A672F782F8827B85FFB
:1013000039F0B93FCCF3869577956795B395D9F7C2
:101310003EF490958095709561957F4F8F4F9F4FCC
:101320000895E89409C097FB3EF4909580957095D8
:1013300061957F4F8F4F9F4F9923A9F0F92F96E921
:10134000BB279395F695879577956795B795F11196
:10135000F8CFFAF4BB0F11F460FF1BC06F5F7F4F33
:101360008F4F9F4F16C0882311F096E911C0772345
:1013700021F09EE8872F762F05C0662371F096E84E
:10138000862F70E060E02AF09A95660F771F881F1D
:10139000DAF7880F9695879597F9089597F99F67DB
:1013A00080E870E060E008959FEF80EC08950024ED
:1013B0000A941616170618060906089500240A94BA
:1013C00012161306140605060895092E0394000C40
:1013D00011F4882352F0BB0F40F4BF2B11F460FFCF
:1013E00004C06F5F7F4F8F4F9F4F089557FD9058F8
:1013F000440F551F59F05F3F71F04795880F97FBD9
:10140000991F61F09F3F79F0879508951216130692
:101410001406551FF2CF4695F1DF08C016161706C1
:101420001806991FF1CF86957105610508940895F6
:10143000E894BB2766277727CB0197F908950E9488
:10144000320A0C94E5090E94D70938F00E94DE099F
:1014500020F0952311F00C94CE090C94D40911249A
:101460000C94190A0E94F60970F3959FC1F3950F29
:1014700050E0551F629FF001729FBB27F00DB11D18
:10148000639FAA27F00DB11DAA1F649F6627B00DA8
:10149000A11D661F829F2227B00DA11D621F739F91
:1014A000B00DA11D621F839FA00D611D221F749F9F
:1014B0003327A00D611D231F849F600D211D822FE6
:1014C000762F6A2F11249F5750409AF0F1F088230D
:1014D0004AF0EE0FFF1FBB1F661F771F881F91503A
:1014E0005040A9F79E3F510580F00C94CE090C9412
:1014F000190A5F3FE4F3983ED4F386957795679594
:10150000B795F795E7959F5FC1F7FE2B880F911D63
:101510009695879597F908950F931F93CF93DF932F
:101520008230910510F482E090E0E0915801F09152
:10153000590130E020E0B0E0A0E0309799F42115A7
:10154000310509F44AC0281B390B24303105D8F580
:101550008A819B816115710589F1FB0193838283E7
:10156000FE0111C040815181028113814817590742
:10157000E0F04817590799F4109761F012960C9310
:10158000129713961C933296CF01DF91CF911F9142
:101590000F9108950093580110935901F4CF21152C
:1015A000310551F04217530738F0A901DB019A01C8
:1015B000BD01DF01F801C1CFEF01F9CF90935901CF
:1015C00080935801CDCFFE01E20FF31F81939193D9
:1015D0002250310939832883D7CF20915601309189
:1015E0005701232B41F420910401309105013093E0
:1015F00057012093560120910201309103012115DA
:10160000310541F42DB73EB74091060150910701D5
:10161000241B350BE0915601F0915701E217F307B7
:10162000A0F42E1B3F0B2817390778F0AC014E5F52
:101630005F4F2417350748F04E0F5F1F5093570137
:1016400040935601819391939FCFF0E0E0E09CCFCF
:10165000CF93DF930097E9F0FC0132971382128257
:10166000A0915801B0915901ED0130E020E01097B0
:10167000A1F420813181820F931F20915601309176
:1016800057012817390709F061C0F0935701E0931B
:101690005601DF91CF910895EA01CE17DF07E8F5F3
:1016A0004A815B819E0141155105B1F7E901FB8338
:1016B000EA8349915991C40FD51FEC17FD0761F4D6
:1016C000808191810296840F951FE9019983888317
:1016D000828193819B838A83F0E0E0E012968D9172
:1016E0009C9113970097B9F52D913C911197CD01DD
:1016F0000296820F931F20915601309157012817AF
:10170000390739F6309751F5109259011092580166
:10171000B0935701A0935601BCCFD383C2834081BD
:101720005181840F951FC817D90761F44E5F5F4F31
:1017300088819981480F591F518340838A819B81F9
:10174000938382832115310509F0B0CFF0935901BD
:10175000E09358019ECFFD01DC01C0CF13821282BD
:10176000D7CFAEE0B0E0E7EBFBE00C94600E0D8964
:101770001E8986E08C831A8309838FEF9FE79E83FF
:101780008D83AE01475E5F4F6F89788DCE010196E4
:101790000E94D40B2F813885020F131FF80110828D
:1017A0002E96E4E00C947C0EABE0B0E0EAEDFBE0BA
:1017B0000C94520E7C013B018A01FC0117821682B7
:1017C000838181FFC8C1CE0101965C01F70193813D
:1017D000F30193FD859193FF81913F01882309F4E3
:1017E00053C1853239F493FD859193FF81913F0177
:1017F000853229F4B70190E00E94C40DE7CF912C07
:10180000212C312CFFE1F31538F08B3211F190F4DB
:10181000803209F1833229F137FC3CC020ED280FDA
:101820002A3050F536FE20C08AE0989E200D112403
:10183000922E06C08D3291F0803371F7689430F8A3
:10184000F30193FD859193FF81913F018111DACFDF
:1018500021C0689431F8689432F8F2CF689433F874
:10186000EFCF689434F8ECCFEAE02E9E200D1124DF
:10187000222E689435F8E4CF8E3229F436FC04C168
:10188000689436F8DDCF8C3619F4689437F8D8CFE1
:101890008836B1F2982F9F7D95549330E0F08336CF
:1018A000A1F18337C1F1833509F063C02801F2E06B
:1018B0004F0E511CF801C080D180692D70E036FCBC
:1018C00002C06FEF7FEFC6010E94AE0D4C0168941D
:1018D00037F882010AC00C5F1F4FFFE3F9838824A9
:1018E0008394912C6501E89437F833FE2DC0522C77
:1018F0008114910471F5552009F468CFB70180E295
:1019000090E00E94C40D5A94F6CFF801808189833B
:101910000E5F1F4FE4CF2801F2E04F0E511CF8017B
:10192000C080D180692D70E036FC02C06FEF7FEF80
:10193000C6010E94B90D4C018201D5CFB70180E2EA
:1019400090E00E94C40D2A942814190409F0B0F7FD
:10195000CECFF60137FC859137FE81916F01B7013B
:1019600090E00E94C40D51105A94F1E08F1A910832
:10197000BFCF843619F0893609F077C0F80137FEF9
:101980006BC060817181828193810C5F1F4FF32D49
:10199000FF763F2E97FF09C09095809570956195D1
:1019A0007F4F8F4F9F4F689437F82AE030E0A501B2
:1019B0000E94F40DC82ECA188C2C432C36FE0CC085
:1019C000E89440F8C91440F434FE05C032FC03C06A
:1019D000F32DFE7E4F2E892C44FE95C0FE01EC0DAA
:1019E000F11D8081803309F087C0242D297E422E8D
:1019F000842D8870582E43FC95C040FE8FC09C2CCF
:101A0000821418F42C0C922C981844FE91C0B70143
:101A100080E390E00E94C40D42FE09C088E790E098
:101A200041FE02C088E590E0B7010E94C40DC914D0
:101A300008F48AC0CA94D12C9FEFC91AD90ACA0CDB
:101A4000DB1CF60182916F01B70190E00E94C40D8A
:101A5000AC14BD04B1F74FCF60817181072E000C2B
:101A6000880B990B0E5F1F4F92CFD32CE894D4F8BC
:101A70002AE030E0853739F1232D297FD22E8F36A9
:101A800001F148F48835A9F0F701868197812B96FA
:101A9000E2E10C946E0E803749F08837A9F7D4FE46
:101AA00002C06894D2F820E130E00DC06894D4F808
:101AB000F6CF34FE03C0822F8660D82E20E132E0BC
:101AC00002C028E030E0F801D7FE0FC060817181CC
:101AD000828193810C5F1F4FA5010E94F40DC82ED7
:101AE000CA183D2CE89437F867CF6081718190E087
:101AF00080E00E5F1F4FF0CF42FC02C0839478CF8E
:101B00008394839475CF842D867809F471CFF6CFB2
:101B1000B70180E290E00E94C40D83948214C0F368
:101B2000512C73CF522C5818821408F46ECFF8CF72
:101B3000842D867809F47BCF8BE241FE80E247FC5E
:101B40008DE2B70190E071CFB70180E390E00E9491
:101B5000C40D9A946CCF8FEF9FEF99CFFC01059045
:101B6000615070400110D8F7809590958E0F9F1F9F
:101B70000895FC016150704001900110D8F78095E4
:101B800090958E0F9F1F08950F931F93CF93DF9310
:101B9000182F092FEB018B8181FD09C01FEF0FEF7B
:101BA000812F902FDF91CF911F910F91089582FF88
:101BB00014C02E813F818C819D81281739073CF408
:101BC000E881F981CF0101969983888310838E8102
:101BD0009F8101969F838E83E3CFE885F985812FCE
:101BE0000995892BA1F3DACFFA01AA27283051F100
:101BF000203181F1E8946F936E7F6E5F7F4F8F4F3E
:101C00009F4FAF4FB1E03ED0B4E03CD0670F781F9C
:101C1000891F9A1FA11D680F791F8A1F911DA11D81
:101C20006A0F711D811D911DA11D20D009F46894BA
:101C30003F912AE0269F11243019305D3193DEF662
:101C4000CF010895462F4770405D4193B3E00FD018
:101C5000C9F7F6CF462F4F70405D4A3318F0495D03
:101C600031FD4052419302D0A9F7EACFB4E0A695E6
:101C70009795879577956795BA95C9F70097610508
:101C8000710508959B01AC010A2E0694579547955E
:101C900037952795BA95C9F7620F731F841F951F53
:101CA000A01D08952F923F924F925F926F927F9264
:101CB0008F929F92AF92BF92CF92DF92EF92FF925C
:101CC0000F931F93CF93DF93CDB7DEB7CA1BDB0B08
:101CD0000FB6F894DEBF0FBECDBF09942A883988AD
:101CE00048885F846E847D848C849B84AA84B984B4
:101CF000C884DF80EE80FD800C811B81AA81B981C0
:101D0000CE0FD11D0FB6F894DEBF0FBECDBFED01D3
:061D10000895F894FFCFD6
:101D1600010100005A012000434F554C4F49522003
:101D2600004D555220004C45535F444555585F427F
:101D36004F55434C455300434F555055524553203C
:101D4600002046494E2000257500256900256300C0
:101D5600303132333435363738396162636465661B
:021D660000007B
:00000001FF
