:100000000C9440000C9468000C9468000C946800F8
:100010000C9468000C9468000C9468000C946800C0
:100020000C9468000C9468000C9468000C946800B0
:100030000C9468000C9468000C9468000C946800A0
:100040000C9468000C9468000C9468000C94680090
:100050000C946A000C9468000C9468000C9468007E
:100060000C9468000C9468000C9468000C94680070
:100070000C9468000C9468000C9468009502990236
:1000800011241FBECFEFD8E0DEBFCDBF11E0A0E04E
:10009000B1E0E0E6F5E002C005900D92A230B107B4
:1000A000D9F721E0A2E0B1E001C01D92A530B2076E
:1000B000E1F710E0CFE3D0E004C02197FE010E94F9
:1000C0009D02CE33D107C9F70E9490020C94A3027F
:1000D0000C9400001F920F920FB60F9211242F93D1
:1000E0003F934F935F936F937F938F939F93AF93C0
:1000F000BF93EF93FF930E94890280930401409184
:1001000004016091020170E083E091E00E948901A6
:10011000809102018F5F80930201FF91EF91BF9167
:10012000AF919F918F917F916F915F914F913F918F
:100130002F910F900FBE0F901F901895F89410926A
:100140000201E1ECF0E0808180688083789408957A
:10015000089580EA809300011092B90080E28093B4
:10016000B8000895FC0180E88083CF010C94A900B9
:10017000982F9370891305C0880F806A80930001BF
:1001800008958FEF0895FA0194EA24E89093BC0053
:100190008091BC0087FFFCCF809100018093BB0061
:1001A0002093BC008091BC0087FFFCCF8091B900F8
:1001B000883161F784EA8093BC008091BC0087FF9E
:1001C000FCCF809100018093BB0084E88093BC0049
:1001D0008091BC0087FFFCCF7093BB0084E88093C4
:1001E000BC008091BC0087FFFCCF6093BB0084E81B
:1001F0008093BC008091BC0087FFFCCF8091BC0045
:1002000087FFFCCF84EA8093BC008091BC0087FF0D
:10021000FCCF809100018F5F8093BB0084E88093C6
:10022000BC008091BC0087FFFCCF84E88093BC00B9
:100230008091BC0087FFFCCF8091BB00808384E964
:100240008093BC0080E0089594EA34E89093BC0069
:100250008091BC0087FFFCCF809100018093BB00A0
:100260003093BC008091BC0087FFFCCF8091B90027
:10027000883161F784EA8093BC008091BC0087FFDD
:10028000FCCF809100018093BB0084E88093BC0088
:100290008091BC0087FFFCCF7093BB0084E8809303
:1002A000BC008091BC0087FFFCCF6093BB0084E85A
:1002B0008093BC008091BC0087FFFCCF84EA8093D0
:1002C000BC008091BC0087FFFCCF809100018F5F54
:1002D0008093BB0084E88093BC008091BC0087FFC2
:1002E000FCCF84EC222381F0213009F484E8809350
:1002F000BC009091BC0097FFFCCFFA019091BB002D
:1003000091932150AF01EECF84E98093BC0080E04F
:10031000089594EA24E89093BC008091BC0087FF84
:10032000FCCF809100018093BB002093BC008091A2
:10033000BC0087FFFCCF8091B900883161F784EA67
:100340008093BC008091BC0087FFFCCF80910001AE
:100350008093BB0084E88093BC008091BC0087FF41
:10036000FCCF7093BB0084E88093BC008091BC00FC
:1003700087FFFCCF6093BB0084E88093BC00809132
:10038000BC0087FFFCCF4093BB0084E88093BC0097
:100390008091BC0087FFFCCF84E98093BC0080E0A3
:1003A0000895FB01260F372F311DDC018C91815000
:1003B000990B862B9F2B2817390718F09C012F5F6C
:1003C0003F4F822F8E1B24EA34E82093BC0090918B
:1003D000BC0097FFFCCF909100019093BB0030933D
:1003E000BC009091BC0097FFFCCF9091B900983170
:1003F00061F794EA9093BC009091BC0097FFFCCF0A
:10040000909100019093BB0094E89093BC00909170
:10041000BC0097FFFCCFF093BB0094E89093BC0026
:100420009091BC0097FFFCCFE093BB0094E89093C1
:10043000BC009091BC0097FFFCCF982F24E8992333
:1004400069F0FA0131913093BB002093BC003091E8
:10045000BC0037FFFCCF9150AF01F1CF94E99093EE
:10046000BC000895DF92EF92FF920F931F93CF93FA
:10047000DF93D82ED92F7B018A01C22F2C2FA80100
:10048000B7018D2D9D2F0E94D101282F30E0E20E63
:10049000F31EC81B020F131FC111F0CF80E0DF91C4
:1004A000CF911F910F91FF90EF90DF9008951092E0
:1004B000C5008FEC8093C400E0ECF0E080818064A4
:1004C0008083E1ECF0E0808188618083A2ECB0E081
:1004D0008C9186608C938081806880830895909150
:1004E000C00095FFFCCF8093C60008950F931F9323
:1004F000CF938C01C0E0F801EC0FF11D80818823BF
:1005000021F00E946F02CF5FF6CFCF911F910F9124
:1005100008958091C00087FFFCCF8091C6000895A8
:100520000E949E000E945702FFCF83E091E00C944E
:10053000B20083E091E00C94A800EE0FFF1F05903D
:10054000F491E02D099410E0CFE3D0E004C0FE0167
:100550000E949D022196C034D107C9F7F894FFCFBD
:02056000A000F9
:00000001FF
