:100000000C9481000C94A9000C94A9000C94A900F4
:100010000C94A9000C94A9000C94A9000C94A900BC
:100020000C94A9000C94A9000C94A9000C94A900AC
:100030000C94A9000C94A9000C94A9000C94A9009C
:100040000C94A9000C94A9000C94A9000C94A9008C
:100050000C94A9000C94A9000C94A9000C94A9007C
:100060000C94A9000C94A9000C94A9000C94A9006C
:100070000C94A9000C94A9000C94A90007634236C3
:10008000B79BD8A71A39685618AEBAAB558C1D3C29
:10009000B7CC5763BD6DEDFD753EF6177231BF00ED
:1000A0000000803F08000000BE922449123EABAA27
:1000B000AA2ABECDCCCC4C3E00000080BEABAAAA82
:1000C000AA3E00000000BF000000803F00000000CA
:1000D00000084178D3BB4387D1133D190E3CC3BD03
:1000E0004282AD2B3E68EC8276BED98FE1A93E4CB0
:1000F00080EFFFBE01C4FF7F3F00000000000B093E
:10010000130911241FBECFEFD8E0DEBFCDBF11E031
:10011000A0E0B1E0E0E7F9E102C005900D92A23065
:10012000B107D9F721E0A2E0B1E001C01D92A131F1
:10013000B207E1F710E0C0E8D0E004C02197FE016B
:100140000E941709CF37D107C9F70E94AB070C945B
:10015000AB0C0C9400006091090170910A0148E019
:1001600051E08FE091E00E9462058FE295E70197F0
:10017000F1F700C000006091080180E191E00E9469
:1001800030078FE295E70197F1F700C000008091FA
:10019000090190910A01029690930A018093090146
:1001A00008950895CF93DF9300D000D0CDB7DEB788
:1001B000942F852F229A242F352FAB0199838A8380
:1001C0006B837C8369817A818B819C810E941E096B
:1001D00020E030E040E853E469837A838B839C839A
:1001E00069817A818B819C810E94B90A9B01AC0153
:1001F00060E074E284EF9AE40E948A0969837A835A
:100200008B839C8369817A818B819C810E94FC090C
:1002100067BD84B5826484BD85B5846085BD16BC28
:100220000F900F900F900F90DF91CF910895CF9383
:10023000DF9300D000D000D0CDB7DEB78E839D8392
:10024000862F90E0B0E0A0E089839A83AB83BC83E3
:10025000BC01CD010E942D0A20E030E04AE852E4C2
:1002600069837A838B839C8369817A818B819C816A
:100270000E941D0920E030E040E451E469837A8364
:100280008B839C8369817A818B819C810E948A09FE
:100290009B01AC0160E070E080E090E40E94260BDE
:1002A00020E030E04CED53E469837A838B839C83B8
:1002B00069817A818B819C810E94B90A462F572FD0
:1002C000BC018E819D8126960FB6F894DEBF0FBECD
:1002D000CDBFDF91CF910C94D20017BC14BC15BCDC
:1002E00016BC089523ED260F253210F40C94170147
:1002F0000895CF93DF93D82FC92F6CE40E94170184
:100300008DE790E00E94F4046AE48D2F9C2F0E94F8
:1003100017018DE790E00E94F40462E48D2F9C2F7A
:100320000E9417018AEF90E00E94F40464E48D2F8C
:100330009C2F0E9417018AEF90E00E94F40469E468
:100340008D2F9C2F0E9417018DE790E00E94F404EE
:1003500067E48D2F9C2F0E9417018DE790E00E948B
:10036000F4046EE38D2F9C2F0E9417018AEF90E01A
:100370000E94F40460E48D2F9C2F0E9417018AEFE5
:1003800090E00E94F40467E48D2F9C2F0E941701D7
:100390008DE790E00E94F40465E48D2F9C2F0E946D
:1003A00017018DE790E00E94F4046DE38D2F9C2FE0
:1003B0000E9417018AEF90E00E94F40460E48D2F00
:1003C0009C2F0E9417018AEF90E00E94F40465E4DC
:1003D0008D2F9C2F0E94170184EF91E00E94F4045E
:1003E0008D2F9C2FDF91CF910C946D010F931F9354
:1003F000CF93DF93D82FC92F86EA90E00E94F404B0
:1004000086EA90E00E94F40486EA90E00E94F404F8
:1004100012E06CE38D2F9C2F0E94170188EE93E071
:100420000E94F40463E48D2F9C2F0E94170188EE34
:1004300093E00E94F40402E061E48D2F9C2F0E945F
:10044000170186EA90E00E94F40460E48D2F9C2F4F
:100450000E94170186EA90E00E94F4046EE38D2F5B
:100460009C2F0E94170186EA90E00E94F40468E441
:100470008D2F9C2F0E94170188EE93E00E94F404B8
:1004800063E48D2F9C2F0E94170184EF91E00E945E
:10049000F404013009F0A2C261E48D2F9C2F0E9468
:1004A000170186EA90E00E94F40460E48D2F9C2FEF
:1004B0000E94170186EA90E00E94F40461E48D2F07
:1004C0009C2F0E94170186EA90E00E94F4046EE3DC
:1004D0008D2F9C2F0E94170188EE93E00E94F40458
:1004E00084EF91E00E94F4048AEF90E00E94F4040B
:1004F000113009F071C26DE28D2F9C2F0E941701FF
:100500008EEE92E00E94F4046DE28D2F9C2F0E94EB
:1005100017018AEF90E00E94F40461E48D2F9C2F74
:100520000E9417018EE790E00E94F40460E48D2F92
:100530009C2F0E9417018EE790E00E94F4046EE366
:100540008D2F9C2F0E9417018EE790E00E94F404EB
:100550006CE38D2F9C2F0E9417018EE790E00E9484
:10056000F4046CE38D2F9C2F0E94170186EA90E023
:100570000E94F4046EE38D2F9C2F0E94170186EADF
:1005800090E00E94F40460E48D2F9C2F0E941701DC
:1005900086EA90E00E94F4046EE38D2F9C2F0E9467
:1005A000170184EF91E00E94F4046DE28D2F9C2FDF
:1005B0000E9417018AEF90E00E94F4046FE28D2FF1
:1005C0009C2F0E94170184EF91E00E94F40484EFB5
:1005D00091E00E94F4048AEF90E00E94F4046DE23E
:1005E0008D2F9C2F0E9417018EEE92E00E94F40442
:1005F0006DE28D2F9C2F0E9417018AEF90E00E94E0
:10060000F40461E48D2F9C2F0E9417018EE790E087
:100610000E94F40460E48D2F9C2F0E9417018EE746
:1006200090E00E94F4046EE38D2F9C2F0E9417012E
:100630008EE790E00E94F4046CE38D2F9C2F0E94C3
:1006400017018EE790E00E94F40463E48D2F9C2F45
:100650000E94170184EF91E00E94F4046EE38D2F55
:100660009C2F0E94170188EE93E00E94F4048D2FC6
:100670009C2F0E946D0184EF91E00E94F4048AEFA8
:1006800090E00E94F4046DE28D2F9C2F0E941701D0
:100690008EEE92E00E94F4046DE28D2F9C2F0E945A
:1006A00017018AEF90E00E94F40461E48D2F9C2FE3
:1006B0000E9417018EE790E00E94F40460E48D2F01
:1006C0009C2F0E9417018EE790E00E94F4046EE3D5
:1006D0008D2F9C2F0E9417018EE790E00E94F4045A
:1006E0006CE38D2F9C2F0E9417018FE390E00E94F6
:1006F000F4046CE38D2F9C2F0E94170186EA90E092
:100700000E94F4046EE38D2F9C2F0E94170186EA4D
:1007100090E00E94F40460E48D2F9C2F0E9417014A
:1007200086EA90E00E94F4046EE38D2F9C2F0E94D5
:10073000170184EF91E00E94F4046DE28D2F9C2F4D
:100740000E9417018AEF90E00E94F4046FE28D2F5F
:100750009C2F0E94170184EF91E00E94F40484EF23
:1007600091E00E94F4048AEF90E00E94F40468E4AF
:100770008D2F9C2F0E94170184EF91E00E94F404BA
:1007800066E48D2F9C2F0E9417018AEF90E00E9453
:10079000F40464E48D2F9C2F0E94170184EF91E0F4
:1007A0000E94F40463E48D2F9C2F0E9417018AEFAE
:1007B00090E00E94F40461E48D2F9C2F0E941701A9
:1007C00084EF91E00E94F4046FE38D2F9C2F0E9430
:1007D00017018AEF90E00E94F4046EE38D2F9C2FA6
:1007E0000E94170184EF91E00E94F4046CE38D2FC6
:1007F0009C2F0E9417018AEF90E00E94F40463E4AA
:100800008D2F9C2F0E94170184EF91E00E94F40429
:1008100086EA90E00E94F40486EA90E00E94F404E4
:1008200086EA90E00E94F40484EF91E00E94F404D0
:100830008AEF90E00E94F4048EE790E00E94F404B6
:100840008EE790E00E94F4046DE28D2F9C2F0E94B1
:1008500017018EEE92E00E94F40460E38D2F9C2F2E
:100860000E94170184EF91E00E94F40461E48D2F4F
:100870009C2F0E94170184EF91E00E94F4046EE324
:100880008D2F9C2F0E94170180ED97E00E94F404A9
:1008900086EA90E00E94F40486EA90E00E94F40464
:1008A00086EA90E00E94F40412E06CE38D2F9C2F06
:1008B0000E94170188EE93E00E94F40463E48D2FF8
:1008C0009C2F0E94170188EE93E00E94F40402E03E
:1008D00061E48D2F9C2F0E94170186EA90E00E9410
:1008E000F40460E48D2F9C2F0E94170186EA90E0AB
:1008F0000E94F4046EE38D2F9C2F0E94170186EA5C
:1009000090E00E94F40468E48D2F9C2F0E94170150
:1009100088EE93E00E94F40463E48D2F9C2F0E94E4
:10092000170184EF91E00E94F404013009F05AC0ED
:1009300061E48D2F9C2F0E94170186EA90E00E94AF
:10094000F40460E48D2F9C2F0E94170186EA90E04A
:100950000E94F40461E48D2F9C2F0E94170186EA07
:1009600090E00E94F4046EE38D2F9C2F0E941701EB
:1009700088EE93E00E94F40484EF91E00E94F40476
:100980008AEF90E00E94F404113051F56CE38D2F52
:100990009C2F0E94170184EC99E00E94F40413E05C
:1009A0006CE38D2F9C2F0E94170186EA90E00E9435
:1009B000F4041150A9F76CE38D2F9C2F0E941701AE
:1009C00084EF91E00E94F4048D2F9C2FDF91CF9152
:1009D0001F910F910C946D0111E01BCD01E02CCD06
:1009E00011E063CF01E074CF9C0190E080E08217BA
:1009F000930741F0EFECF7E03197F1F700C000000A
:100A00000196F5CF0895F89481B964B947B92AB928
:100A10007894089581E06F3F08F480E034E6839F86
:100A2000C0011124909389008093880081E04F3F9A
:100A300008F480E034E6839FC001112490938B007A
:100A400080938A0081EA8093800082E08093810015
:100A500010928200223079F028F4211108C08BB165
:100A60001BB80895233059F0243069F008958BB1F4
:100A70008C608BB908958BB11BB85A9A08958BB1CD
:100A80001BB85B9A08958BB11BB88BB1F2CF089558
:100A900080EA809300011092B90080E28093B80050
:100AA0000895FC0180E88083CF010C944805982FBD
:100AB0009370891305C0880F806A809300010895A0
:100AC0008FEF0895FA0194EA24E89093BC00809196
:100AD000BC0087FFFCCF809100018093BB00209376
:100AE000BC008091BC0087FFFCCF8091B9008831A9
:100AF00061F784EA8093BC008091BC0087FFFCCF43
:100B0000809100018093BB0084E88093BC008091B9
:100B1000BC0087FFFCCF7093BB0084E88093BC00CF
:100B20008091BC0087FFFCCF6093BB0084E880937A
:100B3000BC008091BC0087FFFCCF8091BC0087FF88
:100B4000FCCF84EA8093BC008091BC0087FFFCCF7F
:100B5000809100018F5F8093BB0084E88093BC008C
:100B60008091BC0087FFFCCF84E88093BC0080911B
:100B7000BC0087FFFCCF8091BB00808384E9809319
:100B8000BC0080E0089594EA34E89093BC00809122
:100B9000BC0087FFFCCF809100018093BB003093A5
:100BA000BC008091BC0087FFFCCF8091B9008831E8
:100BB00061F784EA8093BC008091BC0087FFFCCF82
:100BC000809100018093BB0084E88093BC008091F9
:100BD000BC0087FFFCCF7093BB0084E88093BC000F
:100BE0008091BC0087FFFCCF6093BB0084E88093BA
:100BF000BC008091BC0087FFFCCF84EA8093BC00DE
:100C00008091BC0087FFFCCF809100018F5F8093B3
:100C1000BB0084E88093BC008091BC0087FFFCCFC0
:100C200084EC222381F0213009F484E88093BC0015
:100C30009091BC0097FFFCCFFA019091BB0091937B
:100C40002150AF01EECF84E98093BC0080E008958D
:100C500094EA24E89093BC008091BC0087FFFCCF0D
:100C6000809100018093BB002093BC008091BC0068
:100C700087FFFCCF8091B900883161F784EA8093C7
:100C8000BC008091BC0087FFFCCF80910001809365
:100C9000BB0084E88093BC008091BC0087FFFCCF40
:100CA0007093BB0084E88093BC008091BC0087FFF8
:100CB000FCCF6093BB0084E88093BC008091BC00B3
:100CC00087FFFCCF4093BB0084E88093BC008091F9
:100CD000BC0087FFFCCF84E98093BC0080E00895CE
:100CE000FB01260F372F311DDC018C918150990BB0
:100CF000862B9F2B2817390718F09C012F5F3F4F39
:100D0000822F8E1B24EA34E82093BC009091BC0013
:100D100097FFFCCF909100019093BB003093BC00F3
:100D20009091BC0097FFFCCF9091B900983161F78A
:100D300094EA9093BC009091BC0097FFFCCF9091F7
:100D400000019093BB0094E89093BC009091BC008C
:100D500097FFFCCFF093BB0094E89093BC00909178
:100D6000BC0097FFFCCFE093BB0094E89093BC00DD
:100D70009091BC0097FFFCCF982F24E8992369F04D
:100D8000FA0131913093BB002093BC003091BC003C
:100D900037FFFCCF9150AF01F1CF94E99093BC00A5
:100DA0000895DF92EF92FF920F931F93CF93DF93FB
:100DB000D82ED92F7B018A01C22F2C2FA801B70171
:100DC0008D2D9D2F0E947006282F30E0E20EF31E1D
:100DD000C81B020F131FC111F0CF80E0DF91CF912C
:100DE0001F910F91FF90EF90DF90089562B90895E1
:100DF00081E082B98FE19EE40197F1F700C0000025
:100E000082E082B98FE097E20197F1F700C000001D
:100E10000895CF93DF93CA01D22FC32F62B90E94E6
:100E2000F40412B88D2F9C2FDF91CF910C94F40411
:100E30001092C5008FEC8093C400E0ECF0E080815C
:100E400080648083E1ECF0E0808188618083A2ECA3
:100E5000B0E08C9186608C93808180688083089557
:100E60008091C00085FFFCCF6093C6000895EF928B
:100E7000FF921F93CF93DF93182FD92F7B01C0E0F0
:100E8000F701EC0FF11D6081662331F0812F9D2F5A
:100E90000E943007CF5FF4CFDF91CF911F91FF9079
:100EA000EF9008958091C00087FFFCCF8091C6002D
:100EB0000895FF920F931F93CF93DF93F82E092F7E
:100EC000EB0110E0212F30E0FE0101900020E9F756
:100ED0003197EC1BFD0B2E173F0750F42C0F3D1FD5
:100EE000F90160818F2D902F0E9430071F5FEACF9C
:100EF000DF91CF911F910F91FF900895AF92BF9214
:100F0000CF92DF92EF92FF920F931F93CF93DF93D5
:100F1000F82EE92EEB01042F10E05B0184E6A80E09
:100F2000B11C101769F06E01F60161916F018F2DF0
:100F30009E2D0E943007CA14DB04B1F71F5FF1CF6A
:100F4000DF91CF911F910F91FF90EF90DF90CF90A5
:100F5000BF90AF9008958FE091E00E94480580E136
:100F600091E00E9418078FEF81B98AB984B92FEFF9
:100F70004FEF6FEF0E94030528EE33E048EE53E099
:100F800062E08EE091E00E94090728EE33E048EE2F
:100F900053E061E08EE091E00E94090728EE33E023
:100FA00048EE53E062E08EE091E00E94090728EEEF
:100FB00033E048EE53E061E08EE091E00E940907E3
:100FC0008DE091E00E9479018091090190910A01E0
:100FD000029690930A018093090180910801813063
:100FE00089F06091090170910A0148E051E08FE0B9
:100FF00091E00E9462058FE295E70197F1F700C04A
:101000000000E2CF81E090E0909303018093020121
:1010100061E08EE091E00E94F6069FEF23E284EF0C
:10102000915020408040E1F700C00000C9E180916C
:10103000020190910301019709F0EAC06091090152
:1010400070910A0148E051E08FE091E00E94620552
:101050008FE295E70197F1F700C000006091090168
:1010600070910A016F5F7F4F70930A0160930901CD
:1010700080910801823618F5803608F085C08434E6
:1010800009F46FC050F4823009F450C0893079F609
:101090008DE091E00E946D01CACF853409F46EC0E5
:1010A000883429F64BE051E08FE091E00E94620520
:1010B00060910B018DE091E00E94720148C085367D
:1010C00009F491C008F5833609F466C0843609F442
:1010D00079C0823609F0ABCF4BE051E08FE091E070
:1010E0000E94620560910B0120E0462F8CE091E0A8
:1010F0000E940A059FEF23E284EF91502040804038
:10110000E1F700C0000023C0803C09F470C0813CBE
:1011100009F08DCF809104018150809304018823D0
:1011200009F485CF8091050190E016C04BE051E0B5
:101130008FE091E00E94620580910B018C9FC001BD
:10114000112490930701809306010E94F40480917A
:10115000090190910A01019690930A018093090177
:1011600066CF4BE051E08FE091E00E946205609114
:101170000B018EE091E00E94F606E9CF60E08EE080
:1011800091E00E94F60653CF24E040E060E08CE05E
:1011900091E00E940A054BCF4BE051E08FE091E0D7
:1011A0000E94620560910B0121E0462F8CE091E0E6
:1011B0000E940A059FEF29E688E191502040804077
:1011C000E1F79FCF22E040E06FEF8CE091E00E94DA
:1011D0000A059FEF29E688E1915020408040E1F721
:1011E00000C0000024CF23E04FEF60E0EECF4BE0E3
:1011F00051E08FE091E00E94620580910B018093A5
:1012000004018091090190910A0180930501A3CF07
:1012100090E080E008958FE091E00E9451058DE01C
:1012200091E00C94D1008FE091E00C944705EE0F13
:10123000FF1F0590F491E02D09945058BB27AA2771
:101240000E9435090C947F0A0E94710A38F00E94AE
:10125000780A20F039F49F3F19F426F40C946E0AB2
:101260000EF4E095E7FB0C94680AE92F0E94900ABF
:1012700058F3BA17620773078407950720F079F4CB
:10128000A6F50C94B20A0EF4E0950B2EBA2FA02D01
:101290000B01B90190010C01CA01A0011124FF2723
:1012A000591B99F0593F50F4503E68F11A16F0401E
:1012B000A22F232F342F4427585FF3CF469537951D
:1012C0002795A795F0405395C9F77EF41F16BA0BE2
:1012D000620B730B840BBAF09150A1F0FF0FBB1F90
:1012E000661F771F881FC2F70EC0BA0F621F731FD9
:1012F000841F48F4879577956795B795F7959E3F36
:1013000008F0B0CF9395880F08F09927EE0F9795C6
:10131000879508950E949E090C947F0A0E94780A7E
:1013200058F00E94710A40F029F45F3F29F00C94B4
:10133000680A51110C94B30A0C946E0A0E94900A28
:1013400068F39923B1F3552391F3951B550BBB27F4
:10135000AA2762177307840738F09F5F5F4F220F39
:10136000331F441FAA1FA9F335D00E2E3AF0E0E830
:1013700032D091505040E695001CCAF72BD0FE2F7A
:1013800029D0660F771F881FBB1F2617370748070E
:10139000AB07B0E809F0BB0B802DBF01FF279358C6
:1013A0005F4F3AF09E3F510578F00C94680A0C9418
:1013B000B30A5F3FE4F3983ED4F38695779567953B
:1013C000B795F7959F5FC9F7880F911D96958795FB
:1013D00097F90895E1E0660F771F881FBB1F62171A
:1013E00073078407BA0720F0621B730B840BBA0BD8
:1013F000EE1F88F7E09508950E94980A88F09F579D
:1014000098F0B92F9927B751B0F0E1F0660F771F28
:10141000881F991F1AF0BA95C9F714C0B13091F01E
:101420000E94B20AB1E008950C94B20A672F782F97
:101430008827B85F39F0B93FCCF3869577956795E3
:10144000B395D9F73EF490958095709561957F4F4F
:101450008F4F9F4F0895E89409C097FB3EF49095F5
:101460008095709561957F4F8F4F9F4F9923A9F07D
:10147000F92F96E9BB279395F6958795779567950C
:10148000B795F111F8CFFAF4BB0F11F460FF1BC050
:101490006F5F7F4F8F4F9F4F16C0882311F096E9E3
:1014A00011C0772321F09EE8872F762F05C0662391
:1014B00071F096E8862F70E060E02AF09A95660F4A
:1014C000771F881FDAF7880F9695879597F9089503
:1014D00097F99F6780E870E060E008959FEF80ECE7
:1014E000089500240A94161617061806090608958A
:1014F00000240A9412161306140605060895092EF0
:101500000394000C11F4882352F0BB0F40F4BF2B5E
:1015100011F460FF04C06F5F7F4F8F4F9F4F08959E
:1015200057FD9058440F551F59F05F3F71F0479594
:10153000880F97FB991F61F09F3F79F08795089579
:10154000121613061406551FF2CF4695F1DF08C098
:10155000161617061806991FF1CF869571056105B5
:1015600008940895E894BB2766277727CB0197F95D
:1015700008950E94CC0A0C947F0A0E94710A38F0E8
:101580000E94780A20F0952311F00C94680A0C94BC
:101590006E0A11240C94B30A0E94900A70F3959F6E
:1015A000C1F3950F50E0551F629FF001729FBB275A
:1015B000F00DB11D639FAA27F00DB11DAA1F649FF6
:1015C0006627B00DA11D661F829F2227B00DA11DA9
:1015D000621F739FB00DA11D621F839FA00D611D2F
:1015E000221F749F3327A00D611D231F849F600D50
:1015F000211D822F762F6A2F11249F5750409AF079
:10160000F1F088234AF0EE0FFF1FBB1F661F771F04
:10161000881F91505040A9F79E3F510580F00C94CF
:10162000680A0C94B30A5F3FE4F3983ED4F38695BE
:1016300077956795B795F795E7959F5FC1F7FE2B6F
:10164000880F911D9695879597F90895FA01EE0FE9
:10165000FF1F309621053105A1F16115710561F477
:101660008038BFE39B0749F168949038810561F0A9
:101670008038BFEF9B0741F099234AF5FF3FE10512
:101680003105210519F1E8940894E795D901AA23B9
:1016900029F4AB2FBE2FF85FD0F310C0FF5F70F4BA
:1016A000A695E0F7F73950F019F0FF3A38F49F7734
:1016B0009F930DD00F9007FC9058089546F00C941E
:1016C0006E0A60E070E080E89FE308954FE79F773F
:1016D0005F934F933F932F930E94210C2F913F9143
:1016E0004F915F910E94B90A0C947E0B29F416F079
:1016F0000C94680A0C94B20A0C946E0A0E94980A20
:10170000A8F39638A0F707F80F92E8942BE33AEA8B
:1017100048EB5FE70E94CF0A0F920F920F924DB7EE
:101720005EB70F920E94690CECE7F0E00E94B00BEC
:101730004F915F91EF91FF91E595EE1FFF1F49F0EB
:10174000FE57E0684427EE0F441FFA95E1F74195F4
:10175000550B0E94E30B0F9007FE0C94D70B0895D6
:10176000DF93CF931F930F93FF92EF92DF927B0152
:101770008C01689406C0DA2EEF010E94CC0AFE01AB
:10178000E894A5912591359145915591A6F3EF01E6
:101790000E943509FE019701A801DA9469F7DF90EC
:1017A000EF90FF900F911F91CF91DF9108959B01D2
:1017B000AC0160E070E080E89FE30C948A090C942F
:1017C000680A0C949D0C0E94980AD8F39923C9F3D7
:1017D000940F511DA3F39150504094F059F0882379
:1017E00032F0660F771F881F91505040C1F79E3F1F
:1017F00051052CF7880F911D9695879597F90895B7
:101800005F3FACF0983E9CF0BB2786957795679537
:10181000B79508F4B1609395C1F7BB0F58F711F471
:1018200060FFE8CF6F5F7F4F8F4F9F4FE3CF0C94E8
:10183000B30A16F00C949D0C0C946E0A68940C94E8
:10184000680A0E94980AA8F39923C1F3AEF3DF93C4
:10185000CF931F930F93FF92C92FDD2788232AF080
:101860002197660F771F881FDAF720E030E040E805
:101870005FEB9FE3883920F0803E38F021968F7728
:101880000E941E09E4EAF0E004C00E941E09E1ED96
:10189000F0E00E94B00B8B01BE01EC01FB2E6F57F4
:1018A00071097595771F880B990B0E942D0A28E105
:1018B00032E741E35FE30E94CC0AAF2D9801AE010D
:1018C000FF900F911F91CF91DF910E9435090C94E9
:1018D0007F0AFA01DC01AA0FBB1F9B01AC01BF57B5
:1018E00028F4222733274427507820C0B75190F49A
:1018F000AB2F0024469537952795011CA395D2F36D
:10190000002071F0220F331F441FB395DAF30ED07D
:101910000C941D0961307105A0E88A07B94630F4BE
:101920009B01AC016627772788279078309621F0B5
:10193000208331834283538308959F3F31F0915038
:1019400020F4879577956795B795880F911D9695A3
:10195000879597F9089510E0C0E8D0E004C0FE0133
:101960000E9417092196C138D107C9F7F894FFCF13
:02197000A000D5
:00000001FF
