:100000000C947F000C9494000C9494000C94940035
:100010000C9494000C9494000C9494000C94940010
:100020000C9494000C9494000C9494000C94940000
:100030000C9494000C9494000C9494000C949400F0
:100040000C9494000C9494000C9494000C949400E0
:100050000C9494000C9494000C9494000C949400D0
:100060000C9494000C9494000C9494000C949400C0
:100070000C9494000C9494000C9494000763423602
:10008000B79BD8A71A39685618AEBAAB558C1D3C29
:10009000B7CC5763BD6DEDFD753EF6177231BF00ED
:1000A0000000803F08000000BE922449123EABAA27
:1000B000AA2ABECDCCCC4C3E00000080BEABAAAA82
:1000C000AA3E00000000BF000000803F00000000CA
:1000D00000084178D3BB4387D1133D190E3CC3BD03
:1000E0004282AD2B3E68EC8276BED98FE1A93E4CB0
:1000F00080EFFFBE01C4FF7F3F000000000011241D
:100100001FBECFEFD8E0DEBFCDBF11E0A0E0B1E071
:10011000EEEBF8E102C005900D92A230B107D9F7DD
:100120000E9459070C945D0C0C9400000895CB01BB
:10013000BA01229A9A01AC010E94A20820E030E0A4
:1001400040E853E40E946B0A9B01AC0160E074E25A
:1001500084EF9AE40E9413090E94850967BD84B563
:10016000826484BD85B5846085BD16BC089517BCC6
:1001700014BC15BC16BC0895CF92DF92EF92FF928B
:10018000CF93DF93EC0170E090E080E00E94B6092D
:100190006B017C0120E030E044E352E40E94660AF7
:1001A00087FD31C020E030E042EA52E4C701B601E9
:1001B0000E940E0918163CF120E030E04AE852E4B3
:1001C000C701B6010E94A10820E030E040E451E4FC
:1001D0000E9413099B01AC0160E070E080E090E4B4
:1001E0000E94D80A20E030E04CED53E40E946B0AF4
:1001F000AB01BC01CE01DF91CF91FF90EF90DF907A
:10020000CF900C949700DF91CF91FF90EF90DF900B
:10021000CF900895CF93DF93EC016CE40E94BC0073
:100220008DE790E00E945F046AE4CE010E94BC006A
:100230008DE790E00E945F0462E4CE010E94BC0062
:100240008AEF90E00E945F0464E4CE010E94BC004B
:100250008AEF90E00E945F0469E4CE010E94BC0036
:100260008DE790E00E945F0467E4CE010E94BC002D
:100270008DE790E00E945F046EE3CE010E94BC0017
:100280008AEF90E00E945F0460E4CE010E94BC000F
:100290008AEF90E00E945F0467E4CE010E94BC00F8
:1002A0008DE790E00E945F0465E4CE010E94BC00EF
:1002B0008DE790E00E945F046DE3CE010E94BC00D8
:1002C0008AEF90E00E945F0460E4CE010E94BC00CF
:1002D0008AEF90E00E945F0465E4CE010E94BC00BA
:1002E00084EF91E00E945F04CE01DF91CF910C94E6
:1002F000B7000F931F93CF93DF93EC0113E06BE2F2
:10030000CE010E94BC0086EA90E00E945F0411507A
:10031000B1F712E06CE3CE010E94BC0088EE93E0DE
:100320000E945F0463E4CE010E94BC0088EE93E06B
:100330000E945F0402E061E4CE010E94BC0086EAF4
:1003400090E00E945F0460E4CE010E94BC0086EA57
:1003500090E00E945F046EE3CE010E94BC0086EA3A
:1003600090E00E945F0468E4CE010E94BC0088EE29
:1003700093E00E945F0463E4CE010E94BC0084EF1E
:1003800091E00E945F04013009F093C261E4CE0164
:100390000E94BC0086EA90E00E945F0460E4CE0107
:1003A0000E94BC0086EA90E00E945F0461E4CE01F6
:1003B0000E94BC0086EA90E00E945F046EE3CE01DA
:1003C0000E94BC0088EE93E00E945F046BE2CE01C5
:1003D0000E94BC0084EF91E00E945F046BE2CE01BA
:1003E0000E94BC008AEF90E00E945F04113009F087
:1003F0005EC26DE2CE010E94BC008EEE92E00E94D1
:100400005F046DE2CE010E94BC008AEF90E00E9482
:100410005F0461E4CE010E94BC008EE790E00E9480
:100420005F0460E4CE010E94BC008EE790E00E9471
:100430005F046EE3CE010E94BC008EE790E00E9454
:100440005F046CE3CE010E94BC008EE790E00E9446
:100450005F046CE3CE010E94BC0086EA90E00E943B
:100460005F046EE3CE010E94BC0086EA90E00E9429
:100470005F0460E4CE010E94BC0086EA90E00E9426
:100480005F046EE3CE010E94BC0084EF91E00E9405
:100490005F046DE2CE010E94BC008AEF90E00E94F2
:1004A0005F046FE2CE010E94BC0084EF91E00E94E5
:1004B0005F046BE2CE010E94BC0084EF91E00E94D9
:1004C0005F046BE2CE010E94BC008AEF90E00E94C4
:1004D0005F046DE2CE010E94BC008EEE92E00E94AD
:1004E0005F046DE2CE010E94BC008AEF90E00E94A2
:1004F0005F0461E4CE010E94BC008EE790E00E94A0
:100500005F0460E4CE010E94BC008EE790E00E9490
:100510005F046EE3CE010E94BC008EE790E00E9473
:100520005F046CE3CE010E94BC008EE790E00E9465
:100530005F0463E4CE010E94BC0084EF91E00E945E
:100540005F046EE3CE010E94BC0088EE93E00E943F
:100550005F04CE010E94B70084EF91E00E945F0427
:100560006BE2CE010E94BC008AEF90E00E945F0423
:100570006DE2CE010E94BC008EEE92E00E945F040C
:100580006DE2CE010E94BC008AEF90E00E945F0401
:1005900061E4CE010E94BC008EE790E00E945F04FF
:1005A00060E4CE010E94BC008EE790E00E945F04F0
:1005B0006EE3CE010E94BC008EE790E00E945F04D3
:1005C0006CE3CE010E94BC008FE390E00E945F04C8
:1005D0006CE3CE010E94BC0086EA90E00E945F04BA
:1005E0006EE3CE010E94BC0086EA90E00E945F04A8
:1005F00060E4CE010E94BC0086EA90E00E945F04A5
:100600006EE3CE010E94BC0084EF91E00E945F0483
:100610006DE2CE010E94BC008AEF90E00E945F0470
:100620006FE2CE010E94BC0084EF91E00E945F0463
:100630006BE2CE010E94BC0084EF91E00E945F0457
:100640006BE2CE010E94BC008AEF90E00E945F0442
:1006500068E4CE010E94BC0084EF91E00E945F0438
:1006600066E4CE010E94BC008AEF90E00E945F0425
:1006700064E4CE010E94BC0084EF91E00E945F041C
:1006800063E4CE010E94BC008AEF90E00E945F0408
:1006900061E4CE010E94BC0084EF91E00E945F04FF
:1006A0006FE3CE010E94BC008AEF90E00E945F04DD
:1006B0006EE3CE010E94BC0084EF91E00E945F04D3
:1006C0006CE3CE010E94BC008AEF90E00E945F04C0
:1006D00063E4CE010E94BC0084EF91E00E945F04BD
:1006E00013E06BE2CE010E94BC0086EA90E00E941B
:1006F0005F041150B1F76BE2CE010E94BC0084EFA1
:1007000091E00E945F046BE2CE010E94BC008AEF80
:1007100090E00E945F046BE2CE010E94BC008EE775
:1007200090E00E945F046BE2CE010E94BC008EE765
:1007300090E00E945F046DE2CE010E94BC008EEE4C
:1007400092E00E945F0460E3CE010E94BC0084EF4F
:1007500091E00E945F0461E4CE010E94BC0084EF3E
:1007600091E00E945F046EE3CE010E94BC0080ED28
:1007700097E00E945F0413E06BE2CE010E94BC0090
:1007800086EA90E00E945F041150B1F712E06CE33A
:10079000CE010E94BC0088EE93E00E945F0463E4F7
:1007A000CE010E94BC0088EE93E00E945F0402E04C
:1007B00061E4CE010E94BC0086EA90E00E945F04E2
:1007C00060E4CE010E94BC0086EA90E00E945F04D3
:1007D0006EE3CE010E94BC0086EA90E00E945F04B6
:1007E00068E4CE010E94BC0088EE93E00E945F04A2
:1007F00063E4CE010E94BC0084EF91E00E945F049C
:10080000013009F05AC061E4CE010E94BC0086EAC2
:1008100090E00E945F0460E4CE010E94BC0086EA82
:1008200090E00E945F0461E4CE010E94BC0086EA71
:1008300090E00E945F046EE3CE010E94BC0088EE4F
:1008400093E00E945F046BE2CE010E94BC0084EF43
:1008500091E00E945F046BE2CE010E94BC008AEF2F
:1008600090E00E945F04113031F56CE3CE010E94EC
:10087000BC0084EC99E00E945F0413E06CE3CE01BD
:100880000E94BC0086EA90E00E945F041150B1F71C
:100890006CE3CE010E94BC0084EF91E00E945F04F3
:1008A000CE01DF91CF911F910F910C94B70011E011
:1008B00031CD01E040CD11E06ACF01E079CF30E0E9
:1008C00020E02817390749F0EFECF7E03197F1F70E
:1008D00000C000002F5F3F4FF4CF0895F89481B916
:1008E00064B947B92AB9789408958AB18C638AB9F2
:1008F000E0E8F0E08081816A8083E1E8F0E08081D7
:1009000082608083109282000895CF93DF93D42F6A
:10091000C22F70E090E080E00E94B60920E030E055
:1009200048EC52E40E94130920E030E04FE753E422
:100930000E946B0A0E948509709389006093880069
:100940006D2F70E090E080E00E94B60920E030E07A
:1009500048EC52E40E94130920E030E04FE753E4F2
:100960000E946B0A0E94850970938B0060938A0035
:10097000C13059F038F0C23061F0C33071F0DF910E
:10098000CF9108958BB11BB8FACF8BB18C608BB926
:10099000F6CF8BB11BB85A9AF2CF8BB11BB85B9ACA
:1009A000EECF8CE08BB970E0709389006093880083
:1009B00050E050938B0040938A0008951092890074
:1009C000109288008FE790E090938B0080938A00CC
:1009D00008958FE790E090938900809388001092AB
:1009E0008B0010928A00089510928900109288005E
:1009F00010928B0010928A0008951BB870E07093DB
:100A00008900609388000895089580EA809300012A
:100A10001092B90080E28093B800089520E8FC01AC
:100A200020830C940505982F9370891305C0880FB7
:100A3000806A8093000108958FEF089594EA24E876
:100A40009093BC008091BC0087FFFCCF8091000197
:100A50008093BB002093BC008091BC0087FFFCCF3B
:100A60008091B900883161F784EA8093BC0080915D
:100A7000BC0087FFFCCF809100018093BB0084E81D
:100A80008093BC008091BC0087FFFCCF7093BB00BB
:100A900084E88093BC008091BC0087FFFCCF60930A
:100AA000BB0084E88093BC008091BC0087FFFCCF32
:100AB0008091BC0087FFFCCF84EA8093BC008091CA
:100AC000BC0087FFFCCF809100018F5F8093BB004B
:100AD00084E88093BC008091BC0087FFFCCF84E851
:100AE0008093BC008091BC0087FFFCCF8091BB004D
:100AF000FA01808384E98093BC0080E0089594EA41
:100B000034E89093BC008091BC0087FFFCCF8091BB
:100B100000018093BB003093BC008091BC0087FF34
:100B2000FCCF8091B900883161F784EA8093BC00E2
:100B30008091BC0087FFFCCF809100018093BB00B7
:100B400084E88093BC008091BC0087FFFCCF709349
:100B5000BB0084E88093BC008091BC0087FFFCCF81
:100B60006093BB0084E88093BC008091BC0087FF49
:100B7000FCCF84EA8093BC008091BC0087FFFCCF4F
:100B8000809100018F5F8093BB0084E88093BC005C
:100B90008091BC0087FFFCCFFA0184EC222371F026
:100BA000213009F484E88093BC009091BC0097FF49
:100BB000FCCF9091BB0091932150F0CF84E98093BA
:100BC000BC0080E0089594EA24E89093BC008091F2
:100BD000BC0087FFFCCF809100018093BB00209375
:100BE000BC008091BC0087FFFCCF8091B9008831A8
:100BF00061F784EA8093BC008091BC0087FFFCCF42
:100C0000809100018093BB0084E88093BC008091B8
:100C1000BC0087FFFCCF7093BB0084E88093BC00CE
:100C20008091BC0087FFFCCF6093BB0084E8809379
:100C3000BC008091BC0087FFFCCF4093BB0084E8E0
:100C40008093BC008091BC0087FFFCCF84E9809337
:100C5000BC0080E00895260F372F311DFC018081F4
:100C60008150990B862B972B2817390718F09C0178
:100C70002F5F3F4F822F861B24EA34E82093BC006D
:100C80009091BC0097FFFCCF909100019093BB0026
:100C90003093BC009091BC0097FFFCCF9091B900BD
:100CA000983161F794EA9093BC009091BC0097FF53
:100CB000FCCF909100019093BB0094E89093BC000E
:100CC0009091BC0097FFFCCF7093BB0094E8909389
:100CD000BC009091BC0097FFFCCF6093BB0094E8F0
:100CE0009093BC009091BC0097FFFCCFFA01982F25
:100CF00024E8992359F031913093BB002093BC0034
:100D00003091BC0037FFFCCF9150F3CF94E9909322
:100D1000BC000895CF92DF92EF92FF920F931F9342
:100D2000CF936C017B018A01C22F2C2FA801B70140
:100D3000C6010E942B06282F30E0E20EF31EC81BCE
:100D4000020F131FC111F1CF80E0CF911F910F91BE
:100D5000FF90EF90DF90CF900895089562B90895C5
:100D600081E082B98FE19EE40197F1F700C00000B5
:100D700082E082B98FE097E20197F1F700C00000AE
:100D8000089590E080E070E08617970784F442B9F8
:100D9000EFE2F5E73197F1F700C0000012B8EFE19C
:100DA000FEE43197F1F700C000000196EDCF089501
:100DB000CF93DF93CA01E90162B90E945F0412B8C0
:100DC000CE01DF91CF910C945F0408951092C5007D
:100DD0008FEC8093C400E0ECF0E080818083E1EC54
:100DE000F0E0808188618083E2ECF0E080818083A4
:100DF00008950C94E6068091C00085FFFCCF6093B7
:100E0000C60008958091C00087FFFCCF8091C60086
:100E10000895AF92BF92CF92DF92EF92FF920F931D
:100E20001F93CF93DF936C017B01D42FC0E05B0154
:100E300084E6A80EB11CCD1761F08701F80161911D
:100E40008F01C6010E94FB060A151B05B9F7CF5F8B
:100E5000F2CFDF91CF911F910F91FF90EF90DF9034
:100E6000CF90BF90AF900895FF920F931F93CF93B1
:100E7000DF93EC018B01F12C8F2D90E0F8010190B4
:100E80000020E9F73197E01BF10B8E179F0748F41C
:100E9000800F911FFC016081CE010E94FB06F3943C
:100EA000EBCFDF91CF911F910F91FF9008950C949C
:100EB0000207DF92EF92FF920F931F93CF93DF937E
:100EC00000D000D000D01F92CDB7DEB7CE0107967C
:100ED0000E940E05CE0106960E94AD06CE01059633
:100EE0000E949600CE0104960E947504CE010396DE
:100EF0000E94F9068FEF81B98AB984B92FEF4FEFBD
:100F00006FEF0E946E04CE0103960E94E60628EE63
:100F100033E048EE53E062E0CE0106960E94D80628
:100F200028EE33E048EE53E061E0CE0106960E94E1
:100F3000D80628EE33E048EE53E062E0CE01069694
:100F40000E94D80628EE33E048EE53E061E0CE017F
:100F500006960E94D806CE0105960E940A0110E06E
:100F600000E0AE014F5F5F4FB801CE0107960E94CF
:100F70001E058FE097E20197F1F700C0000069813C
:100F8000CE0103960E94FB068FE097E20197F1F7EE
:100F900000C000000E5F1F4F8981813011F7F12CD6
:100FA000E12C89E1D82E02C0FF24FA9489818F3F79
:100FB00009F49FC0AE014F5F5F4FB801CE010796A5
:100FC0000E941E058FE097E20197F1F700C0000034
:100FD0006981CE0103960E94FB06AE014E5F5F4F12
:100FE000B801CE0107960E941E056A81CE010396C4
:100FF0000E94FB068FE097E20197F1F700C0000026
:101000000F5F1F4F89818236D8F4803608F04AC0BE
:10101000843409F43FC048F48230A9F1893031F6B4
:10102000CE0105960E94B700C1CF8534C9F188343E
:1010300009F0BCCF6A81CE0105960E94BC00B6CFF4
:10104000843609F447C098F48236A1F1833609F05A
:10105000ADCF6A8121E0462FCE0104960E9485041F
:101060006A81462FCE0104960E94D10429C0803C9B
:10107000B1F1813CB9F1853609F098CFCE010496E3
:101080000E94DE041DC08A818D9DC00111240E9432
:101090005F048CCF6A81CE0106960E94AE0686CF91
:1010A00060E0F9CF20E040E060E0CE0104960E94CD
:1010B00085047CCF6A81462FCE0104960E94FD04F0
:1010C0009FEF23E284EF915020408040E1F700C081
:1010D00000006CCFCE0104960E94E904F1CFFA80A3
:1010E000E02E64CFFF2009F45FCFFA940E2D10E0BC
:1010F0005DCF20E040E060E0CE0104960E948504D0
:10110000CE0105960E94B70060E0CE0106960E94CF
:10111000AE06CE0103960E94E506CE0107960E9418
:10112000040590E080E027960FB6F894DEBF0FBE6E
:10113000CDBFDF91CF911F910F91FF90EF90DF9086
:1011400008955058BB27AA270E94B9080C942C0A6E
:101150000E941E0A38F00E94250A20F039F49F3FB1
:1011600019F426F40C941B0A0EF4E095E7FB0C949A
:10117000150AE92F0E943D0A58F3BA176207730750
:101180008407950720F079F4A6F50C945F0A0EF415
:10119000E0950B2EBA2FA02D0B01B90190010C0187
:1011A000CA01A0011124FF27591B99F0593F50F49F
:1011B000503E68F11A16F040A22F232F342F4427F7
:1011C000585FF3CF469537952795A795F0405395EF
:1011D000C9F77EF41F16BA0B620B730B840BBAF0BF
:1011E0009150A1F0FF0FBB1F661F771F881FC2F72A
:1011F0000EC0BA0F621F731F841F48F4879577953E
:101200006795B795F7959E3F08F0B0CF9395880FF7
:1012100008F09927EE0F9795879508950E94F10998
:1012200008F481E008950E9427090C942C0A0E947A
:10123000250A58F00E941E0A40F029F45F3F29F069
:101240000C94150A51110C94600A0C941B0A0E940C
:101250003D0A68F39923B1F3552391F3951B550B80
:10126000BB27AA2762177307840738F09F5F5F4F79
:10127000220F331F441FAA1FA9F335D00E2E3AF0B8
:10128000E0E832D091505040E695001CCAF72BD0D0
:10129000FE2F29D0660F771F881FBB1F2617370721
:1012A0004807AB07B0E809F0BB0B802DBF01FF2753
:1012B00093585F4F3AF09E3F510578F00C94150A11
:1012C0000C94600A5F3FE4F3983ED4F386957795DB
:1012D0006795B795F7959F5FC9F7880F911D96950C
:1012E000879597F90895E1E0660F771F881FBB1F68
:1012F000621773078407BA0720F0621B730B840B15
:10130000BA0BEE1F88F7E09508950E94450A88F011
:101310009F5798F0B92F9927B751B0F0E1F0660FB9
:10132000771F881F991F1AF0BA95C9F714C0B130FA
:1013300091F00E945F0AB1E008950C945F0A672F54
:10134000782F8827B85F39F0B93FCCF38695779529
:101350006795B395D9F73EF4909580957095619512
:101360007F4F8F4F9F4F0895E89409C097FB3EF43D
:1013700090958095709561957F4F8F4F9F4F9923E2
:10138000A9F0F92F96E9BB279395F6958795779560
:101390006795B795F111F8CFFAF4BB0F11F460FF20
:1013A0001BC06F5F7F4F8F4F9F4F16C0882311F078
:1013B00096E911C0772321F09EE8872F762F05C08C
:1013C000662371F096E8862F70E060E02AF09A9527
:1013D000660F771F881FDAF7880F9695879597F91C
:1013E0000895990F0008550FAA0BE0E8FEEF1616B6
:1013F0001706E807F907C0F012161306E407F50709
:1014000098F0621B730B840B950B39F40A2661F07C
:10141000232B242B252B21F408950A2609F4A1401F
:10142000A6958FEF811D811D089597F99F6780E82C
:1014300070E060E008959FEF80EC089500240A9426
:101440001616170618060906089500240A9412169F
:101450001306140605060895092E0394000C11F4D2
:10146000882352F0BB0F40F4BF2B11F460FF04C07F
:101470006F5F7F4F8F4F9F4F089557FD9058440FD8
:10148000551F59F05F3F71F04795880F97FB991FE3
:1014900061F09F3F79F087950895121613061406A0
:1014A000551FF2CF4695F1DF08C01616170618062D
:1014B000991FF1CF86957105610508940895E89408
:1014C000BB2766277727CB0197F908950E94F1097A
:1014D00008F48FEF08950E947E0A0C942C0A0E9453
:1014E0001E0A38F00E94250A20F0952311F00C9472
:1014F000150A0C941B0A11240C94600A0E943D0AE0
:1015000070F3959FC1F3950F50E0551F629FF00156
:10151000729FBB27F00DB11D639FAA27F00DB11D6F
:10152000AA1F649F6627B00DA11D661F829F2227F8
:10153000B00DA11D621F739FB00DA11D621F839F7F
:10154000A00D611D221F749F3327A00D611D231F55
:10155000849F600D211D822F762F6A2F11249F57A3
:1015600050409AF0F1F088234AF0EE0FFF1FBB1FA6
:10157000661F771F881F91505040A9F79E3F510565
:1015800080F00C94150A0C94600A5F3FE4F3983ED7
:10159000D4F3869577956795B795F795E7959F5F0F
:1015A000C1F7FE2B880F911D9695879597F90895A1
:1015B000FA01EE0FFF1F309621053105A1F16115EB
:1015C000710561F48038BFE39B0749F16894903856
:1015D000810561F08038BFEF9B0741F099234AF500
:1015E000FF3FE1053105210519F1E8940894E795DD
:1015F000D901AA2329F4AB2FBE2FF85FD0F310C076
:10160000FF5F70F4A695E0F7F73950F019F0FF3A54
:1016100038F49F779F930DD00F9007FC9058089552
:1016200046F00C941B0A60E070E080E89FE30895A8
:101630004FE79F775F934F933F932F930E94D30B76
:101640002F913F914F915F910E946B0A0C94300B48
:1016500029F416F00C94150A0C945F0A0C941B0ADA
:101660000E94450AA8F39638A0F707F80F92E8946D
:101670002BE33AEA48EB5FE70E94810A0F920F9250
:101680000F924DB75EB70F920E941B0CECE7F0E093
:101690000E94620B4F915F91EF91FF91E595EE1FD4
:1016A000FF1F49F0FE57E0684427EE0F441FFA95EC
:1016B000E1F74195550B0E94950B0F9007FE0C9496
:1016C000890B0895DF93CF931F930F93FF92EF92AF
:1016D000DF927B018C01689406C0DA2EEF010E9434
:1016E0007E0AFE01E894A591259135914591559189
:1016F000A6F3EF010E94B908FE019701A801DA9450
:1017000069F7DF90EF90FF900F911F91CF91DF91DC
:1017100008959B01AC0160E070E080E89FE30C94C9
:1017200013090C94150A0C944F0C0E94450AD8F327
:101730009923C9F3940F511DA3F39150504094F095
:1017400059F0882332F0660F771F881F9150504060
:10175000C1F79E3F51052CF7880F911D96958795EF
:1017600097F908955F3FACF0983E9CF0BB278695B3
:1017700077956795B79508F4B1609395C1F7BB0F5E
:1017800058F711F460FFE8CF6F5F7F4F8F4F9F4F87
:10179000E3CF0C94600A16F00C944F0C0C941B0AC7
:1017A00068940C94150A0E94450AA8F39923C1F382
:1017B000AEF3DF93CF931F930F93FF92C92FDD27D3
:1017C00088232AF02197660F771F881FDAF720E019
:1017D00030E040E85FEB9FE3883920F0803E38F04E
:1017E00021968F770E94A208E4EAF0E004C00E94EC
:1017F000A208E1EDF0E00E94620B8B01BE01EC015A
:10180000FB2E6F5771097595771F880B990B0E94F6
:10181000B60928E132E741E35FE30E947E0AAF2D7B
:101820009801AE01FF900F911F91CF91DF910E941F
:10183000B9080C942C0AFA01DC01AA0FBB1F9B010A
:10184000AC01BF5728F4222733274427507820C003
:10185000B75190F4AB2F0024469537952795011C7E
:10186000A395D2F3002071F0220F331F441FB395CC
:10187000DAF30ED00C94A10861307105A0E88A0754
:10188000B94630F49B01AC0166277727882790780A
:10189000309621F0208331834283538308959F3F04
:1018A00031F0915020F4879577956795B795880F1B
:0E18B000911D9695879597F90895F894FFCFAE
:0218BE00A00088
:00000001FF
