:100000000C943E000C945B000C945B000C945B0021
:100010000C945B000C945B000C945B000C945B00F4
:100020000C945B000C945B000C945B000C945B00E4
:100030000C945B000C945B000C945B000C945B00D4
:100040000C945B000C945B000C945B000C945B00C4
:100050000C945B000C945B000C945B000C945B00B4
:100060000C945B000C945B000C945B000C945B00A4
:100070000C945B000C945B000C945B0011241FBE7D
:10008000CFEFD8E0DEBFCDBF11E0A0E0B1E0E4EFFC
:10009000F0E102C005900D92A031B107D9F721E03F
:1000A000A0E1B1E001C01D92A232B207E1F70E94C7
:1000B000AA050C9478080C940000909115019923DE
:1000C00051F080931401809110019091110190934F
:1000D000130180931201089580911501882379F00E
:1000E00080911401882359F08150809314018091EC
:1000F00012019091130190931101809310010895C2
:1001000081E0809315010C94680590911501992365
:1001100079F030E020E090E0281739074CF4EFE464
:10012000F3EC3197F1F700C000002F5F3F4FF4CFA1
:10013000089580911501882321F081E090E00C94CE
:100140008C0508958091150181110C94A6050895E0
:100150008091150181110C941E0408959091150150
:10016000992359F061E08F3F08F460E070E090E07F
:1001700080E00E9413060C943C04089590911501B0
:10018000992369F090E061E07FEF0E944E06072E10
:10019000000C880B990B0E9413060C943C040895E4
:1001A00080911501882341F060910B0170910C0141
:1001B0008AE590E00C940D0508958091150188233F
:1001C00041F06091090170910A018AE590E00C9478
:1001D0000D05089590911501992309F49FC08D5242
:1001E000853208F09BC0E82FF0E0E750FF4F0C94F9
:1001F00062061E012201250128012B012E01310179
:10020000340137013A013D014001430146014901F2
:100210004C014F015201550158015B015E01610122
:10022000640167016A016D01700173017601790152
:100230007C017F018201850188018B018EE890E0BD
:100240000C94790586E890E0FBCF8FE790E0F8CF3B
:1002500087E790E0F5CF81E790E0F2CF8AE690E083
:10026000EFCF84E690E0ECCF8FE590E0E9CF8AE530
:1002700090E0E6CF85E590E0E3CF80E590E0E0CF49
:100280008BE490E0DDCF87E490E0DACF83E490E088
:10029000D7CF8FE390E0D4CF8CE390E0D1CF88E349
:1002A00090E0CECF85E390E0CBCF82E390E0C8CF63
:1002B0008FE290E0C5CF8DE290E0C2CF8AE290E07D
:1002C000BFCF88E290E0BCCF86E290E0B9CF84E275
:1002D00090E0B6CF82E290E0B3CF80E290E0B0CF82
:1002E0008EE190E0ADCF8CE190E0AACF8BE190E081
:1002F000A7CF89E190E0A4CF88E190E0A1CF86E18B
:1003000090E09ECF85E190E09BCF84E190E098CF94
:1003100083E190E095CF82E190E092CF08958091C3
:10032000150181110C948105089580E00E94A200BE
:100330000E94A8000E948F01109215010895982F25
:10034000862F923690F4903650F5993031F128F49A
:100350009130D9F09230D9F008959534D1F0983495
:10036000D1F0943441F50C9499009536F1F028F4CD
:100370009336C9F0B0F00C94D000913CC1F09F3F8F
:10038000C1F0903CC1F40C945D000C9480000C947E
:1003900085000C94A2000C94EA000C948F010C943C
:1003A000A8000C94AE000C94BE000C94DD000C94DC
:1003B0006C000C9495010895089580EA80930001E3
:1003C0001092B90080E28093B800089520E8FC0103
:1003D00020830C94DD01982F9370891305C0880F3A
:1003E000806A8093000108958FEF089594EA24E8CD
:1003F0009093BC008091BC0087FFFCCF80910001EE
:100400008093BB002093BC008091BC0087FFFCCF91
:100410008091B900883161F784EA8093BC008091B3
:10042000BC0087FFFCCF809100018093BB0084E873
:100430008093BC008091BC0087FFFCCF7093BB0011
:1004400084E88093BC008091BC0087FFFCCF609360
:10045000BB0084E88093BC008091BC0087FFFCCF88
:100460008091BC0087FFFCCF84EA8093BC00809120
:10047000BC0087FFFCCF809100018F5F8093BB00A1
:1004800084E88093BC008091BC0087FFFCCF84E8A7
:100490008093BC008091BC0087FFFCCF8091BB00A3
:1004A000FA01808384E98093BC0080E0089594EA97
:1004B00034E89093BC008091BC0087FFFCCF809112
:1004C00000018093BB003093BC008091BC0087FF8B
:1004D000FCCF8091B900883161F784EA8093BC0039
:1004E0008091BC0087FFFCCF809100018093BB000E
:1004F00084E88093BC008091BC0087FFFCCF7093A0
:10050000BB0084E88093BC008091BC0087FFFCCFD7
:100510006093BB0084E88093BC008091BC0087FF9F
:10052000FCCF84EA8093BC008091BC0087FFFCCFA5
:10053000809100018F5F8093BB0084E88093BC00B2
:100540008091BC0087FFFCCFFA0184EC222371F07C
:10055000213009F484E88093BC009091BC0097FF9F
:10056000FCCF9091BB0091932150F0CF84E9809310
:10057000BC0080E0089594EA24E89093BC00809148
:10058000BC0087FFFCCF809100018093BB002093CB
:10059000BC008091BC0087FFFCCF8091B9008831FE
:1005A00061F784EA8093BC008091BC0087FFFCCF98
:1005B000809100018093BB0084E88093BC0080910F
:1005C000BC0087FFFCCF7093BB0084E88093BC0025
:1005D0008091BC0087FFFCCF6093BB0084E88093D0
:1005E000BC008091BC0087FFFCCF4093BB0084E837
:1005F0008093BC008091BC0087FFFCCF84E980938E
:10060000BC0080E00895260F372F311DFC0180814A
:100610008150990B862B972B2817390718F09C01CE
:100620002F5F3F4F822F861B24EA34E82093BC00C3
:100630009091BC0097FFFCCF909100019093BB007C
:100640003093BC009091BC0097FFFCCF9091B90013
:10065000983161F794EA9093BC009091BC0097FFA9
:10066000FCCF909100019093BB0094E89093BC0064
:100670009091BC0097FFFCCF7093BB0094E89093DF
:10068000BC009091BC0097FFFCCF6093BB0094E846
:100690009093BC009091BC0097FFFCCFFA01982F7B
:1006A00024E8992359F031913093BB002093BC008A
:1006B0003091BC0037FFFCCF9150F3CF94E9909379
:1006C000BC000895CF92DF92EF92FF920F931F9399
:1006D000CF936C017B018A01C22F2C2FA801B70197
:1006E000C6010E940303282F30E0E20EF31EC81B50
:1006F000020F131FC111F1CF80E0CF911F910F9115
:10070000FF90EF90DF90CF9008958F929F92AF92DD
:10071000BF92CF92DF92EF92FF920F931F93CF93EE
:10072000DF9320E030E04FE753E4609116017091D1
:10073000170180911801909119010E94E7074B0160
:100740005C01209105013091060140910701509113
:1007500008010E94E7070E945B076B018B01209153
:100760000101309102014091030150910401C50142
:10077000B4010E94E70723EC35EF48E65FE30E94EF
:10078000E7070E945B07EB012BB11BB82BB11BB82D
:10079000D7FE05C05E9A002711270C191D09D7FF47
:1007A00005C05F9ACC27DD27C61BD70B0F3F11056D
:1007B00019F014F00FEF10E0CF3FD10519F014F04D
:1007C000CFEFD0E020E030E0A901609116017091F8
:1007D000170180911801909119010E94E2071816E3
:1007E0008CF4109289001092880010928B00109265
:1007F0008A002FEB8AED90E0215080409040E1F795
:1008000000C000008FEF90E09C01201B310B309363
:100810008900209388008C1B9D0B90938B00809304
:100820008A00DF91CF911F910F91FF90EF90DF90A1
:10083000CF90BF90AF909F908F9008951092160127
:1008400010921701109218011092190180E090E0A7
:10085000A0E8BFE38093010190930201A0930301FC
:10086000B09304018093050190930601A0930701C2
:10087000B09308010C9485036093160170931701DF
:1008800080931801909319010C948503CF92DF9205
:10089000EF92FF92209116013091170140911801BB
:1008A000509119010E947D066B017C0120E030E02F
:1008B00040E85FE30E94E207181674F0C092160148
:1008C000D0921701E0921801F0921901FF90EF9079
:1008D000DF90CF900C94850380E090E0A0E8BFE328
:1008E0008093160190931701A0931801B0931901FA
:1008F000EDCF8F929F92AF92BF92CF92DF92EF9205
:10090000FF92CF93DF936B017C01EA0120E030E09E
:1009100040EA50E40E947C064B015C0120E030E09C
:1009200040EA50E4C701B6010E947D069B01AC017C
:10093000C501B4010E94E9066B017C0180E090E0F2
:10094000A0E8BFE38093050190930601A0930701FF
:10095000B09308018093010190930201A0930301D9
:10096000B0930401C330D10541F5A7019601BC0144
:10097000CD010E947C0620E030E040E85FE30E9469
:100980007D066093010170930201809303019093AF
:100990000401C0920501D0920601E0920701F09295
:1009A0000801DF91CF91FF90EF90DF90CF90BF9043
:1009B000AF909F908F900C948503229791F7A70199
:1009C000960160E070E080E89FE30E947C0620E0F2
:1009D00030E040E85FE30E947D066093050170937C
:1009E00006018093070190930801C0920101D09203
:1009F0000201E0920301F0920401D3CF30E020E045
:100A0000281739074CF4EFECF7E03197F1F700C005
:100A100000002F5F3F4FF4CF0895CF92DF92EF9207
:100A2000FF920F931F93CF93DF93EC018B01C09044
:100A30001601D0901701E0901801F09019010E9462
:100A40001E042FE78FE492E1215080409040E1F7AF
:100A500000C0000080E090E0A0E8BFE380931601B2
:100A600090931701A0931801B0931901A80160E0B9
:100A700070E0CB010E94790425E02C9FC0012D9FDE
:100A8000900D11248C549F4F0E94FE040E941E045E
:100A90002FE78FE492E1215080409040E1F700C0C1
:100AA0000000C0921601D0921701E0921801F09256
:100AB000190141E050E060E070E0CB01DF91CF919F
:100AC0001F910F91FF90EF90DF90CF900C947904DD
:100AD0008AB1806F8AB9E0E8F0E08081816F80831D
:100AE000E1E8F0E0808182608083109282000C94C3
:100AF0001E0494B5926594BD95B5946095BD87BD6F
:100B0000089514BC15BC089594B5926594BD95B52F
:100B1000946095BD88BD08952FEF24B9813091056B
:100B200039F08230910539F0892B21F415B80895F8
:100B300081E085B9089582E0FCCF9FEF94B98823C6
:100B400019F081E085B9089582E0FCCF8FEF84B978
:100B500015B80895CF93DF9300D000D0CDB7DEB79E
:100B60001C821B82CE0102960E94E60182E090E088
:100B70009093110180931001CE0101960E94E6012D
:100B80006091100170911101CB01019690931101B8
:100B900080931001AE014C5F5F4FCE0101960E9421
:100BA000F601CE0101960E94DC018FE097E20197E9
:100BB000F1F700C00000CE0101960E94E6016091AD
:100BC000100170911101CB01019690931101809356
:100BD0001001AE014D5F5F4FCE0101960E94F601FC
:100BE000CE0101960E94DC018FE097E20197F1F7B8
:100BF00000C000006B818C810E949F018C818F3F1F
:100C000009F0BACF0E949501CE0102960E94DC0144
:100C100090E080E00F900F900F900F90DF91CF91B8
:100C20000895E89409C097FB3EF4909580957095DF
:100C300061957F4F8F4F9F4F9923A9F0F92F96E928
:100C4000BB279395F695879577956795B795F1119D
:100C5000F8CFFAF4BB0F11F460FF1BC06F5F7F4F3A
:100C60008F4F9F4F16C0882311F096E911C077234C
:100C700021F09EE8872F762F05C0662371F096E855
:100C8000862F70E060E02AF09A95660F771F881F24
:100C9000DAF7880F9695879597F9089597FB072EB1
:100CA00016F4009407D077FD09D00E94680607FC6F
:100CB00005D03EF4909581959F4F0895709561956C
:100CC0007F4F0895EE0FFF1F0590F491E02D0994DA
:100CD000AA1BBB1B51E107C0AA1FBB1FA617B70762
:100CE00010F0A61BB70B881F991F5A95A9F780957E
:100CF0009095BC01CD0108955058BB27AA270E94AA
:100D000094060C94A8070E949A0738F00E94A10745
:100D100020F039F49F3F19F426F40C9497070EF451
:100D2000E095E7FB0C949107E92F0E94B90758F36F
:100D3000BA17620773078407950720F079F4A6F5C0
:100D40000C94DB070EF4E0950B2EBA2FA02D0B01AF
:100D5000B90190010C01CA01A0011124FF27591B00
:100D600099F0593F50F4503E68F11A16F040A22F06
:100D7000232F342F4427585FF3CF46953795279577
:100D8000A795F0405395C9F77EF41F16BA0B620B76
:100D9000730B840BBAF09150A1F0FF0FBB1F661FBD
:100DA000771F881FC2F70EC0BA0F621F731F841F00
:100DB00048F4879577956795B795F7959E3F08F026
:100DC000B0CF9395880F08F09927EE0F97958795E8
:100DD00008950E94FD060C94A8070E94A10758F0F0
:100DE0000E949A0740F029F45F3F29F00C94910784
:100DF00051110C94DC070C9497070E94B90768F313
:100E00009923B1F3552391F3951B550BBB27AA27C3
:100E100062177307840738F09F5F5F4F220F331FFD
:100E2000441FAA1FA9F335D00E2E3AF0E0E832D0C5
:100E300091505040E695001CCAF72BD0FE2F29D0C8
:100E4000660F771F881FBB1F261737074807AB079A
:100E5000B0E809F0BB0B802DBF01FF2793585F4F0F
:100E60003AF09E3F510578F00C9491070C94DC0702
:100E70005F3FE4F3983ED4F3869577956795B795F1
:100E8000F7959F5FC9F7880F911D9695879597F9FC
:100E90000895E1E0660F771F881FBB1F6217730775
:100EA0008407BA0720F0621B730B840BBA0BEE1F8A
:100EB00088F7E09508950E9462076894B1110C9438
:100EC000DC0708950E94C10788F09F5798F0B92F5A
:100ED0009927B751B0F0E1F0660F771F881F991F6F
:100EE0001AF0BA95C9F714C0B13091F00E94DB072F
:100EF000B1E008950C94DB07672F782F8827B85F3F
:100F000039F0B93FCCF3869577956795B395D9F7C6
:100F10003EF490958095709561957F4F8F4F9F4FD0
:100F2000089597F99F6780E870E060E008959FEF6B
:100F300080EC089500240A94161617061806090670
:100F4000089500240A94121613061406050608953F
:100F5000092E0394000C11F4882352F0BB0F40F4C7
:100F6000BF2B11F460FF04C06F5F7F4F8F4F9F4F07
:100F7000089557FD9058440F551F59F05F3F71F089
:100F80004795880F97FB991F61F09F3F79F08795F0
:100F90000895121613061406551FF2CF4695F1DF79
:100FA00008C0161617061806991FF1CF8695710509
:100FB000610508940895E894BB2766277727CB013D
:100FC00097F908950E94540808F48FEF08950E943D
:100FD000FA070C94A8070E949A0738F00E94A1070C
:100FE00020F0952311F00C9491070C94970711248D
:100FF0000C94DC070E94B90770F3959FC1F3950F1D
:1010000050E0551F629FF001729FBB27F00DB11D8C
:10101000639FAA27F00DB11DAA1F649F6627B00D1C
:10102000A11D661F829F2227B00DA11D621F739F05
:10103000B00DA11D621F839FA00D611D221F749F13
:101040003327A00D611D231F849F600D211D822F5A
:10105000762F6A2F11249F5750409AF0F1F0882381
:101060004AF0EE0FFF1FBB1F661F771F881F9150AE
:101070005040A9F79E3F510580F00C9491070C94C5
:10108000DC075F3FE4F3983ED4F386957795679548
:10109000B795F795E7959F5FC1F7FE2B880F911DD8
:1010A0009695879597F90895990F0008550FAA0B03
:1010B000E0E8FEEF16161706E807F907C0F012166B
:1010C0001306E407F50798F0621B730B840B950B6E
:1010D00039F40A2661F0232B242B252B21F40895C3
:1010E0000A2609F4A140A6958FEF811D811D089560
:0410F000F894FFCFA2
:1010F400A00000803F0000803F03000200010000C8
:00000001FF
