:100000000C9481000C94A9000C94A9000C94A900F4
:100010000C94A9000C94A9000C94A9000C94A900BC
:100020000C94A9000C94A9000C94A9000C94A900AC
:100030000C94A9000C94A9000C94A9000C94A9009C
:100040000C94A9000C94A9000C94A9000C94A9008C
:100050000C94A9000C94A9000C94A9000C94A9007C
:100060000C94A9000C94A9000C94A9000C94A9006C
:100070000C94A9000C94A9000C94A90007634236C3
:10008000B79BD8A71A39685618AEBAAB558C1D3C29
:10009000B7CC5763BD6DEDFD753EF6177231BF00ED
:1000A0000000803F08000000BE922449123EABAA27
:1000B000AA2ABECDCCCC4C3E00000080BEABAAAA82
:1000C000AA3E00000000BF000000803F00000000CA
:1000D00000084178D3BB4387D1133D190E3CC3BD03
:1000E0004282AD2B3E68EC8276BED98FE1A93E4CB0
:1000F00080EFFFBE01C4FF7F3F00000000004B0403
:100100004F0411241FBECFEFD8E0DEBFCDBF11E0FA
:10011000A0E0B1E0E0E5F0E102C005900D92A4306E
:10012000B107D9F721E0A4E0B1E001C01D92A530EC
:10013000B207E1F710E0C0E8D0E004C02197FE016B
:100140000E948704CF37D107C9F70E9419040C9485
:100150001B080C940000EF92FF921F93CF93DF9344
:1001600000D0CDB7DEB77C01FC016081718122E057
:10017000AE014F5F5F4F84E091E00E940802198159
:100180008A811236D0F4103608F03FC01434A1F141
:1001900068F4123031F11930A9F1812F0F900F90CE
:1001A000DF91CF911F91FF90EF900895153439F1B1
:1001B000183499F70E943C01F0CF143669F140F4ED
:1001C000123631F1133649F7682F0E94C003E5CF8C
:1001D000153631F1103C09F7682FC7010E94140150
:1001E000DCCF90E09817C9F2EFE4F3EC3197F1F728
:1001F00000C000009F5FF6CF0E945903CECF0E943F
:100200005D03CBCF0E948801C8CF0E94C503C5CF34
:10021000682F0E94BB03C1CF8AE50E94C903BDCFEE
:100220008AE50E94F103B9CFEF92FF921F93CF931B
:10023000DF93EC01E880E394E39411E0160FF12CD6
:10024000112379F0F982E882CE010E94AB00813C53
:1002500031F088819981029699838883F5CF115076
:10026000EFCFDF91CF911F91FF90EF90089584B56C
:10027000826484BD2A980895CF93DF9300D000D084
:10028000CDB7DEB795B5956095BD8554990B6CE0FB
:1002900070E00E945F04CB01770FAA0BBB0B898330
:1002A0009A83AB83BC83BC01CD010E9430059B01C6
:1002B000AC0160E070E080E090E40E94290620E05C
:1002C00030E04CED53E469837A838B839C836981AE
:1002D0007A818B819C810E94BC059B01AC0160E00E
:1002E00074E284E795E40E948D0469837A838B83AA
:1002F0009C8369817A818B819C810E94FF0461507B
:1003000067BD0F900F900F900F90DF91CF910895E0
:1003100085B58A7F85BD0895089580EA809302019E
:100320001092B90080E28093B8000895FC0180E843
:100330008083CF010C948D01982F9370891305C091
:10034000880F806A8093020108958FEF0895FA0163
:1003500094EA24E89093BC008091BC0087FFFCCF16
:10036000809102018093BB002093BC008091BC006F
:1003700087FFFCCF8091B900883161F784EA8093D0
:10038000BC008091BC0087FFFCCF8091020180936C
:10039000BB0084E88093BC008091BC0087FFFCCF49
:1003A0007093BB0084E88093BC008091BC0087FF01
:1003B000FCCF6093BB0084E88093BC008091BC00BC
:1003C00087FFFCCF8091BC0087FFFCCF84EA80933D
:1003D000BC008091BC0087FFFCCF809102018F5F41
:1003E0008093BB0084E88093BC008091BC0087FFB1
:1003F000FCCF84E88093BC008091BC0087FFFCCFD9
:100400008091BB00808384E98093BC0080E00895E4
:1004100094EA34E89093BC008091BC0087FFFCCF45
:10042000809102018093BB003093BC008091BC009E
:1004300087FFFCCF8091B900883161F784EA80930F
:10044000BC008091BC0087FFFCCF809102018093AB
:10045000BB0084E88093BC008091BC0087FFFCCF88
:100460007093BB0084E88093BC008091BC0087FF40
:10047000FCCF6093BB0084E88093BC008091BC00FB
:1004800087FFFCCF84EA8093BC008091BC0087FF8B
:10049000FCCF809102018F5F8093BB0084E8809342
:1004A000BC008091BC0087FFFCCF84EC222381F04C
:1004B000213009F484E88093BC009091BC0097FF40
:1004C000FCCFFA019091BB0091932150AF01EECF88
:1004D00084E98093BC0080E0089594EA24E8909336
:1004E000BC008091BC0087FFFCCF8091020180930B
:1004F000BB002093BC008091BC0087FFFCCF8091A3
:10050000B900883161F784EA8093BC008091BC0017
:1005100087FFFCCF809102018093BB0084E8809329
:10052000BC008091BC0087FFFCCF7093BB0084E8C7
:100530008093BC008091BC0087FFFCCF6093BB0020
:1005400084E88093BC008091BC0087FFFCCF40937F
:10055000BB0084E88093BC008091BC0087FFFCCF87
:1005600084E98093BC0080E00895FB01260F372FBB
:10057000311DDC018C918150990B862B9F2B281704
:10058000390718F09C012F5F3F4F822F8E1B24EA02
:1005900034E82093BC009091BC0097FFFCCF909171
:1005A00002019093BB003093BC009091BC0097FF78
:1005B000FCCF9091B900983161F794EA9093BC0018
:1005C0009091BC0097FFFCCF909102019093BB00EB
:1005D00094E89093BC009091BC0097FFFCCFF093FF
:1005E000BB0094E89093BC009091BC0097FFFCCFB7
:1005F000E093BB0094E89093BC009091BC0097FFFF
:10060000FCCF982F24E8992369F0FA0131913093B7
:10061000BB002093BC003091BC0037FFFCCF915051
:10062000AF01F1CF94E99093BC000895DF92EF926F
:10063000FF920F931F93CF93DF93D82ED92F7B0177
:100640008A01C22F2C2FA801B7018D2D9D2F0E944A
:10065000B502282F30E0E20EF31EC81B020F131F55
:10066000C111F0CF80E0DF91CF911F910F91FF90EA
:10067000EF90DF900895823049F020F4811105C099
:1006800015B80895833021F0089581E085B9089563
:1006900081E085B98FE19EE40197F1F700C0000089
:1006A00082E085B98FE19EE40197F1F700C0000078
:1006B000089592B1982B92B9089592B180958923AB
:1006C00082B908959C0190E080E08217930741F081
:1006D000EFECF7E03197F1F700C000000196F5CF9D
:1006E0000895282F3FEF639FC0011124E4E6F0E056
:1006F000BF010E945F047093890060938800239F6C
:10070000C0011124BF010E945F0470938B006093AD
:100710008A0081EA8093800082E0809381001092B9
:10072000820008958233F1F0B0F48823F1F089312A
:1007300011F428EE33E0862F880F816085B9C90156
:100740000197F1F7660F65B980EA9FE0821B930B72
:100750000197F1F708958B3459F0843661F720EA58
:100760003FE0E9CF20ED37E0E6CF30E020E0E3CF17
:1007700028EB3BE0E0CF9BB19F739BB90C947103D6
:100780009BB1906C9BB90C94710360E080E00C9479
:100790007103CF93C82F60E08FEF0E94BB038FE4FB
:1007A00093EC0197F1F700C0000060E088EC0E9434
:1007B000BB038C2F6AE50E94530428EB36E0482FD8
:1007C000429FC001439F900D11240E9462030E942A
:1007D000C5038FE493EC0197F1F700C00000CF91BF
:1007E0000895CF93C82F6FEF80E00E94BB038FE482
:1007F00093EC0197F1F700C0000068EC80E00E94E4
:10080000BB038C2F6AE50E9453042EE036E0482F8C
:10081000429FC001439F900D11240E9462030E94D9
:10082000C5038FE493EC0197F1F700C00000CF916E
:10083000089500D000D0CDB7DEB78FEF84B981B96D
:100840008AB90E94370182E090E09C838B836B81A0
:100850007C8122E0AE014F5F5F4F84E091E00E9417
:1008600008028B819C8102969C838B8389818130D5
:1008700071F78B819C8102969C838B83CE010396BA
:100880000E94AB008F3FA9F790E080E00F900F909F
:100890000F900F90089584E091E00C94960184E00D
:1008A00091E00C948C01991B79E004C0991F961774
:1008B00008F0961B881F7A95C9F78095089597FBD5
:1008C000072E16F4009407D077FD09D00E94730418
:1008D00007FC05D03EF4909581959F4F0895709543
:1008E00061957F4F0895AA1BBB1B51E107C0AA1F4A
:1008F000BB1FA617B70710F0A61BB70B881F991FC1
:100900005A95A9F780959095BC01CD010895EE0FF9
:10091000FF1F0590F491E02D09940E94A1040C940E
:1009200082050E947B0558F00E94740540F029F46E
:100930005F3F29F00C946B0551110C94B6050C9493
:1009400071050E94930568F39923B1F3552391F340
:10095000951B550BBB27AA2762177307840738F02E
:100960009F5F5F4F220F331F441FAA1FA9F335D08B
:100970000E2E3AF0E0E832D091505040E695001C3F
:10098000CAF72BD0FE2F29D0660F771F881FBB1FF9
:10099000261737074807AB07B0E809F0BB0B802DD7
:1009A000BF01FF2793585F4F3AF09E3F510578F003
:1009B0000C946B050C94B6055F3FE4F3983ED4F3BA
:1009C000869577956795B795F7959F5FC9F7880FD7
:1009D000911D9695879597F90895E1E0660F771F29
:1009E000881FBB1F621773078407BA0720F0621BBA
:1009F000730B840BBA0BEE1F88F7E09508950E94E5
:100A00009B0588F09F5798F0B92F9927B751B0F000
:100A1000E1F0660F771F881F991F1AF0BA95C9F782
:100A200014C0B13091F00E94B505B1E008950C9466
:100A3000B505672F782F8827B85F39F0B93FCCF319
:100A4000869577956795B395D9F73EF490958095FF
:100A5000709561957F4F8F4F9F4F0895E89409C01F
:100A600097FB3EF490958095709561957F4F8F4FE1
:100A70009F4F9923A9F0F92F96E9BB279395F695F7
:100A8000879577956795B795F111F8CFFAF4BB0F75
:100A900011F460FF1BC06F5F7F4F8F4F9F4F16C0D9
:100AA000882311F096E911C0772321F09EE8872F63
:100AB000762F05C0662371F096E8862F70E060E01F
:100AC0002AF09A95660F771F881FDAF7880F969598
:100AD000879597F9089597F99F6780E870E060E03F
:100AE00008959FEF80EC089500240A9416161706C7
:100AF00018060906089500240A941216130614060F
:100B000005060895092E0394000C11F4882352F071
:100B1000BB0F40F4BF2B11F460FF04C06F5F7F4F29
:100B20008F4F9F4F089557FD9058440F551F59F010
:100B30005F3F71F04795880F97FB991F61F09F3FCA
:100B400079F087950895121613061406551FF2CFF3
:100B50004695F1DF08C0161617061806991FF1CF43
:100B600086957105610508940895E894BB2766276A
:100B70007727CB0197F908950E94CF050C94820541
:100B80000E94740538F00E947B0520F0952311F037
:100B90000C946B050C94710511240C94B6050E94FD
:100BA000930570F3959FC1F3950F50E0551F629F19
:100BB000F001729FBB27F00DB11D639FAA27F00DB6
:100BC000B11DAA1F649F6627B00DA11D661F829FDD
:100BD0002227B00DA11D621F739FB00DA11D621FC2
:100BE000839FA00D611D221F749F3327A00D611DDF
:100BF000231F849F600D211D822F762F6A2F1124C1
:100C00009F5750409AF0F1F088234AF0EE0FFF1FF3
:100C1000BB1F661F771F881F91505040A9F79E3F4A
:100C2000510580F00C946B050C94B6055F3FE4F31E
:100C3000983ED4F3869577956795B795F795E795A0
:100C40009F5FC1F7FE2B880F911D9695879597F9A9
:100C50000895FA01EE0FFF1F309621053105A1F12D
:100C60006115710561F48038BFE39B0749F1689411
:100C70009038810561F08038BFEF9B0741F09923E0
:100C80004AF5FF3FE1053105210519F1E894089483
:100C9000E795D901AA2329F4AB2FBE2FF85FD0F333
:100CA00010C0FF5F70F4A695E0F7F73950F019F027
:100CB000FF3A38F49F779F930DD00F9007FC905820
:100CC000089546F00C94710560E070E080E89FE3C1
:100CD00008954FE79F775F934F933F932F930E9421
:100CE00024072F913F914F915F910E94BC050C9476
:100CF000810629F416F00C946B050C94B5050C9440
:100D000071050E949B05A8F39638A0F707F80F928B
:100D1000E8942BE33AEA48EB5FE70E94D2050F9292
:100D20000F920F924DB75EB70F920E946C07ECE7DF
:100D3000F0E00E94B3064F915F91EF91FF91E5952E
:100D4000EE1FFF1F49F0FE57E0684427EE0F441FD7
:100D5000FA95E1F74195550B0E94E6060F9007FEC4
:100D60000C94DA060895DF93CF931F930F93FF92AD
:100D7000EF92DF927B018C01689406C0DA2EEF01BE
:100D80000E94CF05FE01E894A591259135914591EA
:100D90005591A6F3EF010E94B807FE019701A80143
:100DA000DA9469F7DF90EF90FF900F911F91CF9148
:100DB000DF9108959B01AC0160E070E080E89FE363
:100DC0000C948D040C946B050C940D080E949B05EB
:100DD000D8F39923C9F3940F511DA3F391505040B8
:100DE00094F059F0882332F0660F771F881F9150D6
:100DF0005040C1F79E3F51052CF7880F911D9695E5
:100E0000879597F908955F3FACF0983E9CF0BB271B
:100E1000869577956795B79508F4B1609395C1F776
:100E2000BB0F58F711F460FFE8CF6F5F7F4F8F4F14
:100E30009F4FE3CF0C94B60516F00C940D080C945C
:100E4000710568940C946B050E949B05A8F3992387
:100E5000C1F3AEF3DF93CF931F930F93FF92C92F8C
:100E6000DD2788232AF02197660F771F881FDAF77E
:100E700020E030E040E85FEB9FE3883920F0803EDF
:100E800038F021968F770E94A107E4EAF0E004C0D1
:100E90000E94A107E1EDF0E00E94B3068B01BE01C4
:100EA000EC01FB2E6F5771097595771F880B990B15
:100EB0000E94300528E132E741E35FE30E94CF055D
:100EC000AF2D9801AE01FF900F911F91CF91DF914F
:100ED0000E94B8070C948205FA01DC01AA0FBB1F1F
:100EE0009B01AC01BF5728F42227332744275078B1
:100EF00020C0B75190F4AB2F002446953795279525
:100F0000011CA395D2F3002071F0220F331F441F60
:100F1000B395DAF30ED00C94A00761307105A0E808
:100F20008A07B94630F49B01AC01662777278827EA
:100F30009078309621F02083318342835383089543
:100F40005058BB27AA270E94B8070C9482050E941C
:100F5000740538F00E947B0520F039F49F3F19F4A6
:100F600026F40C9471050EF4E095E7FB0C946B05E8
:100F7000E92F0E94930558F3BA1762077307840795
:100F8000950720F079F4A6F50C94B5050EF4E095DC
:100F90000B2EBA2FA02D0B01B90190010C01CA0133
:100FA000A0011124FF27591B99F0593F50F4503EDE
:100FB00068F11A16F040A22F232F342F4427585FD0
:100FC000F3CF469537952795A795F0405395C9F7E8
:100FD0007EF41F16BA0B620B730B840BBAF09150A0
:100FE000A1F0FF0FBB1F661F771F881FC2F70EC03F
:100FF000BA0F621F731F841F48F487957795679512
:10100000B795F7959E3F08F0B0CF9395880F08F0FD
:101010009927EE0F9795879508959F3F31F091504E
:1010200020F4879577956795B795880F911D9695CC
:10103000879597F9089510E0C0E8D0E004C0FE015C
:101040000E9487042196C138D107C9F7F894FFCFD1
:041050000200A000FA
:00000001FF
