:100000000C943E000C945B000C945B000C945B0021
:100010000C945B000C945B000C945B000C945B00F4
:100020000C945B000C945B000C945B000C945B00E4
:100030000C945B000C945B000C945B000C945B00D4
:100040000C945B000C945B000C945B000C945B00C4
:100050000C945B000C945B000C945B000C945B00B4
:100060000C945B000C945B000C945B000C945B00A4
:100070000C945B000C945B000C945B0011241FBE7D
:10008000CFEFD8E0DEBFCDBF11E0A0E0B1E0EAE500
:10009000FDE002C005900D92A031B107D9F721E033
:1000A000A0E1B1E001C01D92AC31B207E1F70E94BE
:1000B00047040C94AB060C940000089580EA8093EA
:1000C00000011092B90080E28093B800089520E802
:1000D000FC0120830C945E00982F9370891305C057
:1000E000880F806A8093000108958FEF089594EA45
:1000F00024E89093BC008091BC0087FFFCCF8091E6
:1001000000018093BB002093BC008091BC0087FF5E
:10011000FCCF8091B900883161F784EA8093BC00FC
:100120008091BC0087FFFCCF809100018093BB00D1
:1001300084E88093BC008091BC0087FFFCCF709363
:10014000BB0084E88093BC008091BC0087FFFCCF9B
:100150006093BB0084E88093BC008091BC0087FF63
:10016000FCCF8091BC0087FFFCCF84EA8093BC0069
:100170008091BC0087FFFCCF809100018F5F80934E
:10018000BB0084E88093BC008091BC0087FFFCCF5B
:1001900084E88093BC008091BC0087FFFCCF8091F5
:1001A000BB00FA01808384E98093BC0080E008955D
:1001B00094EA34E89093BC008091BC0087FFFCCFA8
:1001C000809100018093BB003093BC008091BC0003
:1001D00087FFFCCF8091B900883161F784EA809372
:1001E000BC008091BC0087FFFCCF80910001809310
:1001F000BB0084E88093BC008091BC0087FFFCCFEB
:100200007093BB0084E88093BC008091BC0087FFA2
:10021000FCCF6093BB0084E88093BC008091BC005D
:1002200087FFFCCF84EA8093BC008091BC0087FFED
:10023000FCCF809100018F5F8093BB0084E88093A6
:10024000BC008091BC0087FFFCCFFA0184EC222324
:1002500071F0213009F484E88093BC009091BC00D7
:1002600097FFFCCF9091BB0091932150F0CF84E990
:100270008093BC0080E0089594EA24E89093BC0049
:100280008091BC0087FFFCCF809100018093BB0070
:100290002093BC008091BC0087FFFCCF8091B90007
:1002A000883161F784EA8093BC008091BC0087FFAD
:1002B000FCCF809100018093BB0084E88093BC0058
:1002C0008091BC0087FFFCCF7093BB0084E88093D3
:1002D000BC008091BC0087FFFCCF6093BB0084E82A
:1002E0008093BC008091BC0087FFFCCF4093BB0093
:1002F00084E88093BC008091BC0087FFFCCF84E938
:100300008093BC0080E00895260F372F311DFC013B
:1003100080818150990B862B972B2817390718F06D
:100320009C012F5F3F4F822F861B24EA34E82093E5
:10033000BC009091BC0097FFFCCF9091000190937E
:10034000BB003093BC009091BC0097FFFCCF909114
:10035000B900983161F794EA9093BC009091BC0089
:1003600097FFFCCF909100019093BB0094E890938D
:10037000BC009091BC0097FFFCCF7093BB0094E849
:100380009093BC009091BC0097FFFCCF6093BB00A2
:1003900094E89093BC009091BC0097FFFCCFFA01C9
:1003A000982F24E8992359F031913093BB00209382
:1003B000BC003091BC0037FFFCCF9150F3CF94E9E3
:1003C0009093BC000895CF92DF92EF92FF920F932B
:1003D0001F93CF936C017B018A01C22F2C2FA801A0
:1003E000B701C6010E948401282F30E0E20EF31EFF
:1003F000C81B020F131FC111F1CF80E0CF911F91D5
:100400000F91FF90EF90DF90CF9008958F929F9281
:10041000AF92BF92CF92DF92EF92FF920F931F9312
:10042000CF93DF9320E030E04FE753E46091100179
:100430007091110180911201909113010E941A068E
:100440004B015C01209105013091060140910701AB
:10045000509108010E941A060E948E056B018B01C3
:10046000209101013091020140910301509104015A
:10047000C501B4010E941A0623EC35EF48E65FE39C
:100480000E941A060E948E05EB012BB11BB82BB1FE
:100490001BB8D7FE05C05E9A002711270C191D094D
:1004A000D7FF05C05F9ACC27DD27C61BD70B0F3FB0
:1004B000110519F014F00FEF10E0CF3FD10519F03E
:1004C00014F0CFEFD0E020E030E0A90160911001FE
:1004D0007091110180911201909113010E941506F3
:1004E00018168CF4109289001092880010928B00DC
:1004F00010928A002FEB8AED90E0215080409040CE
:10050000E1F700C000008FEF90E09C01201B310B51
:1005100030938900209388008C1B9D0B90938B0057
:1005200080938A00DF91CF911F910F91FF90EF9000
:10053000DF90CF90BF90AF909F908F9008951092D2
:10054000100110921101109212011092130180E01B
:1005500090E0A0E8BFE38093010190930201A09393
:100560000301B09304018093050190930601A093C9
:100570000701B09308010C94060260931001709378
:10058000110180931201909313010C940602CF92F3
:10059000DF92EF92FF922091100130911101409172
:1005A0001201509113010E94B0046B017C0120E004
:1005B00030E040E85FE30E941506181674F0C09220
:1005C0001001D0921101E0921201F0921301FF90FC
:1005D000EF90DF90CF900C94060280E090E0A0E8CE
:1005E000BFE38093100190931101A0931201B09387
:1005F0001301EDCF8F929F92AF92BF92CF92DF9275
:10060000EF92FF92CF93DF936B017C01EA0120E030
:1006100030E040EA50E40E94AF044B015C0120E06E
:1006200030E040EA50E4C701B6010E94B0049B01EB
:10063000AC01C501B4010E941C056B017C0180E086
:1006400090E0A0E8BFE38093050190930601A0939A
:100650000701B09308018093010190930201A093D8
:100660000301B0930401C330D10541F5A701960100
:10067000BC01CD010E94AF0420E030E040E85FE320
:100680000E94B00460930101709302018093030102
:1006900090930401C0920501D0920601E0920701F7
:1006A000F0920801DF91CF91FF90EF90DF90CF9013
:1006B000BF90AF909F908F900C940602229791F775
:1006C000A701960160E070E080E89FE30E94AF041C
:1006D00020E030E040E85FE30E94B0046093050151
:1006E000709306018093070190930801C092010165
:1006F000D0920201E0920301F0920401D3CF30E0E6
:1007000020E0281739074CF4EFECF7E03197F1F7C8
:1007100000C000002F5F3F4FF4CF0895CF92DF92CB
:10072000EF92FF920F931F93CF93DF93EC018B0116
:10073000C0901001D0901101E0901201F0901301CF
:100740000E949F022FE78FE492E121508040904069
:10075000E1F700C0000080E090E0A0E8BFE38093F4
:10076000100190931101A0931201B0931301A801FD
:1007700060E070E0CB010E94FA0225E02C9FC001EE
:100780002D9F900D11248C549F4F0E947F030E9437
:100790009F022FE78FE492E1215080409040E1F7E3
:1007A00000C00000C0921001D0921101E09212012D
:1007B000F092130141E050E060E070E0CB01DF9186
:1007C000CF911F910F91FF90EF90DF90CF900C94FD
:1007D000FA028AB1806F8AB9E0E8F0E08081816F27
:1007E0008083E1E8F0E08081826080831092820063
:1007F0000C949F0294B5926594BD95B5946095BD97
:1008000087BD089514BC15BC089594B5926594BD38
:1008100095B5946095BD88BD08952FEF24B98130BA
:10082000910539F08230910539F0892B21F415B802
:10083000089581E085B9089582E0FCCF9FEF94B9D7
:10084000882319F081E085B9089582E0FCCF8FEF0D
:1008500084B915B808951092C5008FEC8093C40038
:100860001092C00088E18093C1008EE08093C200A6
:1008700008958091C00087FFFCCF8091C600089545
:100880009091C00095FFFCCF8093C6000895EF9231
:10089000FF920F931F93CF93DF931F92CDB7DEB7D5
:1008A000CE0101960E9467000E942B0410E000E038
:1008B0000E943904F82E482FB801CE0101960E94FB
:1008C0003C010F5F1F4F2FEFF212F2CF00FFF0CF6E
:1008D00010E000E0F12CE12CA701B801CE01019657
:1008E0000E9477000F5F1F4FF701F0808F2D0E944D
:1008F0004004FFEFFF12EECF00FFECCF05E010E069
:1009000082E090E00E940D042FEF80E792E02150FA
:1009100080409040E1F700C0000081E090E00E943C
:100920000D04EFEFF0E722E0E150F0402040E1F766
:1009300000C000000150110919F790E080E00E940A
:100940000D04CE0101960E945D0090E080E00F90C2
:10095000DF91CF911F910F91FF90EF900895505824
:10096000BB27AA270E94C7040C94DB050E94CD0573
:1009700038F00E94D40520F039F49F3F19F426F492
:100980000C94CA050EF4E095E7FB0C94C405E92F1E
:100990000E94EC0558F3BA1762077307840795079E
:1009A00020F079F4A6F50C940E060EF4E0950B2ECB
:1009B000BA2FA02D0B01B90190010C01CA01A001B1
:1009C0001124FF27591B99F0593F50F4503E68F10C
:1009D0001A16F040A22F232F342F4427585FF3CF4D
:1009E000469537952795A795F0405395C9F77EF41E
:1009F0001F16BA0B620B730B840BBAF09150A1F067
:100A0000FF0FBB1F661F771F881FC2F70EC0BA0FEC
:100A1000621F731F841F48F4879577956795B79574
:100A2000F7959E3F08F0B0CF9395880F08F099276F
:100A3000EE0F9795879508950E9430050C94DB057D
:100A40000E94D40558F00E94CD0540F029F45F3F84
:100A500029F00C94C40551110C940F060C94CA058E
:100A60000E94EC0568F39923B1F3552391F3951B8C
:100A7000550BBB27AA2762177307840738F09F5FBF
:100A80005F4F220F331F441FAA1FA9F335D00E2E2C
:100A90003AF0E0E832D091505040E695001CCAF799
:100AA0002BD0FE2F29D0660F771F881FBB1F26175C
:100AB00037074807AB07B0E809F0BB0B802DBF0133
:100AC000FF2793585F4F3AF09E3F510578F00C9402
:100AD000C4050C940F065F3FE4F3983ED4F386956B
:100AE00077956795B795F7959F5FC9F7880F911D23
:100AF0009695879597F90895E1E0660F771F881F0F
:100B0000BB1F621773078407BA0720F0621B730BC1
:100B1000840BBA0BEE1F88F7E09508950E949505A7
:100B20006894B1110C940F0608950E94F40588F0A2
:100B30009F5798F0B92F9927B751B0F0E1F0660FA1
:100B4000771F881F991F1AF0BA95C9F714C0B130E2
:100B500091F00E940E06B1E008950C940E06672FE6
:100B6000782F8827B85F39F0B93FCCF38695779511
:100B70006795B395D9F73EF49095809570956195FA
:100B80007F4F8F4F9F4F089597F99F6780E870E0E0
:100B900060E008959FEF80EC089500240A941616F3
:100BA000170618060906089500240A94121613065B
:100BB000140605060895092E0394000C11F48823E9
:100BC00052F0BB0F40F4BF2B11F460FF04C06F5F05
:100BD0007F4F8F4F9F4F089557FD9058440F551FDB
:100BE00059F05F3F71F04795880F97FB991F61F0AF
:100BF0009F3F79F087950895121613061406551F26
:100C0000F2CF4695F1DF08C0161617061806991F91
:100C1000F1CF86957105610508940895E894BB2786
:100C200066277727CB0197F908950E94870608F475
:100C30008FEF08950E942D060C94DB050E94CD05D0
:100C400038F00E94D40520F0952311F00C94C405CF
:100C50000C94CA0511240C940F060E94EC0570F345
:100C6000959FC1F3950F50E0551F629FF001729F51
:100C7000BB27F00DB11D639FAA27F00DB11DAA1F60
:100C8000649F6627B00DA11D661F829F2227B00DAD
:100C9000A11D621F739FB00DA11D621F839FA00D38
:100CA000611D221F749F3327A00D611D231F849F88
:100CB000600D211D822F762F6A2F11249F575040DF
:100CC0009AF0F1F088234AF0EE0FFF1FBB1F661F5A
:100CD000771F881F91505040A9F79E3F510580F023
:100CE0000C94C4050C940F065F3FE4F3983ED4F3D4
:100CF000869577956795B795F795E7959F5FC1F7C7
:100D0000FE2B880F911D9695879597F90895990F59
:100D10000008550FAA0BE0E8FEEF16161706E807C5
:100D2000F907C0F012161306E407F50798F0621BE6
:100D3000730B840B950B39F40A2661F0232B242BBB
:100D4000252B21F408950A2609F4A140A6958FEFDA
:0A0D5000811D811D0895F894FFCF66
:100D5A00A00000803F0000803F0300020001000065
:00000001FF
