:100000000C943E000C9453000C9453000C94530039
:100010000C9453000C9453000C9453000C94530014
:100020000C9453000C9453000C9453000C94530004
:100030000C9453000C9453000C9453000C945300F4
:100040000C9453000C9453000C9453000C945300E4
:100050000C9453000C9453000C9453000C945300D4
:100060000C9453000C9453000C9453000C945300C4
:100070000C9453000C9453000C94530011241FBE95
:10008000CFEFD8E0DEBFCDBF11E0A0E0B1E0E2E508
:10009000F4E002C005900D92A830B107D9F70E9494
:1000A00075010C9427020C94000062B90895CF9357
:1000B000DF93EC018B8182B965E070E0CE010E9494
:1000C0005D018A8182B965E070E0CE01DF91CF9158
:1000D0000C945D01CF92DF92FF920F931F93CF9309
:1000E000DF93EC01F42E10E000E0C62ED12C0C15AD
:1000F0001D0584F4F2B868EE73E0CE010E945D0144
:100100008C8182B968EE73E0CE010E945D010F5FC1
:100110001F4FEDCFDF91CF911F910F91FF90DF9097
:10012000CF9008958AB1806F8AB90895CF92DF92F7
:10013000EF92FF920F931F93CF93DF9300D000D0E5
:1001400000D0CDB7DEB76A017B012E833D8381EA03
:100150008093800020E030E04FE753E4C982DA82E8
:100160006B83FC8269817A818B819C810E94FE0174
:10017000181634F4C12CD12C8FE7E82E93E4F92E15
:1001800020E030E04FE753E409831A838E818B83AC
:100190008D818C8369817A818B819C810E94FE0193
:1001A000181634F400E010E08FE78E8383E48D832B
:1001B000C982DA82EB82FC8269817A818B819C819F
:1001C0000E94A601462F572F509389004093880024
:1001D00009831A838E818B838D818C8369817A81D7
:1001E0008B819C810E94A601462F572F50938B0034
:1001F00040938A0080918100826080938100809387
:10020000810026960FB6F894DEBF0FBECDBFDF91FA
:10021000CF911F910F91FF90EF90DF90CF900895B5
:100220000F931F9300E010E09801B901A8010E940C
:1002300096001F910F9108950F931F93FC01B42F07
:10024000A52FCB01522F2BB11BB8252F4B2F5A2F87
:10025000BC01CF010E9496001F910F9108950F934A
:100260001F93FC01B42FA52FCB01522F2BB1206F70
:100270002BB9252F4B2F5A2FBC01CF010E9496007E
:100280001F910F9108950F931F932BB12F6A2BB9D4
:100290008A019B0140E050E0BA010E9496001F9144
:1002A0000F9108950F931F935F9A00E010E098015B
:1002B0000E9496001F910F9108959B0190E080E0AD
:1002C0008217930741F0EFECF7E03197F1F700C0A8
:1002D00000000196F5CF08950F93F89461B944B9E1
:1002E00027B90AB978940F910895CDB7DEB72F9743
:1002F0000FB6F894DEBF0FBECDBF87E0E0E0F1E0BF
:10030000DE01199601900D928A95E1F78FEF8AB977
:1003100011B887B984B961E0CE0109960E945500F1
:100320002FEF8DE399E4215080409040E1F700C029
:10033000000000E010E02AEF32E440E050E06CED15
:1003400072E4CE0101960E941C01EACF0E94DD01F9
:1003500088F09F5798F0B92F9927B751B0F0E1F086
:10036000660F771F881F991F1AF0BA95C9F714C036
:10037000B13091F00E94F701B1E008950C94F701BB
:10038000672F782F8827B85F39F0B93FCCF386956F
:1003900077956795B395D9F73EF4909580957095CC
:1003A00061957F4F8F4F9F4F089557FD9058440F91
:1003B000551F59F05F3F71F04795880F97FB991FC4
:1003C00061F09F3F79F08795089512161306140681
:1003D000551FF2CF4695F1DF08C01616170618060E
:1003E000991FF1CF86957105610508940895E894E9
:1003F000BB2766277727CB0197F908950E94030250
:1004000008F48FEF0895990F0008550FAA0BE0E844
:10041000FEEF16161706E807F907C0F012161306C6
:10042000E407F50798F0621B730B840B950B39F406
:100430000A2661F0232B242B252B21F408950A266C
:1004400009F4A140A6958FEF811D811D0895F894B0
:02045000FFCFDC
:0804520000FF020100FF0000A1
:00000001FF
