:100000000C947F000C9494000C9494000C94940035
:100010000C9494000C9494000C9494000C94940010
:100020000C9494000C9494000C9494000C94940000
:100030000C9494000C9494000C9494000C949400F0
:100040000C9494000C9494000C9494000C949400E0
:100050000C9494000C9494000C9494000C949400D0
:100060000C9494000C9494000C9494000C949400C0
:100070000C9494000C9494000C9494000763423602
:10008000B79BD8A71A39685618AEBAAB558C1D3C29
:10009000B7CC5763BD6DEDFD753EF6177231BF00ED
:1000A0000000803F08000000BE922449123EABAA27
:1000B000AA2ABECDCCCC4C3E00000080BEABAAAA82
:1000C000AA3E00000000BF000000803F00000000CA
:1000D00000084178D3BB4387D1133D190E3CC3BD03
:1000E0004282AD2B3E68EC8276BED98FE1A93E4CB0
:1000F00080EFFFBE01C4FF7F3F000000000011241D
:100100001FBECFEFD8E0DEBFCDBF11E0A0E0B1E071
:10011000E0EBF9E102C005900D92A230B107D9F7EA
:100120000E940E080C94D60C0C9400000895CF93F6
:10013000DF9300D000D0CDB7DEB7942F852F229A61
:10014000242F352FAB0199838A836B837C8369814C
:100150007A818B819C810E94490920E030E040E84F
:1001600053E469837A838B839C8369817A818B8151
:100170009C810E94E40A9B01AC0160E074E284EF80
:100180009AE40E94B50969837A838B839C83698191
:100190007A818B819C810E94270A67BD84B5826425
:1001A00084BD85B5846085BD16BC0F900F900F90FF
:1001B0000F90DF91CF910895CF93DF9300D000D0BF
:1001C00000D0CDB7DEB78E839D83862F90E0B0E060
:1001D000A0E089839A83AB83BC83BC01CD010E94DC
:1001E000580A20E030E04AE852E469837A838B833E
:1001F0009C8369817A818B819C810E94480920E0DF
:1002000030E040E451E469837A838B839C83698185
:100210007A818B819C810E94B5099B01AC0160E0D1
:1002200070E080E090E40E94510B20E030E04CED63
:1002300053E469837A838B839C8369817A818B8180
:100240009C810E94E40A462F572FBC018E819D811C
:1002500026960FB6F894DEBF0FBECDBFDF91CF91CB
:100260000C94970017BC14BC15BC16BC089523ED64
:10027000260F253210F40C94DC000895CF93DF9301
:10028000D82FC92F6CE40E94DC008DE790E00E941B
:10029000B9046AE48D2F9C2F0E94DC008DE790E06A
:1002A0000E94B90462E48D2F9C2F0E94DC008AEF2B
:1002B00090E00E94B90464E48D2F9C2F0E94DC0022
:1002C0008AEF90E00E94B90469E48D2F9C2F0E9470
:1002D000DC008DE790E00E94B90467E48D2F9C2F2D
:1002E0000E94DC008DE790E00E94B9046EE38D2F40
:1002F0009C2F0E94DC008AEF90E00E94B90460E429
:100300008D2F9C2F0E94DC008AEF90E00E94B904A0
:1003100067E48D2F9C2F0E94DC008DE790E00E9407
:10032000B90465E48D2F9C2F0E94DC008DE790E0DE
:100330000E94B9046DE38D2F9C2F0E94DC008AEF90
:1003400090E00E94B90460E48D2F9C2F0E94DC0095
:100350008AEF90E00E94B90465E48D2F9C2F0E94E3
:10036000DC0084EF91E00E94B9048D2F9C2FDF9177
:10037000CF910C9432010F931F93CF93DF93D82F1B
:10038000C92F86EA90E00E94B90486EA90E00E94B4
:10039000B90486EA90E00E94B90412E06CE38D2F64
:1003A0009C2F0E94DC0088EE93E00E94B90463E475
:1003B0008D2F9C2F0E94DC0088EE93E00E94B904F0
:1003C00002E061E48D2F9C2F0E94DC0086EA90E021
:1003D0000E94B90460E48D2F9C2F0E94DC0086EA05
:1003E00090E00E94B9046EE38D2F9C2F0E94DC00E8
:1003F00086EA90E00E94B90468E48D2F9C2F0E9449
:10040000DC0088EE93E00E94B90463E48D2F9C2FFA
:100410000E94DC0084EF91E00E94B904013009F0F1
:10042000A2C261E48D2F9C2F0E94DC0086EA90E03E
:100430000E94B90460E48D2F9C2F0E94DC0086EAA4
:1004400090E00E94B90461E48D2F9C2F0E94DC0093
:1004500086EA90E00E94B9046EE38D2F9C2F0E94E3
:10046000DC0088EE93E00E94B90484EF91E00E94E2
:10047000B9048AEF90E00E94B904113009F071C20A
:100480006DE28D2F9C2F0E94DC008EEE92E00E9488
:10049000B9046DE28D2F9C2F0E94DC008AEF90E062
:1004A0000E94B90461E48D2F9C2F0E94DC008EE72E
:1004B00090E00E94B90460E48D2F9C2F0E94DC0024
:1004C0008EE790E00E94B9046EE38D2F9C2F0E946E
:1004D000DC008EE790E00E94B9046CE38D2F9C2F26
:1004E0000E94DC008EE790E00E94B9046CE38D2F3F
:1004F0009C2F0E94DC0086EA90E00E94B9046EE323
:100500008D2F9C2F0E94DC0086EA90E00E94B904A7
:1005100060E48D2F9C2F0E94DC0086EA90E00E9410
:10052000B9046EE38D2F9C2F0E94DC0084EF91E0D4
:100530000E94B9046DE28D2F9C2F0E94DC008AEF8F
:1005400090E00E94B9046FE28D2F9C2F0E94DC0086
:1005500084EF91E00E94B90484EF91E00E94B90415
:100560008AEF90E00E94B9046DE28D2F9C2F0E94CB
:10057000DC008EEE92E00E94B9046DE28D2F9C2F7C
:100580000E94DC008AEF90E00E94B90461E48D2FA4
:100590009C2F0E94DC008EE790E00E94B90460E48A
:1005A0008D2F9C2F0E94DC008EE790E00E94B90402
:1005B0006EE38D2F9C2F0E94DC008EE790E00E945E
:1005C000B9046CE38D2F9C2F0E94DC008EE790E035
:1005D0000E94B90463E48D2F9C2F0E94DC0084EFFD
:1005E00091E00E94B9046EE38D2F9C2F0E94DC00E5
:1005F00088EE93E00E94B9048D2F9C2F0E94320157
:1006000084EF91E00E94B9048AEF90E00E94B9045F
:100610006DE28D2F9C2F0E94DC008EEE92E00E94F6
:10062000B9046DE28D2F9C2F0E94DC008AEF90E0D0
:100630000E94B90461E48D2F9C2F0E94DC008EE79C
:1006400090E00E94B90460E48D2F9C2F0E94DC0092
:100650008EE790E00E94B9046EE38D2F9C2F0E94DC
:10066000DC008EE790E00E94B9046CE38D2F9C2F94
:100670000E94DC008FE390E00E94B9046CE38D2FB0
:100680009C2F0E94DC0086EA90E00E94B9046EE391
:100690008D2F9C2F0E94DC0086EA90E00E94B90416
:1006A00060E48D2F9C2F0E94DC0086EA90E00E947F
:1006B000B9046EE38D2F9C2F0E94DC0084EF91E043
:1006C0000E94B9046DE28D2F9C2F0E94DC008AEFFE
:1006D00090E00E94B9046FE28D2F9C2F0E94DC00F5
:1006E00084EF91E00E94B90484EF91E00E94B90484
:1006F0008AEF90E00E94B90468E48D2F9C2F0E943D
:10070000DC0084EF91E00E94B90466E48D2F9C2FF9
:100710000E94DC008AEF90E00E94B90464E48D2F0F
:100720009C2F0E94DC0084EF91E00E94B90463E4F6
:100730008D2F9C2F0E94DC008AEF90E00E94B9046C
:1007400061E48D2F9C2F0E94DC0084EF91E00E94D9
:10075000B9046FE38D2F9C2F0E94DC008AEF90E09C
:100760000E94B9046EE38D2F9C2F0E94DC0084EF61
:1007700091E00E94B9046CE38D2F9C2F0E94DC0055
:100780008AEF90E00E94B90463E48D2F9C2F0E94B1
:10079000DC0084EF91E00E94B90486EA90E00E94B8
:1007A000B90486EA90E00E94B90486EA90E00E94CB
:1007B000B90484EF91E00E94B9048AEF90E00E94AE
:1007C000B9048EE790E00E94B9048EE790E00E94A1
:1007D000B9046DE28D2F9C2F0E94DC008EEE92E01A
:1007E0000E94B90460E38D2F9C2F0E94DC0084EFEF
:1007F00091E00E94B90461E48D2F9C2F0E94DC00DF
:1008000084EF91E00E94B9046EE38D2F9C2F0E942B
:10081000DC0080ED97E00E94B90486EA90E00E9437
:10082000B90486EA90E00E94B90486EA90E00E944A
:10083000B90412E06CE38D2F9C2F0E94DC0088EE3F
:1008400093E00E94B90463E48D2F9C2F0E94DC008A
:1008500088EE93E00E94B90402E061E48D2F9C2FA2
:100860000E94DC0086EA90E00E94B90460E48D2FCB
:100870009C2F0E94DC0086EA90E00E94B9046EE39F
:100880008D2F9C2F0E94DC0086EA90E00E94B90424
:1008900068E48D2F9C2F0E94DC0088EE93E00E947C
:1008A000B90463E48D2F9C2F0E94DC0084EF91E05B
:1008B0000E94B904013009F05AC061E48D2F9C2FC9
:1008C0000E94DC0086EA90E00E94B90460E48D2F6B
:1008D0009C2F0E94DC0086EA90E00E94B90461E44B
:1008E0008D2F9C2F0E94DC0086EA90E00E94B904C4
:1008F0006EE38D2F9C2F0E94DC0088EE93E00E9417
:10090000B90484EF91E00E94B9048AEF90E00E945C
:10091000B904113051F56CE38D2F9C2F0E94DC003F
:1009200084EC99E00E94B90413E06CE38D2F9C2FB6
:100930000E94DC0086EA90E00E94B9041150A9F7F9
:100940006CE38D2F9C2F0E94DC0084EF91E00E94CD
:10095000B9048D2F9C2FDF91CF911F910F910C9493
:10096000320111E01BCD01E02CCD11E063CF01E09D
:1009700074CF9C0190E080E08217930741F0EFEC88
:10098000F7E03197F1F700C000000196F5CF089528
:10099000F89481B964B947B92AB9789408958AB1AD
:1009A0008C638AB9E0E8F0E08081816A8083E1E8C5
:1009B000F0E0808182608083109282000895CF935E
:1009C000DF9300D000D000D0CDB7DEB74E832D83AB
:1009D000862F90E0B0E0A0E089839A83AB83BC834C
:1009E000BC01CD010E94580A20E030E048EC52E4FE
:1009F00069837A838B839C8369817A818B819C81D3
:100A00000E94B50920E030E04FE753E469837A8320
:100A10008B839C8369817A818B819C810E94E40A0B
:100A200069837A838B839C8369817A818B819C81A2
:100A30000E94270A462F572F509389004093880021
:100A40009E81892F90E0B0E0A0E089839A83AB83F8
:100A5000BC83BC01CD010E94580A20E030E048EC84
:100A600052E469837A838B839C8369817A818B8149
:100A70009C810E94B50920E030E04FE753E4698390
:100A80007A838B839C8369817A818B819C810E948C
:100A9000E40A69837A838B839C8369817A818B8161
:100AA0009C810E94270A462F572F50938B0040931A
:100AB0008A00AD81A230B1F028F4A1110FC08BB132
:100AC0001BB803C0BD81B33089F026960FB6F894E9
:100AD000DEBF0FBECDBFDF91CF9108958BB18C608B
:100AE0008BB9F3CF8BB11BB85A9AEFCF8BB11BB830
:100AF0005B9AEBCF8CE08BB970E0709389006093C8
:100B0000880050E050938B0040938A000895109223
:100B10008900109288008FE790E090938B0080937B
:100B20008A0008958FE790E0909389008093880071
:100B300010928B0010928A000895109289001092F2
:100B4000880010928B0010928A0008951BB870E004
:100B500070938900609388000895089580EA8093D7
:100B600000011092B90080E28093B8000895FC0162
:100B700080E88083CF010C94AE05982F9370891381
:100B800005C0880F806A8093000108958FEF089553
:100B9000FA0194EA24E89093BC008091BC0087FF9E
:100BA000FCCF809100018093BB002093BC0080911A
:100BB000BC0087FFFCCF8091B900883161F784EADF
:100BC0008093BC008091BC0087FFFCCF8091000126
:100BD0008093BB0084E88093BC008091BC0087FFB9
:100BE000FCCF7093BB0084E88093BC008091BC0074
:100BF00087FFFCCF6093BB0084E88093BC008091AA
:100C0000BC0087FFFCCF8091BC0087FFFCCF84EA4B
:100C10008093BC008091BC0087FFFCCF80910001D5
:100C20008F5F8093BB0084E88093BC008091BC0000
:100C300087FFFCCF84E88093BC008091BC0087FFD5
:100C4000FCCF8091BB00808384E98093BC0080E06E
:100C5000089594EA34E89093BC008091BC0087FF2B
:100C6000FCCF809100018093BB003093BC00809149
:100C7000BC0087FFFCCF8091B900883161F784EA1E
:100C80008093BC008091BC0087FFFCCF8091000165
:100C90008093BB0084E88093BC008091BC0087FFF8
:100CA000FCCF7093BB0084E88093BC008091BC00B3
:100CB00087FFFCCF6093BB0084E88093BC008091E9
:100CC000BC0087FFFCCF84EA8093BC008091BC000D
:100CD00087FFFCCF809100018F5F8093BB0084E889
:100CE0008093BC008091BC0087FFFCCF84EC222362
:100CF00081F0213009F484E88093BC009091BC001D
:100D000097FFFCCFFA019091BB0091932150AF0166
:100D1000EECF84E98093BC0080E0089594EA24E853
:100D20009093BC008091BC0087FFFCCF80910001B4
:100D30008093BB002093BC008091BC0087FFFCCF58
:100D40008091B900883161F784EA8093BC0080917A
:100D5000BC0087FFFCCF809100018093BB0084E83A
:100D60008093BC008091BC0087FFFCCF7093BB00D8
:100D700084E88093BC008091BC0087FFFCCF609327
:100D8000BB0084E88093BC008091BC0087FFFCCF4F
:100D90004093BB0084E88093BC008091BC0087FF37
:100DA000FCCF84E98093BC0080E00895FB01260F0E
:100DB000372F311DDC018C918150990B862B9F2B95
:100DC0002817390718F09C012F5F3F4F822F8E1B89
:100DD00024EA34E82093BC009091BC0097FFFCCF3C
:100DE000909100019093BB003093BC009091BC00A7
:100DF00097FFFCCF9091B900983161F794EA9093F6
:100E0000BC009091BC0097FFFCCF909100019093A3
:100E1000BB0094E89093BC009091BC0097FFFCCF7E
:100E2000F093BB0094E89093BC009091BC0097FFB6
:100E3000FCCFE093BB0094E89093BC009091BC0081
:100E400097FFFCCF982F24E8992369F0FA0131919C
:100E50003093BB002093BC003091BC0037FFFCCF27
:100E60009150AF01F1CF94E99093BC000895DF92C7
:100E7000EF92FF920F931F93CF93DF93D82ED92F2A
:100E80007B018A01C22F2C2FA801B7018D2D9D2F28
:100E90000E94D606282F30E0E20EF31EC81B020F78
:100EA000131FC111F0CF80E0DF91CF911F910F91FF
:100EB000FF90EF90DF900895089562B9089581E062
:100EC00082B98FE19EE40197F1F700C0000082E053
:100ED00082B98FE097E20197F1F700C00000089512
:100EE00090E080E070E08617970784F442B9EFE263
:100EF000F5E73197F1F700C0000012B8EFE1FEE42A
:100F00003197F1F700C000000196EDCF0895CF931F
:100F1000DF93CA01D22FC32F62B90E94B90412B85D
:100F20008D2F9C2FDF91CF910C94B90408951092CE
:100F3000C5008FEC8093C400E0ECF0E080818083FA
:100F4000E1ECF0E0808188618083E2ECF0E0808178
:100F5000808308950C9497078091C00085FFFCCF93
:100F60006093C60008958091C00087FFFCCF8091F8
:100F7000C6000895AF92BF92CF92DF92EF92FF9298
:100F80000F931F93CF93DF93F82EE92EEB01042FDD
:100F900010E05B0184E6A80EB11C101769F06E0129
:100FA000F60161916F018F2D9E2D0E94AC07CA142E
:100FB000DB04B1F71F5FF1CFDF91CF911F910F914C
:100FC000FF90EF90DF90CF90BF90AF900895FF9289
:100FD0000F931F93CF93DF93F82E092FEB0110E0AF
:100FE000212F30E0FE0101900020E9F73197EC1B42
:100FF000FD0B2E173F0750F42C0F3D1FF9016081A8
:101000008F2D902F0E94AC071F5FEACFDF91CF9109
:101010001F910F91FF9008950C94B30700D000D05A
:1010200000D00F92CDB7DEB7CE0107960E94B7056C
:10103000CE0106960E945C07CE0105960E9496009E
:10104000CE0104960E94CF04CE0103960E94AA0707
:101050008FEF81B98AB984B92FEF4FEF6FEF0E94FC
:10106000C804CE0103960E94970728EE33E048EEAD
:1010700053E062E0CE0106960E94870728EE33E037
:1010800048EE53E061E0CE0106960E94870728EE05
:1010900033E048EE53E062E0CE0106960E948707F7
:1010A00028EE33E048EE53E061E0CE0106960E9460
:1010B0008707CE0105960E943E0110E000E0AE01D8
:1010C0004F5F5F4FB801CE0107960E94C8058FE0C1
:1010D00097E20197F1F700C000006981CE01039605
:1010E0000E94AC078FE097E20197F1F700C0000083
:1010F0000E5F1F4F8981813011F7F12CE12C89E1BE
:10110000D82EAE014F5F5F4FB801CE0107960E9407
:10111000C8058FE097E20197F1F700C000006981F0
:10112000CE0103960E94AC07AE014E5F5F4FB8013F
:10113000CE0107960E94C8056A81CE0103960E94DF
:10114000AC078FE097E20197F1F700C000000F5F56
:101150001F4F8981823608F042C0803608F075C082
:10116000843409F46AC088F5823009F45FC089309C
:1011700039F4CE0105960E94320102C0FF24FA9490
:1011800089818F3F09F0BDCF20E040E060E0CE01D3
:1011900004960E94DF04CE0105960E94320160E0B1
:1011A000CE0106960E945D07CE0103960E94960727
:1011B000CE0107960E94AD0590E080E027960FB61D
:1011C000F894DEBF0FBECDBF08958534E1F18834B9
:1011D000B9F66A81CE0105960E943701D1CF8536D6
:1011E00009F44EC0B8F48336C1F1843609F443C023
:1011F000823631F66A81462FCE0104960E94A605FA
:101200009FEF23E284EF915020408040E1F700C03F
:101210000000B6CF803CC9F1813C09F0B1CFFF207E
:1012200009F4ACCFFA940E2D10E0AACF8A818D9DDF
:10123000C00111240E94B904A3CF6A81CE01069691
:101240000E945D079DCF60E0F9CF20E040E060E0C4
:10125000CE0104960E94DF0493CF6A8121E0462FDD
:10126000CE0104960E94DF046A81462FCE010496C7
:101270000E947A05C5CFCE0104960E949205C0CF88
:10128000CE0104960E948705BBCFFA80E02E78CF6E
:101290005058BB27AA270E9460090C94AA0A0E94F2
:1012A0009C0A38F00E94A30A20F039F49F3F19F4F9
:1012B00026F40C94990A0EF4E095E7FB0C94930A3B
:1012C000E92F0E94BB0A58F3BA1762077307840715
:1012D000950720F079F4A6F50C94DD0A0EF4E0955C
:1012E0000B2EBA2FA02D0B01B90190010C01CA01E0
:1012F000A0011124FF27591B99F0593F50F4503E8B
:1013000068F11A16F040A22F232F342F4427585F7C
:10131000F3CF469537952795A795F0405395C9F794
:101320007EF41F16BA0B620B730B840BBAF091504C
:10133000A1F0FF0FBB1F661F771F881FC2F70EC0EB
:10134000BA0F621F731F841F48F4879577956795BE
:10135000B795F7959E3F08F0B0CF9395880F08F0AA
:101360009927EE0F9795879508950E94C9090C94C7
:10137000AA0A0E94A30A58F00E949C0A40F029F48D
:101380005F3F29F00C94930A51110C94DE0A0C94DF
:10139000990A0E94BB0A68F39923B1F3552391F38C
:1013A000951B550BBB27AA2762177307840738F0D4
:1013B0009F5F5F4F220F331F441FAA1FA9F335D031
:1013C0000E2E3AF0E0E832D091505040E695001CE5
:1013D000CAF72BD0FE2F29D0660F771F881FBB1F9F
:1013E000261737074807AB07B0E809F0BB0B802D7D
:1013F000BF01FF2793585F4F3AF09E3F510578F0A9
:101400000C94930A0C94DE0A5F3FE4F3983ED4F305
:10141000869577956795B795F7959F5FC9F7880F7C
:10142000911D9695879597F90895E1E0660F771FCE
:10143000881FBB1F621773078407BA0720F0621B5F
:10144000730B840BBA0BEE1F88F7E09508950E948A
:10145000C30A88F09F5798F0B92F9927B751B0F079
:10146000E1F0660F771F881F991F1AF0BA95C9F728
:1014700014C0B13091F00E94DD0AB1E008950C94DF
:10148000DD0A672F782F8827B85F39F0B93FCCF392
:10149000869577956795B395D9F73EF490958095A5
:1014A000709561957F4F8F4F9F4F0895E89409C0C5
:1014B00097FB3EF490958095709561957F4F8F4F87
:1014C0009F4F9923A9F0F92F96E9BB279395F6959D
:1014D000879577956795B795F111F8CFFAF4BB0F1B
:1014E00011F460FF1BC06F5F7F4F8F4F9F4F16C07F
:1014F000882311F096E911C0772321F09EE8872F09
:10150000762F05C0662371F096E8862F70E060E0C4
:101510002AF09A95660F771F881FDAF7880F96953D
:10152000879597F9089597F99F6780E870E060E0E4
:1015300008959FEF80EC089500240A94161617066C
:1015400018060906089500240A94121613061406B4
:1015500005060895092E0394000C11F4882352F017
:10156000BB0F40F4BF2B11F460FF04C06F5F7F4FCF
:101570008F4F9F4F089557FD9058440F551F59F0B6
:101580005F3F71F04795880F97FB991F61F09F3F70
:1015900079F087950895121613061406551FF2CF99
:1015A0004695F1DF08C0161617061806991FF1CFE9
:1015B00086957105610508940895E894BB27662710
:1015C0007727CB0197F908950E94F70A0C94AA0A8D
:1015D0000E949C0A38F00E94A30A20F0952311F083
:1015E0000C94930A0C94990A11240C94DE0A0E941C
:1015F000BB0A70F3959FC1F3950F50E0551F629F92
:10160000F001729FBB27F00DB11D639FAA27F00D5B
:10161000B11DAA1F649F6627B00DA11D661F829F82
:101620002227B00DA11D621F739FB00DA11D621F67
:10163000839FA00D611D221F749F3327A00D611D84
:10164000231F849F600D211D822F762F6A2F112466
:101650009F5750409AF0F1F088234AF0EE0FFF1F99
:10166000BB1F661F771F881F91505040A9F79E3FF0
:10167000510580F00C94930A0C94DE0A5F3FE4F36A
:10168000983ED4F3869577956795B795F795E79546
:101690009F5FC1F7FE2B880F911D9695879597F94F
:1016A0000895FA01EE0FFF1F309621053105A1F1D3
:1016B0006115710561F48038BFE39B0749F16894B7
:1016C0009038810561F08038BFEF9B0741F0992386
:1016D0004AF5FF3FE1053105210519F1E894089429
:1016E000E795D901AA2329F4AB2FBE2FF85FD0F3D9
:1016F00010C0FF5F70F4A695E0F7F73950F019F0CD
:10170000FF3A38F49F779F930DD00F9007FC9058C5
:10171000089546F00C94990A60E070E080E89FE339
:1017200008954FE79F775F934F933F932F930E94C6
:101730004C0C2F913F914F915F910E94E40A0C94C1
:10174000A90B29F416F00C94930A0C94DD0A0C945E
:10175000990A0E94C30AA8F39638A0F707F80F92D7
:10176000E8942BE33AEA48EB5FE70E94FA0A0F920B
:101770000F920F924DB75EB70F920E94940CECE758
:10178000F0E00E94DB0B4F915F91EF91FF91E595A7
:10179000EE1FFF1F49F0FE57E0684427EE0F441F7D
:1017A000FA95E1F74195550B0E940E0C0F9007FE3C
:1017B0000C94020C0895DF93CF931F930F93FF9225
:1017C000EF92DF927B018C01689406C0DA2EEF0164
:1017D0000E94F70AFE01E894A59125913591459163
:1017E0005591A6F3EF010E946009FE019701A8013F
:1017F000DA9469F7DF90EF90FF900F911F91CF91EE
:10180000DF9108959B01AC0160E070E080E89FE308
:101810000C94B5090C94930A0C94C80C0E94C30A4A
:10182000D8F39923C9F3940F511DA3F3915050405D
:1018300094F059F0882332F0660F771F881F91507B
:101840005040C1F79E3F51052CF7880F911D96958A
:10185000879597F908955F3FACF0983E9CF0BB27C1
:10186000869577956795B79508F4B1609395C1F71C
:10187000BB0F58F711F460FFE8CF6F5F7F4F8F4FBA
:101880009F4FE3CF0C94DE0A16F00C94C80C0C9416
:10189000990A68940C94930A0E94C30AA8F39923A6
:1018A000C1F3AEF3DF93CF931F930F93FF92C92F32
:1018B000DD2788232AF02197660F771F881FDAF724
:1018C00020E030E040E85FEB9FE3883920F0803E85
:1018D00038F021968F770E944909E4EAF0E004C0CD
:1018E0000E944909E1EDF0E00E94DB0B8B01BE0193
:1018F000EC01FB2E6F5771097595771F880B990BBB
:101900000E94580A28E132E741E35FE30E94F70AA8
:10191000AF2D9801AE01FF900F911F91CF91DF91F4
:101920000E9460090C94AA0AFA01DC01AA0FBB1FED
:101930009B01AC01BF5728F4222733274427507856
:1019400020C0B75190F4AB2F0024469537952795CA
:10195000011CA395D2F3002071F0220F331F441F06
:10196000B395DAF30ED00C94480961307105A0E804
:101970008A07B94630F49B01AC0166277727882790
:101980009078309621F020833183428353830895E9
:101990009F3F31F0915020F4879577956795B795E3
:1019A000880F911D9695879597F90895F894FFCF24
:0219B000A00095
:00000001FF
