:100000000C943E000C945B000C945B000C945B0021
:100010000C945B000C945B000C945B000C945B00F4
:100020000C945B000C945B000C945B000C945B00E4
:100030000C945B000C945B000C945B000C945B00D4
:100040000C945B000C945B000C945B000C945B00C4
:100050000C945B000C945B000C945B000C945B00B4
:100060000C945B000C945B000C945B000C945B00A4
:100070000C945B000C945B000C945B0011241FBE7D
:10008000CFEFD8E0DEBFCDBF11E0A0E0B1E0E4ECFF
:10009000F2E102C005900D92AA33B107D9F721E031
:1000A000AAE3B1E001C01D92AE33B207E1F70E94AE
:1000B00086040C9460090C9400009B0190E080E0A1
:1000C0008217930741F0EFECF7E03197F1F700C0AA
:1000D00000000196F5CF08950F93F89461B944B9E3
:1000E00027B90AB978940F910895F8941AB883E063
:1000F00081B9E89AE9E6F0E08081816080837894B4
:100100000895FC0110828FEF818392E0928391E049
:100110009383148285831682CF010C9475008AB173
:10012000806F8AB90895CF92DF92EF92FF920F937A
:100130001F93CF93DF9300D000D000D0CDB7DEB7B0
:100140006A017B012E833D8381EA8093800020E059
:1001500030E04FE753E4C982DA826B83FC82698125
:100160007A818B819C810E943A05181634F4C12C47
:10017000D12C8FE7E82E93E4F92E20E030E04FE712
:1001800053E409831A838E818B838D818C836981EB
:100190007A818B819C810E943A05181634F400E024
:1001A00010E08FE78E8383E48D83C982DA82EB824D
:1001B000FC8269817A818B819C810E94E204462FB6
:1001C000572F509389004093880009831A838E81AA
:1001D0008B838D818C8369817A818B819C810E9444
:1001E000E204462F572F50938B0040938A00809152
:1001F00081008260809381008093810026960FB6F3
:10020000F894DEBF0FBECDBFDF91CF911F910F914C
:10021000FF90EF90DF90CF9008950F931F9300E031
:1002200010E09801B901A8010E9493001F910F915D
:1002300008950F931F93FC01B42FA52FCB01522FCC
:100240002BB11BB8252F4B2F5A2FBC01CF010E9479
:1002500093001F910F9108950F931F93FC01B42FEA
:10026000A52FCB01522F2BB1206F2BB9252F4B2F50
:100270005A2FBC01CF010E9493001F910F91089546
:100280000F931F932BB12F6A2BB98A019B0140E07A
:1002900050E0BA010E9493001F910F9108950F93AF
:1002A0001F935F9A00E010E098010E9493001F9155
:1002B0000F910895CF93DF93EC01CB01BA0118821F
:1002C00019821A821B824C837D83188619860E94AC
:1002D000DC034C815D8160E081E00E94950380E158
:1002E00090E00E9463059F838E83DF91CF910895F4
:1002F000FC01868197810C94FF051F93CF93DF93B8
:10030000EC01162F2C813D81462F6B8181E00E94EC
:100310009D031A83DF91CF911F9108951F93CF936F
:10032000DF93EC01162F2C813D814A8181E00E94F0
:100330009D031B83DF91CF911F910895FC01862FB0
:10034000603248F4618364817581803110F40C94CB
:10035000CF03805DFCCF0895CF93DF93EC018C81B8
:100360009D810E94890318826981CE01DF91CF911E
:100370000C949E016F927F928F929F92AF92BF9248
:10038000CF92DF92EF92FF920F931F93CF93DF9361
:10039000EC018B01F42EE22ECB010E9437046C019C
:1003A0007A808B8060E0CE010E947D0160E0CE010A
:1003B0000E948E01EE2019F0CE010E94AC012FE1C7
:1003C0002F1508F45CC08F2D90E0A601552720E280
:1003D00030E0281B390BC216130611F00CF04FC089
:1003E0009C2C6C817D81EFE0EF1548F1840F951F07
:1003F000EC2C40971CF080E1E82EEF188F2D0E9426
:10040000CF03602E58016C817D818A2D86198E154F
:1004100030F4F50181915F010E94D603F4CF80E4AE
:100420000E94CF030E0D111DE914D8F46C817D815B
:10043000F80181918F010E94D603E394F5CF80E308
:100440008F0D0E94CF03E02E58018A2D8E19891539
:1004500040F46C817D81F50181915F010E94D6039A
:10046000F4CF6981CE010E949E01672DCE010E94CA
:100470007D01682DCE010E948E01FC0CF882DF9177
:10048000CF911F910F91FF90EF90DF90CF90BF9091
:10049000AF909F908F907F906F9008956115710538
:1004A00011F00C94BA0108950F931F93CF93DF932B
:1004B00000D0CDB7DEB78C011A82698320E0FC0141
:1004C0004081BE016F5F7F4F0E94BA01C8010F904B
:1004D0000F90DF91CF911F910F910895EF92FF92AE
:1004E0000F931F93CF93DF938C01862FEA0168301F
:1004F000B8F42097A9F0F80164817581880F880FFE
:10050000880F0E94C7037E01F8E0EF0EF11CF8018E
:100510006481758189910E94D603CE15DF05B9F7F4
:10052000DF91CF911F910F91FF90EF900895CF939E
:10053000DF93EC01CB01892B29F020E04881CE012B
:100540000E944E02CE01DF91CF910895CF93DF93A9
:10055000EC017F936F938FE191E09F938F938F8155
:100560008F938E818F930E9488066E817F81CE014A
:100570000E9497020F900F900F900F900F900F9086
:10058000CE01DF91CF910895CF93DF93EC017F935C
:100590006F9382E291E09F938F938F818F938E81EF
:1005A0008F930E9488066E817F81CE010E94970200
:1005B0000F900F900F900F900F900F90CE01DF9142
:1005C000CF910895CF93DF93EC011F926F9385E253
:1005D00091E09F938F938F818F938E818F930E9451
:1005E00088066E817F81CE010E9497020F900F9046
:1005F0000F900F900F900F90CE01DF91CF91089543
:100600000F931F93CF93DF93EC018B01611571055D
:1006100061F0288581E028274985CE010E944E029D
:100620008885882311F018861986C801DF91CF913B
:100630001F910F910895FC01603218F4618781E0E9
:100640008087CF0108950F931F93CF93DF93EC0121
:100650008881082F681708F4062F801B888310E014
:10066000101731F060E2CE010E9454021F5FF8CFF4
:100670008881811B8883DF91CF911F910F9108950D
:10068000FC0180818062808384E08A95F1F780811B
:100690008F7D80830895DF92EF92FF920F931F93D7
:1006A000CF93DF93D42EE901062F10E090E8899FC5
:1006B000700111248881817288838881980194E077
:1006C000359527959A95E1F7220F331F2E29282B70
:1006D0002883CE010E9440038881817288838881AB
:1006E000000F111F0E710E29082B0883CE010E94E6
:1006F000400380E09AE19A95F1F700C08F5FD8122D
:10070000F9CFDF91CF911F910F91FF90EF90DF9084
:1007100008959C0144EA61E080E00C944B039C0145
:1007200044EA62E080E00C944B039A01880F682B46
:10073000646044E080E00C944B0354E0859FC0016A
:100740001124482B660F642B686044E080E00C9411
:100750004B039A0148E0849FC001112444E0649F48
:10076000B0011124682B606144E080E00C944B03DD
:100770009A0140E1849FC001112448E0649FB001C8
:100780001124682B606244E080E00C944B039B01D1
:100790008F77682F606444E080E00C944B039B01EA
:1007A000682F606844E080E00C944B039B0144E0B8
:1007B000682F81E00C944B03CF93DF93FC01EB0196
:1007C0008FE295E70197F1F700C000008081817208
:1007D000808380818FEF8083888181728883888184
:1007E0008660888388818E7F8883CB010E94400346
:1007F00087E090E20197F1F700C00000CE010E946F
:10080000400387EC90E00197F1F700C00000CE01B3
:100810000E9440039AE69A95F1F700C088818172A0
:100820008883888184608883CE010E9440038AE6A1
:100830008A95F1F700C09E0144E06CE280E00E94DE
:100840004B039E0140E060E080E00E949D03CE01EA
:100850000E948903AE0160E081E00E9495039E0141
:1008600040E060E081E0DF91CF910C949D039C011A
:1008700090E080E00196F901E80FF91F40814111F5
:10088000F9CF0895EF92FF920F931F93CF93DF93C9
:10089000EC01FB011F86309701F17C018FE0E80E2F
:1008A000F11C2EE0042F10E0CF01B8010E94CE040D
:1008B000DC01A85DBE4F8C91D7018E937D01215044
:1008C000CF01FB018017910710F02111EDCF822F8E
:1008D00090E001968C0F9D1F03C00E9620E32E879B
:1008E000DF91CF911F910F91FF90EF9008959C01A0
:1008F00090E080E08217930741F0EFECF7E031974A
:10090000F1F700C000000196F5CF0895CDB7DEB72E
:10091000A1970FB6F894DEBF0FBECDBF87E0E6E02B
:10092000F1E0DE015B9601900D928A95E1F7CE0130
:100930000B960E9481008FEF8AB940E050E060E0A2
:1009400073E4CE0143960E94400168E873E1CE0152
:100950004B960E945D0048E250E067E270E0CE01F5
:1009600001960E945A0120E041E06DE071E0CE0165
:1009700001960E944E0266E171E0CE0101960E944E
:100980009702CE0101960E94780190E080E0A19646
:100990000FB6F894DEBF0FBECDBF0895AA1BBB1BD8
:1009A00051E107C0AA1FBB1FA617B70710F0A61B6F
:1009B000B70B881F991F5A95A9F780959095BC0190
:1009C000CD0108950E94190588F09F5798F0B92F1E
:1009D0009927B751B0F0E1F0660F771F881F991F74
:1009E0001AF0BA95C9F714C0B13091F00E943305DE
:1009F000B1E008950C943305672F782F8827B85FEE
:100A000039F0B93FCCF3869577956795B395D9F7CB
:100A10003EF490958095709561957F4F8F4F9F4FD5
:100A2000089557FD9058440F551F59F05F3F71F0DE
:100A30004795880F97FB991F61F09F3F79F0879545
:100A40000895121613061406551FF2CF4695F1DFCE
:100A500008C0161617061806991FF1CF869571055E
:100A6000610508940895E894BB2766277727CB0192
:100A700097F908950E943F0508F48FEF0895990FA4
:100A80000008550FAA0BE0E8FEEF16161706E80758
:100A9000F907C0F012161306E407F50798F0621B79
:100AA000730B840B950B39F40A2661F0232B242B4E
:100AB000252B21F408950A2609F4A140A6958FEF6D
:100AC000811D811D08950F931F93CF93DF93823073
:100AD000910510F482E090E0E0913C01F0913D013D
:100AE00030E020E0B0E0A0E0309799F42115310526
:100AF00009F44AC0281B390B24303105D8F58A8106
:100B00009B816115710589F1FB0193838283FE014D
:100B100011C0408151810281138148175907E0F0CB
:100B20004817590799F4109761F012960C93129791
:100B300013961C933296CF01DF91CF911F910F91A5
:100B4000089500933C0110933D01F4CF2115310528
:100B500051F04217530738F0A901DB019A01BD019A
:100B6000DF01F801C1CFEF01F9CF90933D018093F0
:100B70003C01CDCFFE01E20FF31F819391932250F0
:100B8000310939832883D7CF20913A0130913B0135
:100B9000232B41F4209102013091030130933B015A
:100BA00020933A0120910001309101012115310576
:100BB00041F42DB73EB74091040150910501241B2B
:100BC000350BE0913A01F0913B01E217F307A0F4F5
:100BD0002E1B3F0B2817390778F0AC014E5F5F4F93
:100BE0002417350748F04E0F5F1F50933B01409389
:100BF0003A01819391939FCFF0E0E0E09CCFCF93B7
:100C0000DF930097E9F0FC01329713821282A091E2
:100C10003C01B0913D01ED0130E020E01097A1F4DE
:100C200020813181820F931F20913A0130913B0145
:100C30002817390709F061C0F0933B01E0933A01AE
:100C4000DF91CF910895EA01CE17DF07E8F54A81D9
:100C50005B819E0141155105B1F7E901FB83EA83F0
:100C600049915991C40FD51FEC17FD0761F480819C
:100C700091810296840F951FE9019983888382816F
:100C800093819B838A83F0E0E0E012968D919C91A2
:100C900013970097B9F52D913C911197CD010296CC
:100CA000820F931F20913A0130913B012817390799
:100CB00039F6309751F510923D0110923C01B093F6
:100CC0003B01A0933A01BCCFD383C28340815181C1
:100CD000840F951FC817D90761F44E5F5F4F888155
:100CE0009981480F591F518340838A819B81938347
:100CF00082832115310509F0B0CFF0933D01E093D7
:100D00003C019ECFFD01DC01C0CF13821282D7CF00
:100D1000AEE0B0E0EEE8F6E00C9437090D891E89EC
:100D200086E08C831A8309838FEF9FE79E838D83F0
:100D3000AE01475E5F4F6F89788DCE0101960E94AC
:100D4000AB062F813885020F131FF80110822E96F3
:100D5000E4E00C945309ABE0B0E0E1EBF6E00C9476
:100D600029097C013B018A01FC01178216828381DB
:100D700081FFC8C1CE0101965C01F7019381F301A7
:100D800093FD859193FF81913F01882309F453C11D
:100D9000853239F493FD859193FF81913F0185322E
:100DA00029F4B70190E00E949B08E7CF912C212CF9
:100DB000312CFFE1F31538F08B3211F190F48032D1
:100DC00009F1833229F137FC3CC020ED280F2A308D
:100DD00050F536FE20C08AE0989E200D1124922EF8
:100DE00006C08D3291F0803371F7689430F8F301CA
:100DF00093FD859193FF81913F018111DACF21C04D
:100E0000689431F8689432F8F2CF689433F8EFCFF1
:100E1000689434F8ECCFEAE02E9E200D1124222EA7
:100E2000689435F8E4CF8E3229F436FC04C1689416
:100E300036F8DDCF8C3619F4689437F8D8CF883679
:100E4000B1F2982F9F7D95549330E0F08336A1F155
:100E50008337C1F1833509F063C02801F2E04F0EFA
:100E6000511CF801C080D180692D70E036FC02C0B1
:100E70006FEF7FEFC6010E9485084C01689437F838
:100E800082010AC00C5F1F4FFFE3F983882483941B
:100E9000912C6501E89437F833FE2DC0522C811453
:100EA000910471F5552009F468CFB70180E290E014
:100EB0000E949B085A94F6CFF801808189830E5FC7
:100EC0001F4FE4CF2801F2E04F0E511CF801C08003
:100ED000D180692D70E036FC02C06FEF7FEFC60154
:100EE0000E9490084C018201D5CFB70180E290E0CA
:100EF0000E949B082A942814190409F0B0F7CECF59
:100F0000F60137FC859137FE81916F01B70190E0C2
:100F10000E949B0851105A94F1E08F1A9108BFCF9C
:100F2000843619F0893609F077C0F80137FE6BC0B6
:100F300060817181828193810C5F1F4FF32DFF7659
:100F40003F2E97FF09C090958095709561957F4FD2
:100F50008F4F9F4F689437F82AE030E0A5010E9438
:100F6000CB08C82ECA188C2C432C36FE0CC0E89433
:100F700040F8C91440F434FE05C032FC03C0F32D20
:100F8000FE7E4F2E892C44FE95C0FE01EC0DF11D16
:100F90008081803309F087C0242D297E422E842D44
:100FA0008870582E43FC95C040FE8FC09C2C821444
:100FB00018F42C0C922C981844FE91C0B70180E3D1
:100FC00090E00E949B0842FE09C088E790E041FE45
:100FD00002C088E590E0B7010E949B08C91408F49C
:100FE0008AC0CA94D12C9FEFC91AD90ACA0CDB1C3B
:100FF000F60182916F01B70190E00E949B08AC144A
:10100000BD04B1F74FCF60817181072E000C880BB2
:10101000990B0E5F1F4F92CFD32CE894D4F82AE09F
:1010200030E0853739F1232D297FD22E8F3601F11B
:1010300048F48835A9F0F701868197812B96E2E183
:101040000C944509803749F08837A9F7D4FE02C0CF
:101050006894D2F820E130E00DC06894D4F8F6CF5F
:1010600034FE03C0822F8660D82E20E132E002C019
:1010700028E030E0F801D7FE0FC0608171818281E5
:1010800093810C5F1F4FA5010E94CB08C82ECA1880
:101090003D2CE89437F867CF6081718190E080E063
:1010A0000E5F1F4FF0CF42FC02C0839478CF839431
:1010B000839475CF842D867809F471CFF6CFB7016C
:1010C00080E290E00E949B0883948214C0F3512C2C
:1010D00073CF522C5818821408F46ECFF8CF842D99
:1010E000867809F47BCF8BE241FE80E247FC8DE2FB
:1010F000B70190E071CFB70180E390E00E949B08B8
:101100009A946CCF8FEF9FEF99CFFC0105906150BF
:1011100070400110D8F7809590958E0F9F1F08950D
:10112000FC016150704001900110D8F780959095B6
:101130008E0F9F1F08950F931F93CF93DF93182F48
:10114000092FEB018B8181FD09C01FEF0FEF812F6C
:10115000902FDF91CF911F910F91089582FF14C0BE
:101160002E813F818C819D81281739073CF4E881CD
:10117000F981CF0101969983888310838E819F81A5
:1011800001969F838E83E3CFE885F985812F0995AA
:10119000892BA1F3DACFFA01AA27283051F12031A7
:1011A00081F1E8946F936E7F6E5F7F4F8F4F9F4FFB
:1011B000AF4FB1E03ED0B4E03CD0670F781F891F3D
:1011C0009A1FA11D680F791F8A1F911DA11D6A0F0B
:1011D000711D811D911DA11D20D009F468943F91BE
:1011E0002AE0269F11243019305D3193DEF6CF01BD
:1011F0000895462F4770405D4193B3E00FD0C9F783
:10120000F6CF462F4F70405D4A3318F0495D31FDEF
:101210004052419302D0A9F7EACFB4E0A695979542
:10122000879577956795BA95C9F700976105710518
:1012300008959B01AC010A2E069457954795379562
:101240002795BA95C9F7620F731F841F951FA01DBC
:1012500008952F923F924F925F926F927F928F925A
:101260009F92AF92BF92CF92DF92EF92FF920F9335
:101270001F93CF93DF93CDB7DEB7CA1BDB0B0FB63F
:10128000F894DEBF0FBECDBF09942A8839884888FC
:101290005F846E847D848C849B84AA84B984C88492
:1012A000DF80EE80FD800C811B81AA81B981CE0F89
:1012B000D11D0FB6F894DEBF0FBECDBFED0108956E
:0412C000F894FFCFD0
:1012C40000003E01200000FF020100FF00434F55D3
:1012D4004C4F49523A0044697374616E636500254A
:1012E40075002569002563003031323334353637D3
:0A12F400383961626364656600002A
:00000001FF
