:100000000C947F000C94B9000C949E000C9438085A
:100010000C949C000C949C000C949C000C949C00F0
:100020000C949C000C949C000C949C000C949C00E0
:100030000C949C000C949C000C949C000C949C00D0
:100040000C949C000C949C000C947F080C949C00D5
:100050000C949C000C949C000C949C000C949C00B0
:100060000C949C000C949C000C949C000C949C00A0
:100070000C949C000C949C000C949C0007634236EA
:10008000B79BD8A71A39685618AEBAAB558C1D3C29
:10009000B7CC5763BD6DEDFD753EF6177231BF00ED
:1000A0000000803F08000000BE922449123EABAA27
:1000B000AA2ABECDCCCC4C3E00000080BEABAAAA82
:1000C000AA3E00000000BF000000803F00000000CA
:1000D00000084178D3BB4387D1133D190E3CC3BD03
:1000E0004282AD2B3E68EC8276BED98FE1A93E4CB0
:1000F00080EFFFBE01C4FF7F3F000000000011241D
:100100001FBECFEFD8E0DEBFCDBF11E0A0E0B1E071
:10011000EEEFF9E202C005900D92AC35B107D9F7C8
:1001200021E0ACE5B1E001C01D92A836B207E1F7CD
:100130000E940B0C0C94FD140C9400001F921FB62F
:100140001F9211248F939F938FE59AEE0197F1F7F9
:1001500000C000004B990AC081E080935C01E09AE6
:100160009F918F911F901FBE1F90189510925C0158
:10017000F6CF1F921FB61F9211248F939F938FE586
:100180009AEE0197F1F700C000004A990AC081E099
:1001900080935D01E09A9F918F911F901FBE1F90E9
:1001A000189510925D01F6CF0F931F93CF93DF93B5
:1001B000CDB7DEB72A970FB6F894DEBF0FBECDBF1E
:1001C0008C0148E250E067E270E0CE0101960E94A7
:1001D0004406CE0101960E949606F801608170E007
:1001E000CE0101960E94AE07009B04C0019B02C095
:1001F00002991AC0029B04C0039B02C0049914C058
:10020000009B08C0019B06C0029B04C0039B02C068
:1002100004990AC000992CC001992AC0029928C0EB
:10022000039926C0049924C0009B04C0019B02C00E
:1002300002992DC0029B04C0039B02C0049927C0F1
:10024000009B08C0019B06C0029B04C0039B02C028
:1002500004991DC0009908C0019906C0029904C004
:10026000039902C0049B13C0F80180818F5F8083D3
:10027000CE0101960E9462062A960FB6F894DEBF60
:100280000FBECDBFDF91CF911F910F91089520E058
:1002900040E0029905C068E2C8010E94B202F7CFAF
:1002A00060E0C8010E94B202FFEF22E587E0F15052
:1002B00020408040E1F700C00000B6CFCF93DF932D
:1002C000D82FC92F20E040E0049906C068E28D2FA6
:1002D0009C2F0E94B202F6CF60E08D2F9C2F0E94CF
:1002E000B2022FEF82E597E0215080409040E1F785
:1002F00000C00000DF91CF9108950F931F93CF931B
:10030000DF93CDB7DEB72C970FB6F894DEBF0FBEE4
:10031000CDBF8C01CE010C960E94A202CE010B969D
:100320000E94A2021B8648E250E067E270E0CE0124
:1003300001960E9444061B86F8018181882309F4F6
:10034000F2C0CE0101960E9496066B8570E0CE0148
:1003500001960E94AE078B85833028F4CE010B9660
:100360000E944D03E9CF8B85833051F520E040E0BA
:1003700060E0CE010C960E94B202FFEF24E38CE015
:10038000F15020408040E1F700C00000F80180817A
:10039000882391F220E040E06CE3CE010C960E94AD
:1003A000B202FFEF23EC89E0F15020408040E1F7FA
:1003B00000C00000F80110828B858F5F8B87BCCF57
:1003C0008B85843040F18B85873028F50099C6CF26
:1003D0000199C4CF0299C2CF0399C0CF0499BECF6F
:1003E0000099BCCF0199BACF0299B8CF0399B6CF83
:1003F0000499B4CF20E040E068E2CE010C960E9460
:10040000B202FFEF20E782E0F15020408040E1F7A8
:1004100000C00000E5CF8B85873058F58B858B3089
:1004200008F07CC08B858E3009F086CF20E040E05C
:1004300060E0CE010C960E94B2028FEF90E7E2E0FE
:1004400081509040E040E1F700C0000020E040E033
:1004500068E2CE010C960E94B202FFEF23EC89E025
:10046000F15020408040E1F700C00000F801118207
:1004700063CF8B858B3090F6009B04C0019B02C03C
:10048000029925C000996ACF019968CF029966CF79
:10049000039964CF049962CF009960CF01995ECF30
:1004A00002995CCF03995ACF049958CF20E040E0DD
:1004B00062E3CE010C960E94B202EFEFF0E722E079
:1004C000E150F0402040E1F700C00000E5CF9FEF91
:1004D000E6E1F1E19150E040F040E1F700C00000BA
:1004E00020E040E060E0CE010C960E94B2022FEFC7
:1004F00080E792E0215080409040E1F700C000008A
:10050000029908C020E040E067E2CE010C960E940C
:10051000B202F6CF8B858F5F8B8720CF8B858E3095
:1005200008F080CF1BCFCE0101960E9462062C9668
:100530000FB6F894DEBF0FBECDBFDF91CF911F91F4
:100540000F9108958AB1806F8AB9E0E8F0E0808168
:10055000816A8083E1E8F0E080818260808310928C
:1005600082000895CF93DF9300D000D000D0CDB7A4
:10057000DEB74E832D83862F90E0B0E0A0E0898324
:100580009A83AB83BC83BC01CD010E94590E20E04D
:1005900030E048EC52E469837A838B839C836981E1
:1005A0007A818B819C810E94B60D20E030E04FE77C
:1005B00053E469837A838B839C8369817A818B81FD
:1005C0009C810E940E0F69837A838B839C8369814F
:1005D0007A818B819C810E94280E462F572F509341
:1005E0008900409388009E81892F90E0B0E0A0E0D0
:1005F00089839A83AB83BC83BC01CD010E94590ED1
:1006000020E030E048EC52E469837A838B839C835A
:1006100069817A818B819C810E94B60D20E030E057
:100620004FE753E469837A838B839C8369817A8162
:100630008B819C810E940E0F69837A838B839C83BC
:1006400069817A818B819C810E94280E462F572FC9
:1006500050938B0040938A00AD81A230B1F028F412
:10066000A1110FC08BB11BB803C0BD81B33089F09D
:1006700026960FB6F894DEBF0FBECDBFDF91CF91A7
:1006800008958BB180638BB9F3CF8BB11BB85C9AA3
:10069000EFCF8BB11BB85D9AEBCFCF93DF93EC011B
:1006A00080EC81B98FEF8AB9009B16C0019B14C002
:1006B000029B12C08FE19EE40197F1F700C0000099
:1006C000009B04C0019B02C0029916C088818F5F05
:1006D0008883DF91CF910895029915C0009B23C0B4
:1006E0008FE19EE40197F1F700C00000009BF1CF7D
:1006F00020E049E162E312C020E046E266E2CE017A
:100700000E94B202DDCF8FE19EE40197F1F700C0B5
:100710000000029BDECF20E046E266E2CE01DF91E0
:10072000CF910C94B202019B0BC08FE19EE4019724
:10073000F1F700C00000019BCCCF20E043E2DACF0C
:10074000039B0CC08FE19EE40197F1F700C000000D
:10075000039BBFCF20E042E363E2E0CF049B0CC0E9
:100760008FE19EE40197F1F700C00000049BB1CF38
:1007700020E042E36EE1D2CF9FEF20E782E091508C
:1007800020408040E1F700C0000080B1882309F4D8
:10079000A0CF20E040E060E0C1CF20EC21B92FEFF6
:1007A0002AB9029B0DC0EFE1FEE43197F1F700C0DA
:1007B0000000029B4CC020E047E367E30C94B202C8
:1007C000009B0CC0EFE1FEE43197F1F700C00000A0
:1007D000009B3DC023E04FE06DE2F0CF019B0BC0DA
:1007E000EFE1FEE43197F1F700C00000019B2FC05C
:1007F00023E049E1F1CF039B0CC0EFE1FEE4319728
:10080000F1F700C00000039B22C022E04DE269E145
:10081000D5CF049B0CC0EFE1FEE43197F1F700C0A7
:100820000000049B14C022E04DE26FE0C7CFFFEF51
:1008300020E732E0F15020403040E1F700C00000F6
:1008400020B1222321F020E040E060E0B7CF0895FE
:100850000F931F93CF93DF9300D0CDB7DEB78C01FA
:10086000CE0102960E94A2021A82CE0101960E9437
:10087000A202009908C0019906C0029904C0039918
:1008800002C0049B05C0CE0102960E94CD03F1CFA9
:10089000019954C0029952C0039950C0F801808157
:1008A000882399F020E040E063E2CE0101960E94A7
:1008B000B202FFE72AE186E0F15020408040E1F7F4
:1008C00000C00000F8011082E9CF049B11C020E0B5
:1008D00040E062E3CE0101960E94B202FFEF21EEFA
:1008E00084E0F15020408040E1F700C00000EDCFEF
:1008F000009B11C020E042E360E0CE0101960E941F
:10090000B2029FEFE1EEF4E09150E040F040E1F7F9
:1009100000C00000EDCF029BBBCF20E040E060E0D4
:10092000CE0101960E94B2022FEF84E39CE0215099
:1009300080409040E1F700C00000EDCF009916C064
:10094000019914C0029912C0039910C004990EC0F5
:1009500020E040E060E0CE0101960E94B2020F90DC
:100960000F90DF91CF911F910F910895049B27C0A5
:10097000009B25C0029923C020E048E260E0CE0140
:1009800001960E94B202019BF5CF20E040E060E0BA
:10099000CE0101960E94B202EFEFF4E32CE0E150A9
:1009A000F0402040E1F700C000000299ECCF20E0C9
:1009B00040E068E2CE0101960E94B202F6CF20E04C
:1009C00040E060E0CE0101960E94B2028FEF94E316
:1009D000ECE081509040E040E1F700C00000009959
:1009E00008C0019906C0029904C0039902C0049B83
:1009F000A5CFCE0102960E94CD03F1CFF8941AB88C
:100A00008FEF84B9E99AE9E6F0E080818460808321
:100A100078940895F8941AB88FEF84B9E89AE9E6C3
:100A2000F0E080818160808378940895CF93DF9394
:100A3000CDB7DEB768970FB6F894DEBF0FBECDBF57
:100A4000CE0148960E94A202188ECE0147960E94BF
:100A5000A202CE0101960E948B09009908C001995B
:100A600006C0029904C0039902C0049B16C0CE01BF
:100A700048960E94CD03F1CFCE0101960E94980ABC
:100A800022E048E260E0CE0147960E94B2028FE485
:100A900093EC0197F1F700C00000009908C001999C
:100AA00006C0029904C0039902C0049BE5CF20E070
:100AB00040E060E0CE0147960E94B2022FE788E353
:100AC00091E0215080409040E1F700C00000009983
:100AD00008C0019906C0029904C0039902C0049B92
:100AE0001AC0CE0101960E94FE09CE0148960E94CE
:100AF000CD03EDCFCE0101960E94950A23E040E0A0
:100B000068E2CE0147960E94B2028FE493EC01970F
:100B1000F1F700C00000009908C0019906C00299D1
:100B200004C0039902C0049BE5CF20E040E060E0F0
:100B3000CE0147960E94B2029FE728E381E09150E0
:100B400020408040E1F700C00000009908C00199F2
:100B500006C0029904C0039902C0049B1AC0CE01CA
:100B600001960E94FE09CE0148960E94CD03EDCF6A
:100B7000CE0101960E94980A22E048E260E0CE0190
:100B800047960E94B2028FE493EC0197F1F700C000
:100B90000000009908C0019906C0029904C0039999
:100BA00002C0049BE5CF20E040E060E0CE01479624
:100BB0000E94B2029FE728E381E0915020408040EC
:100BC000E1F700C00000009908C0019906C0029931
:100BD00004C0039902C0049B1AC0CE0101960E9472
:100BE000FE09CE0148960E94CD03EDCFCE010196BD
:100BF0000E94950A23E040E068E2CE0147960E94F9
:100C0000B2028FE493EC0197F1F700C00000009965
:100C100008C0019906C0029904C0039902C0049B50
:100C2000E5CF20E040E060E0CE0147960E94B202AE
:100C30009FE728E381E0915020408040E1F700C029
:100C40000000009918C0019916C0029914C00399B8
:100C500012C0049910C020E040E060E0CE01479649
:100C60000E94B20268960FB6F894DEBF0FBECDBFE9
:100C7000DF91CF910895CE0101960E94FE09CE0129
:100C800048960E94CD03DDCFCF93DF93EC01CB01DB
:100C9000BA01188219821A821B824C837D831886BE
:100CA00019860E94370B4C815D8160E081E00E94D3
:100CB000F00A80E190E00E9400119F838E83DF9113
:100CC000CF910895FC01868197810C949C111F930C
:100CD000CF93DF93EC01162F2C813D81462F6B8142
:100CE00081E00E94F80A1A83DF91CF911F91089545
:100CF0001F93CF93DF93EC01162F2C813D814A8106
:100D000081E00E94F80A1B83DF91CF911F91089523
:100D1000FC01862F603248F46183648175818031E3
:100D200010F40C942A0B805DFCCF0895CF93DF93D1
:100D3000EC018C819D810E94E40A18826981CE01B8
:100D4000DF91CF910C9488066F927F928F929F9241
:100D5000AF92BF92CF92DF92EF92FF920F931F93C9
:100D6000CF93DF93EC018B01F42EE22ECB010E9496
:100D7000BC0B6C017A808B8060E0CE010E9467061C
:100D800060E0CE010E947806EE2019F0CE010E94AC
:100D900096062FE12F1508F45CC08F2D90E0A60178
:100DA000552720E230E0281B390BC216130611F03C
:100DB0000CF04FC09C2C6C817D81EFE0EF1548F169
:100DC000840F951FEC2C40971CF080E1E82EEF1863
:100DD0008F2D0E942A0B602E58016C817D818A2DF7
:100DE00086198E1530F4F50181915F010E94310B57
:100DF000F4CF80E40E942A0B0E0D111DE914D8F4E3
:100E00006C817D81F80181918F010E94310BE39407
:100E1000F5CF80E38F0D0E942A0BE02E58018A2D1A
:100E20008E19891540F46C817D81F50181915F01F6
:100E30000E94310BF4CF6981CE010E948806672D94
:100E4000CE010E946706682DCE010E947806FC0C38
:100E5000F882DF91CF911F910F91FF90EF90DF907B
:100E6000CF90BF90AF909F908F907F906F9008959C
:100E70006115710511F00C94A40608950F931F934A
:100E8000CF93DF9300D0CDB7DEB78C011A82698390
:100E900020E0FC014081BE016F5F7F4F0E94A406ED
:100EA000C8010F900F90DF91CF911F910F9108957E
:100EB000EF92FF920F931F93CF93DF938C01862FB6
:100EC000EA016830B8F42097A9F0F80164817581CF
:100ED000880F880F880F0E94220B7E01F8E0EF0E2A
:100EE000F11CF8016481758189910E94310BCE1546
:100EF000DF05B9F7DF91CF911F910F91FF90EF9030
:100F00000895CF93DF93EC01CB01892B29F020E0EA
:100F10004881CE010E943807CE01DF91CF9108951C
:100F2000CF93DF93EC017F936F9381E491E09F93E4
:100F30008F938F818F938E818F930E9425126E8164
:100F40007F81CE010E9481070F900F900F900F902C
:100F50000F900F90CE01DF91CF910895CF93DF9343
:100F6000EC017F936F9384E491E09F938F938F8143
:100F70008F938E818F930E9425126E817F81CE0187
:100F80000E9481070F900F900F900F900F900F907D
:100F9000CE01DF91CF910895CF93DF93EC011F92A3
:100FA0006F9387E491E09F938F938F818F938E81CE
:100FB0008F930E9425126E817F81CE010E9481074E
:100FC0000F900F900F900F900F900F90CE01DF9128
:100FD000CF9108950F931F93CF93DF93EC018B0173
:100FE0006115710561F0288581E028274985CE01CA
:100FF0000E9438078885882311F018861986C80151
:10100000DF91CF911F910F910895FC01603218F488
:10101000618781E08087CF0108950F931F93CF935D
:10102000DF93EC018881082F681708F4062F801BD6
:10103000888310E0101731F060E2CE010E943E0775
:101040001F5FF8CF8881811B8883DF91CF911F912B
:101050000F910895F8948BEF84B980EC81B9EA9AE6
:10106000E9E6F0E080818061808315BC7894089582
:101070001F921FB61F9211242F933F938F939F931C
:1010800080916001909161010197C9F415BC809134
:101090006E008E7F80936E0086B520915E01309148
:1010A0005F01322F2227820F932F911D90936301AE
:1010B0008093620116BC10926101109260018091D0
:1010C000600190916101892B91F410925F0110925F
:1010D0005E0185B5826085BD80916E0081608093E0
:1010E0006E0081E090E090936101809360019F9198
:1010F0008F913F912F911F901FBE1F9018958F9336
:101100008FB78F939F9380915E0190915F010196BD
:1011100090935F0180935E019F918F918FBF8F911C
:101120001895CF93DF9300D00F92CDB7DEB70E9412
:101130002A08CE0102960E94A202CE0101960E94C8
:10114000A2021982209A229885B1836085B928E28B
:101150002A95F1F785B185B93FE748E381E0315041
:1011600040408040E1F700C00000009908C00199AC
:1011700006C0029904C0039902C0049B30C0CE018E
:1011800001960E94CD03F1CF289A98E29A95F1F743
:10119000289880916201909163012FE738E341E044
:1011A000215030404040E1F700C000008C3223E085
:1011B000920708F044C020E042E36EE1CE010296BF
:1011C0000E94B202CE0103960E949C0B4FE788E377
:1011D00091E0415080409040E1F700C0000000994C
:1011E00008C0019906C0029904C0039902C0049B7B
:1011F000CBCFCE0103960E94B80B009908C001998D
:1012000006C0029904C0039902C0049B2AC020E0D2
:1012100048E268E2CE0102960E94B2022FEF38EF58
:1012200045E1215030404040E1F700C0000020E09F
:1012300040E060E0CE0102960E94B202DECF20E0E4
:101240008A3D934018F04EE162E3B8CF46E266E291
:10125000CE0102960E94B202CE0103960E94990B23
:10126000B5CF009908C0019906C0029904C003993E
:1012700002C0049B16C020E040E060E0CE01029670
:101280000E94B202009908C0019906C0029904C0E8
:10129000039902C0049B28C0CE0101960E94CD0391
:1012A000F1CF0299DECF20E042E360E0CE0102966A
:1012B0000E94B202F6CF8FEF95EA2EE08150904067
:1012C0002040E1F700C0000020E040E060E0CE01F7
:1012D00002960E94B2023FEF48EF85E13150404054
:1012E0008040E1F700C00000009B08C0019B06C0E1
:1012F000029B04C0039B02C00499DDCF20E040E0C4
:1013000060E0CE0102960E94B2020F900F900F9003
:10131000DF91CF910895FC0180E090E0ACEDB3E463
:1013200080839183A283B38380E090E0A4E3B2E45E
:1013300084839583A683B78380E090E0AAE8B2E433
:1013400080879187A287B38780E090E0A2EAB2E429
:1013500084879587A687B7878FE3808B83E5818B0A
:101360008DE7828B8AEF838B84EF91E0958B848B62
:101370000895CF93DF9300D000D0CDB7DEB7942F80
:10138000852F229A242F352FAB0199838A836B8373
:101390007C8369817A818B819C810E94450D20E04C
:1013A00030E040E853E469837A838B839C836981CE
:1013B0007A818B819C810E940E0F9B01AC0160E0C1
:1013C00074E284EF9AE40E94B60D69837A838B837A
:1013D0009C8369817A818B819C810E94280E67BDE4
:1013E00084B5826484BD85B5846085BD16BC0F90CC
:1013F0000F900F900F90DF91CF91089517BC14BC00
:1014000015BC16BC0895EF92FF920F931F93CF93D4
:10141000DF9300D000D000D0CDB7DEB78D839E83A0
:10142000862F90E0B0E0A0E089839A83AB83BC83F1
:10143000BC01CD010E94590E7B018C01AD81BE81A2
:1014400014962D913D914D915C9117976983FA8285
:101450008B831C8369817A818B819C810E94090F17
:1014600087FD56C0ED81FE812485358546855785EB
:1014700069817A818B819C810E94B10D18160CF4D0
:1014800047C0AD81BE8118962D913D914D915C91E3
:101490001B9769817A818B819C810E94440D20E099
:1014A00030E040E451E469837A838B839C836981D3
:1014B0007A818B819C810E94B60D9B01AC0160E01A
:1014C00070E080E090E40E947B0FED81FE8120813E
:1014D00031814281538169837A838B839C836981C3
:1014E0007A818B819C810E940E0F462F572FBC0161
:1014F0008D819E8126960FB6F894DEBF0FBECDBFBC
:10150000DF91CF911F910F91FF90EF900C94B9094B
:1015100026960FB6F894DEBF0FBECDBFDF91CF91F8
:101520001F910F91FF90EF9008956DE20C94030AC4
:1015300061E50C94030AFC0180818062808384E071
:101540008A95F1F780818F7D80830895DF92EF92F5
:10155000FF920F931F93CF93DF93D42EE901062FB1
:1015600010E090E8899F700111248881817288833E
:101570008881980194E0359527959A95E1F7220F97
:10158000331F2E29282B2883CE010E949B0A888195
:10159000817288838881000F111F0E710E29082B1C
:1015A0000883CE010E949B0A80E09AE19A95F1F7A8
:1015B00000C08F5FD812F9CFDF91CF911F910F91AB
:1015C000FF90EF90DF9008959C0144EA61E080E095
:1015D0000C94A60A9C0144EA62E080E00C94A60AFE
:1015E0009A01880F682B646044E080E00C94A60A9E
:1015F00054E0859FC0011124482B660F642B68605E
:1016000044E080E00C94A60A9A0148E0849FC0015F
:10161000112444E0649FB0011124682B606144E010
:1016200080E00C94A60A9A0140E1849FC001112435
:1016300048E0649FB0011124682B606244E080E0C0
:101640000C94A60A9B018F77682F606444E080E0C9
:101650000C94A60A9B01682F606844E080E00C941B
:10166000A60A9B0144E0682F81E00C94A60ACF9360
:10167000DF93FC01EB018FE295E70197F1F700C0E2
:10168000000080818172808380818FEF80838881D8
:101690008172888388818660888388818E7F888331
:1016A000CB010E949B0A87E090E20197F1F700C00E
:1016B0000000CE010E949B0A87EC90E00197F1F7B1
:1016C00000C00000CE010E949B0A9AE69A95F1F7AD
:1016D00000C0888181728883888184608883CE017C
:1016E0000E949B0A8AE68A95F1F700C09E0144E0B9
:1016F0006CE280E00E94A60A9E0140E060E080E08B
:101700000E94F80ACE010E94E40AAE0160E081E086
:101710000E94F00A9E0140E060E081E0DF91CF91FD
:101720000C94F80A81B1806C81B982B18F7382B94F
:1017300008951698179A08951798169A0895CF93B2
:10174000DF93D82FC92F0E94990B8FE19EE4019758
:10175000F1F700C000008D2F9C2F0E949C0B8FE1A1
:101760009EE40197F1F700C00000DF91CF9108954A
:1017700082B18F7382B908959C0190E080E0019658
:10178000F901E80FF91F40814111F9CF0895EF9257
:10179000FF920F931F93CF93DF93EC01FB011F8602
:1017A000309701F17C018FE0E80EF11C2EE0042F50
:1017B00010E0CF01B8010E94300DDC01A65BBE4FE6
:1017C0008C91D7018E937D012150CF01FB018017B1
:1017D000910710F02111EDCF822F90E001968C0F30
:1017E0009D1F03C00E9620E32E87DF91CF911F919E
:1017F0000F91FF90EF9008959C0190E080E0821798
:10180000930741F0EFECF7E03197F1F700C00000EB
:101810000196F5CF0895CDB7DEB762970FB6F8946D
:10182000DEBF0FBECDBF80EC81B98FEF87B9CE018F
:1018300042960E94A20281E08D878E878B878C87DB
:10184000898BCE0140960E94A202188A8CE591E015
:101850000E94FE048CE591E00E940A0548E250E0F7
:1018600067E270E0CE0101960E94440610E080918C
:101870000001882309F4E7C0123009F46CC038F481
:101880001123E1F1113009F451C012E003C013300B
:1018900009F478C000915D01013049F72FEF83ED25
:1018A00090E3215080409040E1F700C0000010928A
:1018B00000018DB38DBB8091690080936900123067
:1018C00009F4ADC008F073C0112309F487C01130CA
:1018D00009F76DE371E0CE0101960E94EA07CE019F
:1018E0000F960E949108CE0140960E94D4008889EC
:1018F000843009F484C010935D01C7CF20E043E039
:1019000067E071E0CE0101960E94380780915C018A
:10191000813011F010E0BECFCE0101960E949606F4
:1019200080915C018130E1F311E0B4CF20E045E02B
:1019300060E171E0CE0101960E94380780915C0160
:10194000813091F7CE0101960E94960680915C014C
:101950008130E1F39ACF20E040E065E171E0CE0113
:1019600001960E94380780915C01813009F08DCF8B
:10197000CE0101960E94960680915C018130E1F3D0
:1019800013E088CF20E043E066E271E0CE010196EB
:101990000E94380780915C01813091F7CE01019659
:1019A0000E94960680915C018130E1F3B3CF133041
:1019B00009F070CF66E271E0CE0101960E94EA075D
:1019C000CE0141960E941605CE0140960E94D40099
:1019D00088898430A1F000935D019CCF60E371E0C1
:1019E000CE0101960E94EA07CE010B960E942804C0
:1019F000CE0140960E94D4008889843069F4CE01DB
:101A000040960E945E0110925D0168E371E0CE0194
:101A100001960E94EA073ECF00935D0185CF65E104
:101A200071E0CE0101960E94EA07CE010D960E9458
:101A30007D01CE0140960E94D40088898430F9F25D
:101A400000935D019DCFCE0101960E94620690E059
:101A500080E062960FB6F894DEBF0FBECDBF08954A
:101A6000AA1BBB1B51E107C0AA1FBB1FA617B707C4
:101A700010F0A61BB70B881F991F5A95A9F78095E0
:101A80009095BC01CD0108955058BB27AA270E940C
:101A90005C0D0C94CF0E0E94C10E38F00E94C80E4F
:101AA00020F039F49F3F19F426F40C94BE0E0EF486
:101AB000E095E7FB0C94B80EE92F0E94E00E58F376
:101AC000BA17620773078407950720F079F4A6F523
:101AD0000C94020F0EF4E0950B2EBA2FA02D0B01E3
:101AE000B90190010C01CA01A0011124FF27591B63
:101AF00099F0593F50F4503E68F11A16F040A22F69
:101B0000232F342F4427585FF3CF469537952795D9
:101B1000A795F0405395C9F77EF41F16BA0B620BD8
:101B2000730B840BBAF09150A1F0FF0FBB1F661F1F
:101B3000771F881FC2F70EC0BA0F621F731F841F62
:101B400048F4879577956795B795F7959E3F08F088
:101B5000B0CF9395880F08F09927EE0F979587954A
:101B600008950E94940E08F481E008950E94CA0D21
:101B70000C94CF0E0E94C80E58F00E94C10E40F087
:101B800029F45F3F29F00C94B80E51110C94030F07
:101B90000C94BE0E0E94E00E68F39923B1F3552316
:101BA00091F3951B550BBB27AA2762177307840770
:101BB00038F09F5F5F4F220F331F441FAA1FA9F306
:101BC00035D00E2E3AF0E0E832D091505040E695F4
:101BD000001CCAF72BD0FE2F29D0660F771F881F55
:101BE000BB1F261737074807AB07B0E809F0BB0B48
:101BF000802DBF01FF2793585F4F3AF09E3F51055C
:101C000078F00C94B80E0C94030F5F3FE4F3983E09
:101C1000D4F3869577956795B795F7959F5FC9F744
:101C2000880F911D9695879597F90895E1E0660FC5
:101C3000771F881FBB1F621773078407BA0720F03E
:101C4000621B730B840BBA0BEE1F88F7E0950895A7
:101C50000E94E80E88F09F5798F0B92F9927B75146
:101C6000B0F0E1F0660F771F881F991F1AF0BA9540
:101C7000C9F714C0B13091F00E94020FB1E008958D
:101C80000C94020F672F782F8827B85F39F0B93F7F
:101C9000CCF3869577956795B395D9F73EF49095F3
:101CA0008095709561957F4F8F4F9F4F0895E89471
:101CB00009C097FB3EF490958095709561957F4F94
:101CC0008F4F9F4F9923A9F0F92F96E9BB27939542
:101CD000F695879577956795B795F111F8CFFAF452
:101CE000BB0F11F460FF1BC06F5F7F4F8F4F9F4F83
:101CF00016C0882311F096E911C0772321F09EE8E1
:101D0000872F762F05C0662371F096E8862F70E046
:101D100060E02AF09A95660F771F881FDAF7880F20
:101D20009695879597F90895990F0008550FAA0B76
:101D3000E0E8FEEF16161706E807F907C0F01216DE
:101D40001306E407F50798F0621B730B840B950BE1
:101D500039F40A2661F0232B242B252B21F4089536
:101D60000A2609F4A140A6958FEF811D811D0895D3
:101D700097F99F6780E870E060E008959FEF80EC3E
:101D8000089500240A9416161706180609060895E1
:101D900000240A9412161306140605060895092E47
:101DA0000394000C11F4882352F0BB0F40F4BF2BB6
:101DB00011F460FF04C06F5F7F4F8F4F9F4F0895F6
:101DC00057FD9058440F551F59F05F3F71F04795EC
:101DD000880F97FB991F61F09F3F79F087950895D1
:101DE000121613061406551FF2CF4695F1DF08C0F0
:101DF000161617061806991FF1CF8695710561050D
:101E000008940895E894BB2766277727CB0197F9B4
:101E100008950E94940E08F48FEF08950E94210FF8
:101E20000C94CF0E0E94C10E38F00E94C80E20F014
:101E3000952311F00C94B80E0C94BE0E11240C9442
:101E4000030F0E94E00E70F3959FC1F3950F50E0D1
:101E5000551F629FF001729FBB27F00DB11D639F5C
:101E6000AA27F00DB11DAA1F649F6627B00DA11D02
:101E7000661F829F2227B00DA11D621F739FB00DA8
:101E8000A11D621F839FA00D611D221F749F332718
:101E9000A00D611D231F849F600D211D822F762FB1
:101EA0006A2F11249F5750409AF0F1F088234AF08E
:101EB000EE0FFF1FBB1F661F771F881F91505040FA
:101EC000A9F79E3F510580F00C94B80E0C94030FB7
:101ED0005F3FE4F3983ED4F3869577956795B79581
:101EE000F795E7959F5FC1F7FE2B880F911D96959B
:101EF000879597F90895FA01EE0FFF1F3096210597
:101F00003105A1F16115710561F48038BFE39B07CC
:101F100049F168949038810561F08038BFEF9B07E4
:101F200041F099234AF5FF3FE1053105210519F1FB
:101F3000E8940894E795D901AA2329F4AB2FBE2F82
:101F4000F85FD0F310C0FF5F70F4A695E0F7F739A3
:101F500050F019F0FF3A38F49F779F930DD00F900F
:101F600007FC9058089546F00C94BE0E60E070E0B7
:101F700080E89FE308954FE79F775F934F933F93E8
:101F80002F930E9476102F913F914F915F910E9465
:101F90000E0F0C94D30F29F416F00C94B80E0C9479
:101FA000020F0C94BE0E0E94E80EA8F39638A0F71C
:101FB00007F80F92E8942BE33AEA48EB5FE70E94B8
:101FC000240F0F920F920F924DB75EB70F920E949F
:101FD000BE10ECE7F0E00E9405104F915F91EF9189
:101FE000FF91E595EE1FFF1F49F0FE57E06844277B
:101FF000EE0F441FFA95E1F74195550B0E943810FA
:102000000F9007FE0C942C100895DF93CF931F932D
:102010000F93FF92EF92DF927B018C01689406C0D0
:10202000DA2EEF010E94210FFE01E894A59125917F
:10203000359145915591A6F3EF010E945C0DFE018B
:102040009701A801DA9469F7DF90EF90FF900F9164
:102050001F91CF91DF9108959B01AC0160E070E08A
:1020600080E89FE30C94B60D0C94B80E0C94F2101B
:102070000E94E80ED8F39923C9F3940F511DA3F3DE
:102080009150504094F059F0882332F0660F771F3A
:10209000881F91505040C1F79E3F51052CF7880F83
:1020A000911D9695879597F908955F3FACF0983EFE
:1020B0009CF0BB27869577956795B79508F4B16036
:1020C0009395C1F7BB0F58F711F460FFE8CF6F5F2E
:1020D0007F4F8F4F9F4FE3CF0C94030F16F00C945C
:1020E000F2100C94BE0E68940C94B80E0E94E80E88
:1020F000A8F39923C1F3AEF3DF93CF931F930F930C
:10210000FF92C92FDD2788232AF02197660F771FBA
:10211000881FDAF720E030E040E85FEB9FE3883982
:1021200020F0803E38F021968F770E94450DE4EA3A
:10213000F0E004C00E94450DE1EDF0E00E940510C2
:102140008B01BE01EC01FB2E6F5771097595771F4E
:10215000880B990B0E94590E28E132E741E35FE3B7
:102160000E94210FAF2D9801AE01FF900F911F919A
:10217000CF91DF910E945C0D0C94CF0EFA01DC012F
:10218000AA0FBB1F9B01AC01BF5728F4222733279E
:102190004427507820C0B75190F4AB2F00244695C7
:1021A00037952795011CA395D2F3002071F0220FDB
:1021B000331F441FB395DAF30ED00C94440D6130F5
:1021C0007105A0E88A07B94630F49B01AC01662787
:1021D000772788279078309621F0208331834283B7
:1021E000538308959F3F31F0915020F48795779560
:1021F0006795B795880F911D9695879597F90895DE
:102200000F931F93CF93DF938230910510F482E0F8
:1022100090E0E0916601F091670130E020E0B0E0ED
:10222000A0E0309799F42115310509F44AC0281B24
:10223000390B24303105D8F58A819B8161157105F0
:1022400089F1FB0193838283FE0111C0408151819A
:102250000281138148175907E0F04817590799F48C
:10226000109761F012960C93129713961C93329666
:10227000CF01DF91CF911F910F91089500936601D7
:1022800010936701F4CF2115310551F04217530720
:1022900038F0A901DB019A01BD01DF01F801C1CFCE
:1022A000EF01F9CF9093670180936601CDCFFE01D6
:1022B000E20FF31F819391932250310939832883D0
:1022C000D7CF2091640130916501232B41F42091F7
:1022D0000301309104013093650120936401209142
:1022E0000101309102012115310541F42DB73EB7AE
:1022F0004091050150910601241B350BE0916401CA
:10230000F0916501E217F307A0F42E1B3F0B28178D
:10231000390778F0AC014E5F5F4F2417350748F05E
:102320004E0F5F1F50936501409364018193919319
:102330009FCFF0E0E0E09CCFCF93DF930097E9F0F0
:10234000FC01329713821282A0916601B09167015D
:10235000ED0130E020E01097A1F420813181820F5F
:10236000931F20916401309165012817390709F006
:1023700061C0F0936501E0936401DF91CF9108950E
:10238000EA01CE17DF07E8F54A815B819E0141151E
:102390005105B1F7E901FB83EA8349915991C40FD3
:1023A000D51FEC17FD0761F4808191810296840F9F
:1023B000951FE90199838883828193819B838A8316
:1023C000F0E0E0E012968D919C9113970097B9F59B
:1023D0002D913C911197CD010296820F931F209170
:1023E0006401309165012817390739F6309751F5A6
:1023F0001092670110926601B0936501A093640189
:10240000BCCFD383C28340815181840F951FC817ED
:10241000D90761F44E5F5F4F88819981480F591F3A
:10242000518340838A819B81938382832115310567
:1024300009F0B0CFF0936701E09366019ECFFD01F4
:10244000DC01C0CF13821282D7CFAEE0B0E0EBE266
:10245000F2E10C94D4140D891E8986E08C831A83D2
:1024600009838FEF9FE79E838D83AE01475E5F4FA9
:102470006F89788DCE0101960E9448122F81388590
:10248000020F131FF80110822E96E4E00C94F01452
:10249000ABE0B0E0EEE4F2E10C94C6147C013B0149
:1024A0008A01FC0117821682838181FFC8C1CE0197
:1024B00001965C01F7019381F30193FD859193FFF0
:1024C00081913F01882309F453C1853239F493FD8A
:1024D000859193FF81913F01853229F4B70190E006
:1024E0000E943814E7CF912C212C312CFFE1F315F9
:1024F00038F08B3211F190F4803209F1833229F1F6
:1025000037FC3CC020ED280F2A3050F536FE20C0A5
:102510008AE0989E200D1124922E06C08D3291F0F3
:10252000803371F7689430F8F30193FD859193FF40
:1025300081913F018111DACF21C0689431F868940C
:1025400032F8F2CF689433F8EFCF689434F8ECCFD8
:10255000EAE02E9E200D1124222E689435F8E4CF57
:102560008E3229F436FC04C1689436F8DDCF8C36FF
:1025700019F4689437F8D8CF8836B1F2982F9F7D38
:1025800095549330E0F08336A1F18337C1F1833560
:1025900009F063C02801F2E04F0E511CF801C08021
:1025A000D180692D70E036FC02C06FEF7FEFC6016D
:1025B0000E9422144C01689437F882010AC00C5F13
:1025C0001F4FFFE3F98388248394912C6501E894DD
:1025D00037F833FE2DC0522C8114910471F555202B
:1025E00009F468CFB70180E290E00E9438145A9451
:1025F000F6CFF801808189830E5F1F4FE4CF280159
:10260000F2E04F0E511CF801C080D180692D70E0BE
:1026100036FC02C06FEF7FEFC6010E942D144C0103
:102620008201D5CFB70180E290E00E9438142A944D
:102630002814190409F0B0F7CECFF60137FC8591C4
:1026400037FE81916F01B70190E00E94381451105C
:102650005A94F1E08F1A9108BFCF843619F0893669
:1026600009F077C0F80137FE6BC06081718182810B
:1026700093810C5F1F4FF32DFF763F2E97FF09C00C
:1026800090958095709561957F4F8F4F9F4F68947F
:1026900037F82AE030E0A5010E946814C82ECA1855
:1026A0008C2C432C36FE0CC0E89440F8C91440F43E
:1026B00034FE05C032FC03C0F32DFE7E4F2E892C64
:1026C00044FE95C0FE01EC0DF11D8081803309F0C0
:1026D00087C0242D297E422E842D8870582E43FCDD
:1026E00095C040FE8FC09C2C821418F42C0C922CA8
:1026F000981844FE91C0B70180E390E00E9438141E
:1027000042FE09C088E790E041FE02C088E590E003
:10271000B7010E943814C91408F48AC0CA94D12C95
:102720009FEFC91AD90ACA0CDB1CF60182916F010E
:10273000B70190E00E943814AC14BD04B1F74FCF3C
:1027400060817181072E000C880B990B0E5F1F4F63
:1027500092CFD32CE894D4F82AE030E0853739F1D1
:10276000232D297FD22E8F3601F148F48835A9F028
:10277000F701868197812B96E2E10C94E214803771
:1027800049F08837A9F7D4FE02C06894D2F820E156
:1027900030E00DC06894D4F8F6CF34FE03C0822F29
:1027A0008660D82E20E132E002C028E030E0F80157
:1027B000D7FE0FC060817181828193810C5F1F4FB2
:1027C000A5010E946814C82ECA183D2CE89437F859
:1027D00067CF6081718190E080E00E5F1F4FF0CF86
:1027E00042FC02C0839478CF8394839475CF842D68
:1027F000867809F471CFF6CFB70180E290E00E94AD
:10280000381483948214C0F3512C73CF522C58186F
:10281000821408F46ECFF8CF842D867809F47BCF2C
:102820008BE241FE80E247FC8DE2B70190E071CF80
:10283000B70180E390E00E9438149A946CCF8FEF38
:102840009FEF99CFFC010590615070400110D8F7BF
:10285000809590958E0F9F1F0895FC0161507040E8
:1028600001900110D8F7809590958E0F9F1F0895C5
:102870000F931F93CF93DF93182F092FEB018B81B9
:1028800081FD09C01FEF0FEF812F902FDF91CF91B6
:102890001F910F91089582FF14C02E813F818C817A
:1028A0009D81281739073CF4E881F981CF01019611
:1028B0009983888310838E819F8101969F838E8365
:1028C000E3CFE885F985812F0995892BA1F3DACF2C
:1028D000FA01AA27283051F1203181F1E8946F9351
:1028E0006E7F6E5F7F4F8F4F9F4FAF4FB1E03ED0F7
:1028F000B4E03CD0670F781F891F9A1FA11D680F95
:10290000791F8A1F911DA11D6A0F711D811D911DC7
:10291000A11D20D009F468943F912AE0269F11243C
:102920003019305D3193DEF6CF010895462F4770A0
:10293000405D4193B3E00FD0C9F7F6CF462F4F70FB
:10294000405D4A3318F0495D31FD4052419302D059
:10295000A9F7EACFB4E0A6959795879577956795FF
:10296000BA95C9F700976105710508959B01AC01FF
:102970000A2E06945795479537952795BA95C9F726
:10298000620F731F841F951FA01D08952F923F9201
:102990004F925F926F927F928F929F92AF92BF926F
:1029A000CF92DF92EF92FF920F931F93CF93DF931B
:1029B000CDB7DEB7CA1BDB0B0FB6F894DEBF0FBE78
:1029C000CDBF09942A88398848885F846E847D84C5
:1029D0008C849B84AA84B984C884DF80EE80FD80C7
:1029E0000C811B81AA81B981CE0FD11D0FB6F8943D
:0E29F000DEBF0FBECDBFED010895F894FFCFFE
:1029FE0001000068012000434F554C4F4952200002
:102A0E004D555220004C4553204445555820424FB9
:102A1E0055434C455300434F555055524553200096
:102A2E00434F554C4F49520046494E20004D55528A
:102A3E0000257500256900256300303132333435A9
:0C2A4E0036373839616263646566000049
:00000001FF
