:100000000C947F000C94B9000C949E000C949508FD
:100010000C949C000C949C000C949C000C949C00F0
:100020000C949C000C949C000C949C000C949C00E0
:100030000C949C000C949C000C949C000C949C00D0
:100040000C949C000C949C000C94DC080C949C0078
:100050000C949C000C949C000C949C000C949C00B0
:100060000C949C000C949C000C949C000C949C00A0
:100070000C949C000C949C000C949C0007634236EA
:10008000B79BD8A71A39685618AEBAAB558C1D3C29
:10009000B7CC5763BD6DEDFD753EF6177231BF00ED
:1000A0000000803F08000000BE922449123EABAA27
:1000B000AA2ABECDCCCC4C3E00000080BEABAAAA82
:1000C000AA3E00000000BF000000803F00000000CA
:1000D00000084178D3BB4387D1133D190E3CC3BD03
:1000E0004282AD2B3E68EC8276BED98FE1A93E4CB0
:1000F00080EFFFBE01C4FF7F3F000000000011241D
:100100001FBECFEFD8E0DEBFCDBF11E0A0E0B1E071
:10011000EEE4FCE202C005900D92A43DB107D9F7D0
:1001200021E0A4EDB1E001C01D92A03EB207E1F7CD
:100130000E94220D0C9425160C9400001F921FB6ED
:100140001F9211248F939F938FE59AEE0197F1F7F9
:1001500000C000004B990AC081E08093D401E09A6E
:100160009F918F911F901FBE1F9018951092D401E0
:10017000F6CF1F921FB61F9211248F939F938FE586
:100180009AEE0197F1F700C000004A990AC081E099
:100190008093D501E09A9F918F911F901FBE1F9071
:1001A00018951092D501F6CFCF93DF93EC01009B09
:1001B00004C0019B02C002991AC0029B04C0039BA9
:1001C00002C0049914C0009B08C0019B06C0029B9A
:1001D00004C0039B02C004990AC000992BC0019976
:1001E00029C0029927C0039925C0049923C0009B08
:1001F00004C0019B02C0029920C0029B04C0039B63
:1002000002C004991AC0009B08C0019B06C0029B53
:1002100004C0039B02C0049910C0009908C0019952
:1002200006C0029904C0039902C0049B06C08881DD
:100230008F5F8883DF91CF91089520E040E068E2EE
:10024000CE010E9462022FEF83EC99E021508040A2
:100250009040E1F700C00000CACF0F931F93CF93E7
:10026000DF93CDB7DEB72C970FB6F894DEBF0FBE85
:10027000CDBF8C01CE010C960E945202CE010B968E
:100280000E9452021B8648E250E067E270E0CE0115
:1002900001960E94A1061B86F8018181882309F43A
:1002A000F2C0CE0101960E94F3066B8570E0CE018C
:1002B00001960E940B088B85833028F4CE010B96A3
:1002C0000E94FD02E9CF8B85833051F520E040E0AC
:1002D00060E0CE010C960E946202FFEF24E38CE006
:1002E000F15020408040E1F700C00000F80180811B
:1002F000882391F220E040E06CE3CE010C960E944E
:100300006202FFEF23EC89E0F15020408040E1F7EA
:1003100000C00000F80110828B858F5F8B87BCCFF7
:100320008B85843040F18B85873028F50099C6CFC6
:100330000199C4CF0299C2CF0399C0CF0499BECF0F
:100340000099BCCF0199BACF0299B8CF0399B6CF23
:100350000499B4CF20E040E068E2CE010C960E9400
:100360006202FFEF20E782E0F15020408040E1F799
:1003700000C00000E5CF8B85873058F58B858B302A
:1003800008F07CC08B858E3009F086CF20E040E0FD
:1003900060E0CE010C960E9462028FEF90E7E2E0EF
:1003A00081509040E040E1F700C0000020E040E0D4
:1003B00068E2CE010C960E946202FFEF23EC89E016
:1003C000F15020408040E1F700C00000F8011182A8
:1003D00063CF8B858B3090F6009B04C0019B02C0DD
:1003E000029925C000996ACF019968CF029966CF1A
:1003F000039964CF049962CF009960CF01995ECFD1
:1004000002995CCF03995ACF049958CF20E040E07D
:1004100062E3CE010C960E946202EFEFF0E722E069
:10042000E150F0402040E1F700C00000E5CF9FEF31
:10043000E6E1F1E19150E040F040E1F700C000005A
:1004400020E040E060E0CE010C960E9462022FEFB7
:1004500080E792E0215080409040E1F700C000002A
:10046000029908C020E040E067E2CE010C960E94AD
:100470006202F6CF8B858F5F8B8720CF8B858E3086
:1004800008F080CF1BCFCE0101960E94BF062C96AC
:100490000FB6F894DEBF0FBECDBFDF91CF911F9195
:1004A0000F9108958AB1806F8AB9E0E8F0E0808109
:1004B000816A8083E1E8F0E080818260808310922D
:1004C00082000895CF93DF9300D000D000D0CDB745
:1004D000DEB74E832D83862F90E0B0E0A0E08983C5
:1004E0009A83AB83BC83BC01CD010E94810F20E0C5
:1004F00030E048EC52E469837A838B839C83698182
:100500007A818B819C810E94DE0E20E030E04FE7F3
:1005100053E469837A838B839C8369817A818B819D
:100520009C810E94361069837A838B839C836981C6
:100530007A818B819C810E94500F462F572F5093B8
:100540008900409388009E81892F90E0B0E0A0E070
:1005500089839A83AB83BC83BC01CD010E94810F48
:1005600020E030E048EC52E469837A838B839C83FB
:1005700069817A818B819C810E94DE0E20E030E0CF
:100580004FE753E469837A838B839C8369817A8103
:100590008B819C810E94361069837A838B839C8334
:1005A00069817A818B819C810E94500F462F572F41
:1005B00050938B0040938A00AD81A230B1F028F4B3
:1005C000A1110FC08BB11BB803C0BD81B33089F03E
:1005D00026960FB6F894DEBF0FBECDBFDF91CF9148
:1005E00008958BB180638BB9F3CF8BB11BB85C9A44
:1005F000EFCF8BB11BB85D9AEBCFEF92FF920F93C9
:100600001F93CF93DF930F92CDB7DEB78C0180ECB1
:10061000E82EE1B8FF24FA94FAB8CE0101960E94C0
:100620005202E1B8FAB8009B1CC0019B1AC0029BA1
:1006300018C08FE19EE40197F1F700C00000009B15
:1006400004C0019B02C002991CC0F80180818F5F29
:1006500080830F90DF91CF911F910F91FF90EF90CA
:100660000895029915C0009B22C0EFE1FEE4319786
:10067000F1F700C00000009BECCF20E049E162E30D
:1006800012C020E046E266E2C8010E946202D7CFB3
:100690008FE19EE40197F1F700C00000029BD9CFE3
:1006A00020E046E266E2C8010E946202D2CF019BCE
:1006B0000BC08FE19EE40197F1F700C00000019BA1
:1006C000C8CF20E043E2DBCF039B0CC0EFE1FEE4A8
:1006D0003197F1F700C00000039BBBCF20E042E35D
:1006E00063E2E1CF049B0CC08FE19EE40197F1F738
:1006F00000C00000049BADCF20E042E36EE1D3CF09
:100700009FEFE0E7F2E09150E040F040E1F700C0F9
:10071000000080B1882309F49CCF20E040E060E035
:10072000C2CF20EC21B92FEF2AB9029B0DC0EFE117
:10073000FEE43197F1F700C00000029B4DC020E0BD
:1007400046E266E20C946202009B0CC0EFE1FEE41C
:100750003197F1F700C00000009B3EC020E04EE161
:1007600068E2F0CF019B0CC0EFE1FEE43197F1F7B6
:1007700000C00000019B30C020E043E262E3E2CF12
:10078000039B0CC0EFE1FEE43197F1F700C00000DD
:10079000039B22C020E042E363E2D4CF049B0CC061
:1007A000EFE1FEE43197F1F700C00000049B14C0B4
:1007B00020E048E26EE1C6CFFFEF20E732E0F150E3
:1007C00020403040E1F700C0000020B1222321F09A
:1007D00020E040E060E0B6CF089520EC21B92FEF93
:1007E0002AB9029B0DC0EFE1FEE43197F1F700C09A
:1007F0000000029B4CC020E047E367E30C946202D8
:10080000009B0CC0EFE1FEE43197F1F700C000005F
:10081000009B3DC023E04FE06DE2F0CF019B0BC099
:10082000EFE1FEE43197F1F700C00000019B2FC01B
:1008300023E049E1F1CF039B0CC0EFE1FEE43197E7
:10084000F1F700C00000039B22C022E04DE269E105
:10085000D5CF049B0CC0EFE1FEE43197F1F700C067
:100860000000049B14C022E04DE26FE0C7CFFFEF11
:1008700020E732E0F15020403040E1F700C00000B6
:1008800020B1222321F020E040E060E0B7CF0895BE
:100890000C94ED030F931F93CF93DF93CDB7DEB787
:1008A0002C970FB6F894DEBF0FBECDBF8C0148E287
:1008B00050E067E270E0CE0101960E94A106CE01F1
:1008C0000C960E9452021C86CE010B960E94520288
:1008D000009908C0019906C0029904C0039902C09A
:1008E000049B11C0CE010C960E944804CE010196D3
:1008F0000E94F30620E041E062E571E0CE0101963E
:100900000E949507E5CF019965C0029963C00399DC
:1009100061C0F80180818823F9F020E040E063E2C3
:10092000CE010B960E946202FFE72AE186E0F150B9
:1009300020408040E1F700C00000F8011082CE01A5
:1009400001960E94F30620E041E066E571E0CE01E9
:1009500001960E949507DDCF049B1DC020E040E07A
:1009600062E3CE010B960E946202FFEF21EE84E06B
:10097000F15020408040E1F700C00000CE01019618
:100980000E94F30620E041E06CE571E0CE010196A3
:100990000E949507E1CF009BB6CF20E042E360E0E4
:1009A000CE010B960E9462029FEFE1EEF4E09150BF
:1009B000E040F040E1F700C00000CE0101960E9447
:1009C000F30620E041E065E671E0CE0101960E9469
:1009D0009507E1CF00992AC0019928C0029926C045
:1009E000039924C0049922C020E040E060E0CE01D9
:1009F0000B960E946202CE0101960E94F30620E04F
:100A000041E06EE671E0CE0101960E949507CE01AD
:100A100001960E94BF062C960FB6F894DEBF0FBE5B
:100A2000CDBFDF91CF911F910F910895CE01019617
:100A30000E94F30620E041E066E771E0CE010196F6
:100A40000E949507049B0CC0009B0AC0029908C035
:100A500020E048E260E0CE010B960E946202F6CFF1
:100A600020E040E060E0CE010B960E9462022FEF92
:100A700088EF95E1215080409040E1F700C00000F0
:100A8000009908C0019906C0029904C0039902C0E8
:100A9000049BA0CFCE0101960E94F30620E041E026
:100AA00069E771E0CE0101960E949507CE010C9690
:100AB0000E944804E5CFF8941AB88FEF84B9E99AF8
:100AC000E9E6F0E080818460808378940895F8946A
:100AD0001AB88FEF84B9E89AE9E6F0E08081816086
:100AE000808378940895CF93DF93CDB7DEB76F9767
:100AF0000FB6F894DEBF0FBECDBFCE014F960E9459
:100B000052021F8ECE014E960E945202CE010196D5
:100B10000E94980A009908C0019906C0029904C071
:100B2000039902C0049B16C0CE014F960E94ED03AC
:100B3000F1CFCE0101960E94AF0B22E048E260E0C7
:100B4000CE014E960E9462028FE493EC0197F1F77A
:100B500000C00000009908C0019906C0029904C0B5
:100B6000039902C0049BE5CF20E040E060E0CE01A5
:100B70004E960E9462022FE788E391E02150804068
:100B80009040E1F700C00000009908C0019906C03C
:100B9000029904C0039902C0049B1AC0CE010196B9
:100BA0000E94150BCE014F960E94ED03EDCFCE01B2
:100BB00001960E94AC0B23E040E068E2CE014E9625
:100BC0000E9462028FE493EC0197F1F700C00000ED
:100BD000009908C0019906C0029904C0039902C097
:100BE000049BE5CF20E040E060E0CE014E960E94FD
:100BF00062029FE728E381E0915020408040E1F7C6
:100C000000C00000009908C0019906C0029904C004
:100C1000039902C0049B1AC0CE0101960E94150BD5
:100C2000CE014F960E94ED03EDCFCE0101960E94BA
:100C3000AF0B22E048E260E0CE014E960E946202D5
:100C40008FE493EC0197F1F700C00000009908C011
:100C5000019906C0029904C0039902C0049BE5CF24
:100C600020E040E060E0CE014E960E9462029FE7E5
:100C700028E381E0915020408040E1F700C000006F
:100C8000009908C0019906C0029904C0039902C0E6
:100C9000049B1AC0CE0101960E94150BCE014F96FF
:100CA0000E94ED03EDCFCE0101960E94AC0B23E034
:100CB00040E068E2CE014E960E9462028FE493EC1F
:100CC0000197F1F700C00000009908C0019906C023
:100CD000029904C0039902C0049BE5CF20E040E0E4
:100CE00060E0CE014E960E9462029FE728E381E019
:100CF000915020408040E1F700C00000009918C0EA
:100D0000019916C0029914C0039912C0049910C029
:100D100020E040E060E0CE014E960E9462026F96B5
:100D20000FB6F894DEBF0FBECDBFDF91CF9108950F
:100D3000CE0101960E94150BCE014F960E94ED0345
:100D4000DDCFCF93DF93EC01CB01BA01188219827A
:100D50001A821B824C837D83188619860E944E0C52
:100D60004C815D8160E081E00E94070C80E190E0B1
:100D70000E9428129F838E83DF91CF910895FC01FA
:100D8000868197810C94C4121F93CF93DF93EC015B
:100D9000162F2C813D81462F6B8181E00E940F0C24
:100DA0001A83DF91CF911F9108951F93CF93DF9303
:100DB000EC01162F2C813D814A8181E00E940F0CAD
:100DC0001B83DF91CF911F910895FC01862F603224
:100DD00048F4618364817581803110F40C94410C76
:100DE000805DFCCF0895CF93DF93EC018C819D81D2
:100DF0000E94FB0B18826981CE01DF91CF910C9488
:100E0000E5066F927F928F929F92AF92BF92CF92A0
:100E1000DF92EF92FF920F931F93CF93DF93EC013A
:100E20008B01F42EE22ECB010E94D30C6C017A8050
:100E30008B8060E0CE010E94C40660E0CE010E947B
:100E4000D506EE2019F0CE010E94F3062FE12F15F2
:100E500008F45CC08F2D90E0A601552720E230E019
:100E6000281B390BC216130611F00CF04FC09C2C36
:100E70006C817D81EFE0EF1548F1840F951FEC2C1C
:100E800040971CF080E1E82EEF188F2D0E94410C56
:100E9000602E58016C817D818A2D86198E1530F463
:100EA000F50181915F010E94480CF4CF80E40E941B
:100EB000410C0E0D111DE914D8F46C817D81F801EF
:100EC00081918F010E94480CE394F5CF80E38F0D50
:100ED0000E94410CE02E58018A2D8E19891540F48C
:100EE0006C817D81F50181915F010E94480CF4CFF6
:100EF0006981CE010E94E506672DCE010E94C406DD
:100F0000682DCE010E94D506FC0CF882DF91CF91AE
:100F10001F910F91FF90EF90DF90CF90BF90AF9017
:100F20009F908F907F906F9008956115710511F0DB
:100F30000C94010708950F931F93CF93DF9300D074
:100F4000CDB7DEB78C011A82698320E0FC014081B5
:100F5000BE016F5F7F4F0E940107C8010F900F9085
:100F6000DF91CF911F910F910895EF92FF920F9310
:100F70001F93CF93DF938C01862FEA016830B8F47A
:100F80002097A9F0F80164817581880F880F880F78
:100F90000E94390C7E01F8E0EF0EF11CF80164812B
:100FA000758189910E94480CCE15DF05B9F7DF9154
:100FB000CF911F910F91FF90EF900895CF93DF9302
:100FC000EC01CB01892B29F020E04881CE010E9461
:100FD0009507CE01DF91CF910895CF93DF93EC0178
:100FE0007F936F9384E891E09F938F938F818F938A
:100FF0008E818F930E944D136E817F81CE010E945E
:10100000DE070F900F900F900F900F900F90CE0172
:10101000DF91CF910895CF93DF93EC017F936F938E
:1010200087E891E09F938F938F818F938E818F9329
:101030000E944D136E817F81CE010E94DE070F90CA
:101040000F900F900F900F900F90CE01DF91CF91E6
:101050000895CF93DF93EC011F926F938AE891E09C
:101060009F938F938F818F938E818F930E944D13C7
:101070006E817F81CE010E94DE070F900F900F904E
:101080000F900F900F90CE01DF91CF9108950F93A5
:101090001F93CF93DF93EC018B016115710561F014
:1010A000288581E028274985CE010E9495078885FB
:1010B000882311F018861986C801DF91CF911F91FE
:1010C0000F910895FC01603218F4618781E08087F8
:1010D000CF0108950F931F93CF93DF93EC01888185
:1010E000082F681708F4062F801B888310E010175C
:1010F00031F060E2CE010E949B071F5FF8CF88812C
:10110000811B8883DF91CF911F910F910895F894EF
:101110008BEF84B980EC81B9EA9AE9E6F0E080814E
:101120008061808315BC789408951F921FB61F922A
:1011300011242F933F938F939F938091D801909187
:10114000D9010197C9F415BC80916E008E7F809300
:101150006E0086B52091D6013091D701322F22271B
:10116000820F932F911D9093DB018093DA0116BCBF
:101170001092D9011092D8018091D8019091D90193
:10118000892B91F41092D7011092D60185B5826017
:1011900085BD80916E00816080936E0081E090E05B
:1011A0009093D9018093D8019F918F913F912F9176
:1011B0001F901FBE1F9018958F938FB78F939F938B
:1011C0008091D6019091D70101969093D701809399
:1011D000D6019F918F918FBF8F911895AF92BF923B
:1011E000CF92DF92EF92FF920F931F93CF93DF93F3
:1011F000CDB7DEB7A9970FB6F894DEBF0FBECDBF4F
:101200008C0148E250E067E270E0CE014E960E9409
:10121000A106C8010E9487088DE1E7E0F1E0DE0148
:10122000119601900D928A95E1F7CE0189960E9460
:101230005202CE0188960E94520218A6209A229845
:1012400085B1836085B928E22A95F1F785B185B922
:101250008FE798E3E1E081509040E040E1F700C083
:10126000000000992DC001992BC0029929C0039953
:1012700027C0049925C08AE3A82EB12CF8018181EA
:10128000882309F483C0CE014E960E94F30620E025
:1012900041E061E971E0CE014E960E949507009908
:1012A00008C0019906C0029904C0039902C0049BBA
:1012B00018C0CE0101960E94CF0CF8011182DECF3A
:1012C000CE0188960E944804CE014E960E94F306F5
:1012D00020E041E06DE871E0CE014E960E94950756
:1012E000C0CF289AF8E2FA95F1F72898C090DA0171
:1012F000D090DB01C601B5010E94580E7B012FE79B
:1013000088E391E0215080409040E1F700C0000068
:10131000CE014E960E94F306B701CE014E960E9472
:10132000ED0720E04EE168E2ECE2CE16E3E0DE06F7
:1013300040F0FAEDCF16F3E0DF06A8F020E048E237
:101340006EE1CE0189960E946202CE0101960E9452
:10135000B30C9FE7E8E3F1E09150E040F040E1F7A3
:1013600000C000009CCF2EE0E21AF10883E0E816EE
:10137000F10478F720E047E267E2CE0189960E9407
:101380006202CE0101960E94B00CE3CF009908C022
:10139000019906C0029904C0039902C0049B26C0AB
:1013A000CE014E960E94F30620E041E06AE971E02A
:1013B000CE014E960E9495072FEF85EA9EE02150C0
:1013C00080409040E1F700C0000020E040E060E095
:1013D000CE0189960E946202EFEFF1EE24E0E15027
:1013E000F0402040E1F700C00000D0CF009908C0D5
:1013F000019906C0029904C0039902C0049B2BC046
:1014000020E040E060E0CE0189960E9462028FEF0A
:1014100097E8E3E181509040E040E1F700C0000030
:10142000009908C0019906C0029904C0039902C03E
:10143000049B4CC0CE014E960E94F30620E041E092
:101440006BEA71E0CE014E960E949507CE01889618
:101450000E944804E5CFCE014E960E94F30620E09C
:1014600041E06EE971E0CE014E960E949507029927
:10147000BDCF20E048E260E0CE0189960E94620282
:10148000F6CFCE014E960E94F30620E041E066EBD7
:1014900071E0CE014E960E949507FFEF25EA8EE09F
:1014A000F15020408040E1F700C0000020E040E023
:1014B00060E0CE0189960E9462029FEFE8EFF5E1BD
:1014C0009150E040F040E1F700C00000009B08C0F0
:1014D000019B06C0029B04C0039B02C00499D1CFAC
:1014E00020E040E060E0CE0189960E946202CE01D9
:1014F0004E960E94F30620E041E06EE671E0CE01D8
:101500004E960E949507CE014E960E94BF06A99660
:101510000FB6F894DEBF0FBECDBFDF91CF911F9104
:101520000F91FF90EF90DF90CF90BF90AF90089514
:10153000FC0110828FEF818392E0928391E093838C
:1015400014828583168280E090E0ACEDB3E487835B
:101550009087A187B28780E090E0A4E3B2E483871C
:101560009487A587B68780E090E0AAE8B2E48787F1
:10157000908BA18BB28B80E090E0A2EAB2E4838BE7
:10158000948BA58BB68B8FE3878B83E5808F8DE75C
:10159000818F8AEF828F84EF91E0948F838F0895FB
:1015A000CF93DF9300D000D0CDB7DEB7942F852F37
:1015B000229A242F352FAB0199838A836B837C83F6
:1015C00069817A818B819C810E946D0E20E030E0E0
:1015D00040E853E469837A838B839C8369817A81B1
:1015E0008B819C810E9436109B01AC0160E074E20B
:1015F00084EF9AE40E94DE0E69837A838B839C8356
:1016000069817A818B819C810E94500F67BD84B56E
:10161000826484BD85B5846085BD16BC0F900F9033
:101620000F900F90DF91CF91089517BC14BC15BC9B
:1016300016BC0895EF92FF920F931F93CF93DF9301
:1016400000D000D000D0CDB7DEB78D839E83862F2B
:1016500090E0B0E0A0E089839A83AB83BC83BC01B7
:10166000CD010E94810F7B018C01AD81BE811B9653
:101670002D913D914D915C911E976983FA828B83E8
:101680001C8369817A818B819C810E94311087FD46
:1016900056C0ED81FE812389348945895689698147
:1016A0007A818B819C810E94D90E18160CF447C058
:1016B000AD81BE811F962D913D914D915C915297C8
:1016C00069817A818B819C810E946C0E20E030E0E0
:1016D00040E451E469837A838B839C8369817A81B6
:1016E0008B819C810E94DE0E9B01AC0160E070E06A
:1016F00080E090E40E94A310ED81FE812781308577
:101700004185528569837A838B839C8369817A8141
:101710008B819C810E943610462F572FBC018D81F2
:101720009E8126960FB6F894DEBF0FBECDBFDF9127
:10173000CF911F910F91FF90EF900C94D00A2696B5
:101740000FB6F894DEBF0FBECDBFDF91CF911F91D2
:101750000F91FF90EF9008956DE20C941A0B61E5E4
:101760000C941A0BFC0180818062808384E08A954E
:10177000F1F780818F7D80830895DF92EF92FF9251
:101780000F931F93CF93DF93D42EE901062F10E020
:1017900090E8899F700111248881817288838881F3
:1017A000980194E0359527959A95E1F7220F331F1C
:1017B0002E29282B2883CE010E94B20B88818172AA
:1017C00088838881000F111F0E710E29082B088352
:1017D000CE010E94B20B80E09AE19A95F1F700C029
:1017E0008F5FD812F9CFDF91CF911F910F91FF90AA
:1017F000EF90DF9008959C0144EA61E080E00C9452
:10180000BD0B9C0144EA62E080E00C94BD0B9A01A0
:10181000880F682B646044E080E00C94BD0B54E0BA
:10182000859FC0011124482B660F642B686044E03B
:1018300080E00C94BD0B9A0148E0849FC001112404
:1018400044E0649FB0011124682B606144E080E0B3
:101850000C94BD0B9A0140E1849FC001112448E023
:10186000649FB0011124682B606244E080E00C9416
:10187000BD0B9B018F77682F606444E080E00C947F
:10188000BD0B9B01682F606844E080E00C94BD0BA9
:101890009B0144E0682F81E00C94BD0BCF93DF9354
:1018A000FC01EB018FE295E70197F1F700C0000022
:1018B00080818172808380818FEF808388818172B3
:1018C000888388818660888388818E7F8883CB0126
:1018D0000E94B20B87E090E20197F1F700C0000090
:1018E000CE010E94B20B87EC90E00197F1F700C0A7
:1018F0000000CE010E94B20B9AE69A95F1F700C063
:10190000888181728883888184608883CE010E9467
:10191000B20B8AE68A95F1F700C09E0144E06CE2C2
:1019200080E00E94BD0B9E0140E060E080E00E94EC
:101930000F0CCE010E94FB0BAE0160E081E00E9423
:10194000070C9E0140E060E081E0DF91CF910C94B4
:101950000F0C81B1806C81B982B18F7382B9089507
:101960001698179A08951798169A0895CF93DF93AB
:10197000D82FC92F0E94B00C8FE19EE40197F1F798
:1019800000C000008D2F9C2F0E94B30C8FE19EE4BD
:101990000197F1F700C00000DF91CF91089582B167
:1019A0008F7382B908959C0190E080E00196F9015F
:1019B000E80FF91F40814111F9CF0895EF92FF928E
:1019C0000F931F93CF93DF93EC01FB011F8630979A
:1019D00001F17C018FE0E80EF11C2EE0042F10E0F5
:1019E000CF01B8010E94580EDC01AD53BE4F8C915F
:1019F000D7018E937D012150CF01FB018017910704
:101A000010F02111EDCF822F90E001968C0F9D1FD9
:101A100003C00E9620E32E87DF91CF911F910F9187
:101A2000FF90EF9008959C0190E080E0821793076B
:101A300041F0EFECF7E03197F1F700C000000196BC
:101A4000F5CF0895CDB7DEB762970FB6F894DEBF35
:101A50000FBECDBF11B88FEF87B9CE0142960E945D
:101A6000520211E01D871E87198B188BCE010F962D
:101A70000E9452021F861B871C8784ED91E00E9402
:101A80005B0584ED91E00E94670548E250E067E263
:101A900070E0CE0101960E94A10610E08091000145
:101AA000882309F4F8C0123009F469C038F411230E
:101AB000C9F1113009F44EC012E003C0133009F42B
:101AC00075C00091D501013049F7109200018DB326
:101AD0008DBB8091690080936900123009F4C1C008
:101AE00008F079C0112309F493C0113051F7CE01E9
:101AF00001960E94F30620E045E06DE271E0CE0120
:101B000001960E949507CE010B960E94EE08CE0129
:101B10000F960E94D4008F85843009F490C01093F2
:101B2000D501CACF20E043E064E271E0CE01019626
:101B30000E9495078091D401813011F010E0C1CF4F
:101B4000CE0101960E94F3068091D4018130E1F329
:101B500011E0B7CF20E045E06DE271E0CE010196E3
:101B60000E9495078091D401813091F7CE010196B2
:101B70000E94F3068091D4018130E1F39DCF20E0F3
:101B800040E062E371E0CE0101960E9495078091EA
:101B9000D401813009F090CFCE0101960E94F30666
:101BA0008091D4018130E1F313E08BCF20E043E05A
:101BB00063E471E0CE0101960E9495078091D40103
:101BC000813091F7CE0101960E94F3068091D401F5
:101BD0008130E1F3B3CF133009F073CFCE0101961A
:101BE0000E94F30620E043E063E471E0CE01019639
:101BF0000E949507CE0140960E947305CE010F9674
:101C00000E94D4008F858430D1F00093D50196CF07
:101C1000CE0101960E94F30620E043E064E271E009
:101C2000CE0101960E949507CE0141960E944A047A
:101C3000CE010F960E94D4008F85843079F41092E3
:101C4000D501CE0101960E94F30620E045E06DE447
:101C500071E0CE0101960E94950733CF0093D50124
:101C600077CFCE0101960E94F30620E040E062E3C8
:101C700071E0CE0101960E949507CE010D960E945B
:101C80002D01CE010F960E94D4008F858430B9F2C9
:101C90000093D50189CFCE0101960E94BF0690E046
:101CA00080E062960FB6F894DEBF0FBECDBF0895F8
:101CB000AA1BBB1B51E107C0AA1FBB1FA617B70772
:101CC00010F0A61BB70B881F991F5A95A9F780958E
:101CD0009095BC01CD0108955058BB27AA270E94BA
:101CE000840E0C94F70F0E94E90F38F00E94F00F59
:101CF00020F039F49F3F19F426F40C94E60F0EF40B
:101D0000E095E7FB0C94E00FE92F0E94081058F3D0
:101D1000BA17620773078407950720F079F4A6F5D0
:101D20000C942A100EF4E0950B2EBA2FA02D0B0167
:101D3000B90190010C01CA01A0011124FF27591B10
:101D400099F0593F50F4503E68F11A16F040A22F16
:101D5000232F342F4427585FF3CF46953795279587
:101D6000A795F0405395C9F77EF41F16BA0B620B86
:101D7000730B840BBAF09150A1F0FF0FBB1F661FCD
:101D8000771F881FC2F70EC0BA0F621F731F841F10
:101D900048F4879577956795B795F7959E3F08F036
:101DA000B0CF9395880F08F09927EE0F97958795F8
:101DB00008950E94BC0F08F481E008950E94F20E7D
:101DC0000C94F70F0E94F00F58F00E94E90F40F0BA
:101DD00029F45F3F29F00C94E00F51110C942B1063
:101DE0000C94E60F0E94081068F39923B1F3552371
:101DF00091F3951B550BBB27AA276217730784071E
:101E000038F09F5F5F4F220F331F441FAA1FA9F3B3
:101E100035D00E2E3AF0E0E832D091505040E695A1
:101E2000001CCAF72BD0FE2F29D0660F771F881F02
:101E3000BB1F261737074807AB07B0E809F0BB0BF5
:101E4000802DBF01FF2793585F4F3AF09E3F510509
:101E500078F00C94E00F0C942B105F3FE4F3983E65
:101E6000D4F3869577956795B795F7959F5FC9F7F2
:101E7000880F911D9695879597F90895E1E0660F73
:101E8000771F881FBB1F621773078407BA0720F0EC
:101E9000621B730B840BBA0BEE1F88F7E095089555
:101EA0000E94101088F09F5798F0B92F9927B751CA
:101EB000B0F0E1F0660F771F881F991F1AF0BA95EE
:101EC000C9F714C0B13091F00E942A10B1E0089512
:101ED0000C942A10672F782F8827B85F39F0B93F04
:101EE000CCF3869577956795B395D9F73EF49095A1
:101EF0008095709561957F4F8F4F9F4F0895E8941F
:101F000009C097FB3EF490958095709561957F4F41
:101F10008F4F9F4F9923A9F0F92F96E9BB279395EF
:101F2000F695879577956795B795F111F8CFFAF4FF
:101F3000BB0F11F460FF1BC06F5F7F4F8F4F9F4F30
:101F400016C0882311F096E911C0772321F09EE88E
:101F5000872F762F05C0662371F096E8862F70E0F4
:101F600060E02AF09A95660F771F881FDAF7880FCE
:101F70009695879597F90895990F0008550FAA0B24
:101F8000E0E8FEEF16161706E807F907C0F012168C
:101F90001306E407F50798F0621B730B840B950B8F
:101FA00039F40A2661F0232B242B252B21F40895E4
:101FB0000A2609F4A140A6958FEF811D811D089581
:101FC00097F99F6780E870E060E008959FEF80ECEC
:101FD000089500240A94161617061806090608958F
:101FE00000240A9412161306140605060895092EF5
:101FF0000394000C11F4882352F0BB0F40F4BF2B64
:1020000011F460FF04C06F5F7F4F8F4F9F4F0895A3
:1020100057FD9058440F551F59F05F3F71F0479599
:10202000880F97FB991F61F09F3F79F0879508957E
:10203000121613061406551FF2CF4695F1DF08C09D
:10204000161617061806991FF1CF869571056105BA
:1020500008940895E894BB2766277727CB0197F962
:1020600008950E94BC0F08F48FEF08950E94491054
:102070000C94F70F0E94E90F38F00E94F00F20F047
:10208000952311F00C94E00F0C94E60F11240C949E
:102090002B100E94081070F3959FC1F3950F50E02C
:1020A000551F629FF001729FBB27F00DB11D639F0A
:1020B000AA27F00DB11DAA1F649F6627B00DA11DB0
:1020C000661F829F2227B00DA11D621F739FB00D56
:1020D000A11D621F839FA00D611D221F749F3327C6
:1020E000A00D611D231F849F600D211D822F762F5F
:1020F0006A2F11249F5750409AF0F1F088234AF03C
:10210000EE0FFF1FBB1F661F771F881F91505040A7
:10211000A9F79E3F510580F00C94E00F0C942B1012
:102120005F3FE4F3983ED4F3869577956795B7952E
:10213000F795E7959F5FC1F7FE2B880F911D969548
:10214000879597F90895FA01EE0FFF1F3096210544
:102150003105A1F16115710561F48038BFE39B077A
:1021600049F168949038810561F08038BFEF9B0792
:1021700041F099234AF5FF3FE1053105210519F1A9
:10218000E8940894E795D901AA2329F4AB2FBE2F30
:10219000F85FD0F310C0FF5F70F4A695E0F7F73951
:1021A00050F019F0FF3A38F49F779F930DD00F90BD
:1021B00007FC9058089546F00C94E60F60E070E03C
:1021C00080E89FE308954FE79F775F934F933F9396
:1021D0002F930E949E112F913F914F915F910E94EA
:1021E00036100C94FB1029F416F00C94E00F0C94AC
:1021F0002A100C94E60F0E941010A8F39638A0F74E
:1022000007F80F92E8942BE33AEA48EB5FE70E9465
:102210004C100F920F920F924DB75EB70F920E9423
:10222000E611ECE7F0E00E942D114F915F91EF91E4
:10223000FF91E595EE1FFF1F49F0FE57E068442728
:10224000EE0F441FFA95E1F74195550B0E9460117E
:102250000F9007FE0C9454110895DF93CF931F93B2
:102260000F93FF92EF92DF927B018C01689406C07E
:10227000DA2EEF010E944910FE01E894A591259104
:10228000359145915591A6F3EF010E94840EFE0110
:102290009701A801DA9469F7DF90EF90FF900F9112
:1022A0001F91CF91DF9108959B01AC0160E070E038
:1022B00080E89FE30C94DE0E0C94E00F0C941A124D
:1022C0000E941010D8F39923C9F3940F511DA3F362
:1022D0009150504094F059F0882332F0660F771FE8
:1022E000881F91505040C1F79E3F51052CF7880F31
:1022F000911D9695879597F908955F3FACF0983EAC
:102300009CF0BB27869577956795B79508F4B160E3
:102310009395C1F7BB0F58F711F460FFE8CF6F5FDB
:102320007F4F8F4F9F4FE3CF0C942B1016F00C94E0
:102330001A120C94E60F68940C94E00F0E9410108F
:10234000A8F39923C1F3AEF3DF93CF931F930F93B9
:10235000FF92C92FDD2788232AF02197660F771F68
:10236000881FDAF720E030E040E85FEB9FE3883930
:1023700020F0803E38F021968F770E946D0EE4EABF
:10238000F0E004C00E946D0EE1EDF0E00E942D111E
:102390008B01BE01EC01FB2E6F5771097595771FFC
:1023A000880B990B0E94810F28E132E741E35FE33C
:1023B0000E944910AF2D9801AE01FF900F911F911F
:1023C000CF91DF910E94840E0C94F70FFA01DC018B
:1023D000AA0FBB1F9B01AC01BF5728F4222733274C
:1023E0004427507820C0B75190F4AB2F0024469575
:1023F00037952795011CA395D2F3002071F0220F89
:10240000331F441FB395DAF30ED00C946C0E613079
:102410007105A0E88A07B94630F49B01AC01662734
:10242000772788279078309621F020833183428364
:10243000538308959F3F31F0915020F4879577950D
:102440006795B795880F911D9695879597F908958B
:102450000F931F93CF93DF938230910510F482E0A6
:1024600090E0E091DE01F091DF0130E020E0B0E0AB
:10247000A0E0309799F42115310509F44AC0281BD2
:10248000390B24303105D8F58A819B81611571059E
:1024900089F1FB0193838283FE0111C04081518148
:1024A0000281138148175907E0F04817590799F43A
:1024B000109761F012960C93129713961C93329614
:1024C000CF01DF91CF911F910F9108950093DE010D
:1024D0001093DF01F4CF2115310551F04217530756
:1024E00038F0A901DB019A01BD01DF01F801C1CF7C
:1024F000EF01F9CF9093DF018093DE01CDCFFE0194
:10250000E20FF31F8193919322503109398328837D
:10251000D7CF2091DC013091DD01232B41F42091B4
:102520000301309104013093DD012093DC012091FF
:102530000101309102012115310541F42DB73EB75B
:102540004091050150910601241B350BE091DC01FF
:10255000F091DD01E217F307A0F42E1B3F0B2817C3
:10256000390778F0AC014E5F5F4F2417350748F00C
:102570004E0F5F1F5093DD014093DC0181939193D7
:102580009FCFF0E0E0E09CCFCF93DF930097E9F09E
:10259000FC01329713821282A091DE01B091DF011B
:1025A000ED0130E020E01097A1F420813181820F0D
:1025B000931F2091DC013091DD012817390709F0C4
:1025C00061C0F093DD01E093DC01DF91CF910895CC
:1025D000EA01CE17DF07E8F54A815B819E014115CC
:1025E0005105B1F7E901FB83EA8349915991C40F81
:1025F000D51FEC17FD0761F4808191810296840F4D
:10260000951FE90199838883828193819B838A83C3
:10261000F0E0E0E012968D919C9113970097B9F548
:102620002D913C911197CD010296820F931F20911D
:10263000DC013091DD012817390739F6309751F563
:102640001092DF011092DE01B093DD01A093DC0156
:10265000BCCFD383C28340815181840F951FC8179B
:10266000D90761F44E5F5F4F88819981480F591FE8
:10267000518340838A819B81938382832115310515
:1026800009F0B0CFF093DF01E093DE019ECFFD01B2
:10269000DC01C0CF13821282D7CFAEE0B0E0E3E519
:1026A000F3E10C94FC150D891E8986E08C831A8356
:1026B00009838FEF9FE79E838D83AE01475E5F4F57
:1026C0006F89788DCE0101960E9470132F81388515
:1026D000020F131FF80110822E96E4E00C941816D6
:1026E000ABE0B0E0E6E7F3E10C94EE157C013B01D2
:1026F0008A01FC0117821682838181FFC8C1CE0145
:1027000001965C01F7019381F30193FD859193FF9D
:1027100081913F01882309F453C1853239F493FD37
:10272000859193FF81913F01853229F4B70190E0B3
:102730000E946015E7CF912C212C312CFFE1F3157D
:1027400038F08B3211F190F4803209F1833229F1A3
:1027500037FC3CC020ED280F2A3050F536FE20C053
:102760008AE0989E200D1124922E06C08D3291F0A1
:10277000803371F7689430F8F30193FD859193FFEE
:1027800081913F018111DACF21C0689431F86894BA
:1027900032F8F2CF689433F8EFCF689434F8ECCF86
:1027A000EAE02E9E200D1124222E689435F8E4CF05
:1027B0008E3229F436FC04C1689436F8DDCF8C36AD
:1027C00019F4689437F8D8CF8836B1F2982F9F7DE6
:1027D00095549330E0F08336A1F18337C1F183350E
:1027E00009F063C02801F2E04F0E511CF801C080CF
:1027F000D180692D70E036FC02C06FEF7FEFC6011B
:102800000E944A154C01689437F882010AC00C5F97
:102810001F4FFFE3F98388248394912C6501E8948A
:1028200037F833FE2DC0522C8114910471F55520D8
:1028300009F468CFB70180E290E00E9460155A94D5
:10284000F6CFF801808189830E5F1F4FE4CF280106
:10285000F2E04F0E511CF801C080D180692D70E06C
:1028600036FC02C06FEF7FEFC6010E9455154C0188
:102870008201D5CFB70180E290E00E9460152A94D2
:102880002814190409F0B0F7CECFF60137FC859172
:1028900037FE81916F01B70190E00E9460155110E1
:1028A0005A94F1E08F1A9108BFCF843619F0893617
:1028B00009F077C0F80137FE6BC0608171818281B9
:1028C00093810C5F1F4FF32DFF763F2E97FF09C0BA
:1028D00090958095709561957F4F8F4F9F4F68942D
:1028E00037F82AE030E0A5010E949015C82ECA18DA
:1028F0008C2C432C36FE0CC0E89440F8C91440F4EC
:1029000034FE05C032FC03C0F32DFE7E4F2E892C11
:1029100044FE95C0FE01EC0DF11D8081803309F06D
:1029200087C0242D297E422E842D8870582E43FC8A
:1029300095C040FE8FC09C2C821418F42C0C922C55
:10294000981844FE91C0B70180E390E00E946015A2
:1029500042FE09C088E790E041FE02C088E590E0B1
:10296000B7010E946015C91408F48AC0CA94D12C1A
:102970009FEFC91AD90ACA0CDB1CF60182916F01BC
:10298000B70190E00E946015AC14BD04B1F74FCFC1
:1029900060817181072E000C880B990B0E5F1F4F11
:1029A00092CFD32CE894D4F82AE030E0853739F17F
:1029B000232D297FD22E8F3601F148F48835A9F0D6
:1029C000F701868197812B96E2E10C940A168037F5
:1029D00049F08837A9F7D4FE02C06894D2F820E104
:1029E00030E00DC06894D4F8F6CF34FE03C0822FD7
:1029F0008660D82E20E132E002C028E030E0F80105
:102A0000D7FE0FC060817181828193810C5F1F4F5F
:102A1000A5010E949015C82ECA183D2CE89437F8DD
:102A200067CF6081718190E080E00E5F1F4FF0CF33
:102A300042FC02C0839478CF8394839475CF842D15
:102A4000867809F471CFF6CFB70180E290E00E945A
:102A5000601583948214C0F3512C73CF522C5818F4
:102A6000821408F46ECFF8CF842D867809F47BCFDA
:102A70008BE241FE80E247FC8DE2B70190E071CF2E
:102A8000B70180E390E00E9460159A946CCF8FEFBD
:102A90009FEF99CFFC010590615070400110D8F76D
:102AA000809590958E0F9F1F0895FC016150704096
:102AB00001900110D8F7809590958E0F9F1F089573
:102AC0000F931F93CF93DF93182F092FEB018B8167
:102AD00081FD09C01FEF0FEF812F902FDF91CF9164
:102AE0001F910F91089582FF14C02E813F818C8128
:102AF0009D81281739073CF4E881F981CF010196BF
:102B00009983888310838E819F8101969F838E8312
:102B1000E3CFE885F985812F0995892BA1F3DACFD9
:102B2000FA01AA27283051F1203181F1E8946F93FE
:102B30006E7F6E5F7F4F8F4F9F4FAF4FB1E03ED0A4
:102B4000B4E03CD0670F781F891F9A1FA11D680F42
:102B5000791F8A1F911DA11D6A0F711D811D911D75
:102B6000A11D20D009F468943F912AE0269F1124EA
:102B70003019305D3193DEF6CF010895462F47704E
:102B8000405D4193B3E00FD0C9F7F6CF462F4F70A9
:102B9000405D4A3318F0495D31FD4052419302D007
:102BA000A9F7EACFB4E0A6959795879577956795AD
:102BB000BA95C9F700976105710508959B01AC01AD
:102BC0000A2E06945795479537952795BA95C9F7D4
:102BD000620F731F841F951FA01D08952F923F92AF
:102BE0004F925F926F927F928F929F92AF92BF921D
:102BF000CF92DF92EF92FF920F931F93CF93DF93C9
:102C0000CDB7DEB7CA1BDB0B0FB6F894DEBF0FBE25
:102C1000CDBF09942A88398848885F846E847D8472
:102C20008C849B84AA84B984C884DF80EE80FD8074
:102C30000C811B81AA81B981CE0FD11D0FB6F894EA
:0E2C4000DEBF0FBECDBFED010895F894FFCFAB
:102C4E00010000E001200000FF020100FF00000073
:102C5E00DC430000344200008A420000A2423F538F
:102C6E007DFAF401434F554C4F495220004D5552B9
:102C7E0020004C45535F444555585F424F55434CD9
:102C8E00455300434F555055524553200046494E2B
:102C9E0020004120420044454255540043415054C7
:102CAE004555523500434150544555523100544814
:102CBE004520454E4400474800416A757374656D62
:102CCE00656E74002575002569002563004820494E
:102CDE0000534F4E415220494A004A204B00524564
:102CEE004452455353454D454E5400204C49474E92
:102CFE0045204B204C004445524E49455220434FEF
:102D0E00494E0030313233343536373839616263EB
:042D1E006465660082
:00000001FF
