:100000000C943E000C9489000C9450000C94500009
:100010000C9450000C9450000C9450000C94500020
:100020000C9450000C9450000C9450000C94500010
:100030000C9450000C9452000C9450000C945000FE
:100040000C9450000C9450000C9450000C945000F0
:100050000C9450000C9450000C9450000C945000E0
:100060000C9450000C9450000C9450000C945000D0
:100070000C9450000C9450000C94500011241FBE9E
:10008000CFEFD8E0DEBFCDBF21E0A0E0B1E001C0FE
:100090001D92A430B207E1F70E94A4000C9438012D
:1000A0000C9400008F938FB78F9381E080930301AE
:1000B000809101018F5F809301018F918FBF8F919C
:1000C0001895109285001092840090938900809377
:1000D000880010928000E1E8F0E080818B608083EE
:1000E00010928200EFE6F0E08081826080830895C4
:1000F000F8941AB88FEF84B9EFE6F0E0808182605F
:100100008083E89AE9E6F0E08081816080837894DA
:1001100008951F921FB61F9211248F939F938FE50E
:100120009AEE0197F1F700C000004A990AC081E0F9
:1001300080930201E09A9F918F911F901FBE1F90A4
:10014000189510920201F6CF0E94780010920001DB
:1001500011E005E0D2E083E0F82E94E0E92EC091B2
:100160000001C33009F458C0A0F4C13021F185E08A
:1001700090E0C230C1F1C111F2CF15B81092010167
:100180001092030180910201813049F780930001B0
:10019000E6CFC43009F44DC0C53009F7D5B98FEFAB
:1001A00099E628E1815090402040E1F700C000002E
:1001B00010920001D4CF80910301811106C083ED1C
:1001C00090E30E946100C0930301809102018823A3
:1001D00021F080910101883710F215B910926F005B
:1001E000D0930001BCCFD5B92FE738E341E02150CF
:1001F00030404040E1F700C0000015B82FE738E379
:1002000041E0215030404040E1F700C0000001973C
:1002100051F7F0920001A3CF15B88FEF93ED20E3D3
:10022000815090402040E1F700C00000E0920001C2
:1002300096CF80E09091010196958917B0F415B999
:100240003FE74AE196E0315040409040E1F700C07E
:10025000000015B82FE73AE146E021503040404019
:10026000E1F700C000008F5FE5CF0093000177CF7A
:04027000F894FFCF30
:00000001FF
